:100000000C9460010C9488010C9488010C94880174
:100010000C9488010C9488010C9488010C9488013C
:100020000C9488010C9488010C9488010C94022D86
:100030000C9488010C9488010C9488010C9488011C
:100040000C94B82C0C9488010C9488010C948801B1
:100050000C9488010C9488010C9488010C948801FC
:100060000C9488010C948801756E6B6E6F776E002E
:1000700020736573733D00206D6F7665456E643D3A
:100080000020746172676574483D6E616E00207473
:100090006172676574483D00206573746F703D0040
:1000A000206C743D00206C683D002075743D00207C
:1000B00075683D0020706C4D6D3D002070754D6D74
:1000C0003D0020746C3D0020686C3D002074753D3F
:1000D000002068753D002063616C49643D00206D1F
:1000E0006563684F66663D0020686D61783D00205D
:1000F000686D696E3D0020726561736F6E3D002012
:1001000061636365707465643D00206C6173744362
:100110006D643D002063616C3D0020627573793D24
:100120000020683D6E616E0020683D0020706C3DCF
:10013000002070753D00206C3D0050494E47005234
:100140004541445900302E3030006F6B00627573AA
:1001500079006E6F63616C0072616E676500657334
:10016000746F7000706172736500756E6B6E6F777F
:100170006E006F766572666C6F77006C696E6B00EF
:10018000000003080E141A2028316E6F6E65006F90
:100190006B0074696D656F7574006C696E6B5F6C74
:1001A0006F7374006573746F700000000508101A97
:1001B00000000000240027002A00000000002500A5
:1001C00028002B0000000000230026002900040462
:1001D00004040404040402020202020203030303EF
:1001E00003030102040810204080010204081020CB
:1001F00001020408102000000008000201000003B2
:100200000407000000000000000050494E47005362
:10021000544154555300434C4541524553544F505B
:10022000005345544D4543484F464600484F4D45C1
:1002300000484F4D455F555050455200484F4D4581
:100240005F4C4F574552005345454B5F5452415602
:10025000454C005345454B5F54524156454C5F5504
:1002600050504552005345454B5F54524156454C02
:100270005F4C4F5745520053455443414C004D4F3E
:100280005645424F54484D4D004D4F56455F5550D1
:100290005045524D4D004D4F56455F4C4F574552BE
:1002A0004D4D0043414C4452560043414C5354453C
:1002B00050004E55444745004B494C4C0000092E18
:1002C00011241FBECFEFD8E0DEBFCDBF11E0A0E00C
:1002D000B1E0E0EDF1E702C005900D92AE37B10755
:1002E000D9F724E0AEE7B1E001C01D92AD39B20705
:1002F000E1F711E0C0E6D1E004C02197FE010E94C1
:100300008135CF35D107C9F70E944D2E0C94E638C0
:100310000C9400008CBD9DBD0895833081F028F4BD
:10032000813099F08230A9F008958730A9F08830A3
:10033000C9F08430B1F4809180008F7D03C080913A
:1003400080008F7780938000089584B58F7784BD77
:10035000089584B58F7DFBCF8091B0008F77809317
:10036000B00008958091B0008F7DF9CFCF93DF93D7
:10037000282F30E0F901EA50FE4F8491F901EE5147
:10038000FE4FD491F901E253FE4FC491CC23A1F06A
:1003900081110E948D01EC2FF0E0EE0FFF1FEC5356
:1003A000FE4FA591B491EC91ED2381E090E009F42A
:1003B00080E0DF91CF91089580E090E0FACF1F9325
:1003C000CF93DF93282F30E0F901EA50FE4F84915C
:1003D000F901EE51FE4FD491F901E253FE4FC49161
:1003E000CC23A9F0162F81110E948D01EC2FF0E093
:1003F000EE0FFF1FE654FE4FA591B4918FB7F8940E
:10040000EC91111108C0D095DE23DC938FBFDF91F2
:10041000CF911F910895DE2BF8CFCF93DF9390E01B
:10042000FC01EE51FE4F249182539E4FFC018491BA
:100430008823D1F090E0880F991FFC01E055FE4F12
:10044000A591B491FC01E654FE4FC591D491623060
:1004500071F49FB7F8943C91822F809583238C93FD
:10046000E8812E2B28839FBFDF91CF9108958FB70E
:10047000F894EC912E2B2C938FBFF6CF1F93CF9334
:10048000DF93EC01162F88818C3008F04FC061E0BB
:10049000812F0E940D028881282F30E0F901EE0F94
:1004A000FF1FE20FF31FE85DFB4F1F736081607C4D
:1004B000612B608399E499831A822CE0622F0E9459
:1004C0007535829FB001112430E020E0AB01420F6E
:1004D000531FFA01EE0FFF1FE40FF51FE85DFB4FFE
:1004E000908196FD16C02F5F3F4F2C30310571F77C
:1004F00081110FC01092800082E0809381001092E1
:10050000850010928400B19A80916F008260809380
:100510006F00E8818E2F90E0FC01EE0FFF1FE80FC7
:10052000F91FE85DFB4F8081806480838881DF91C3
:10053000CF911F9108953FB7F89480913402909124
:100540003502A0913602B091370226B5A89B05C0AE
:100550002F3F19F00196A11DB11D3FBFBA2FA92F42
:10056000982F8827BC01CD01620F711D811D911D3F
:1005700042E0660F771F881F991F4A95D1F70895AB
:100580002FB7F8946091300270913102809132025D
:10059000909133022FBF089590E080E00895882362
:1005A000E9F0A6E5B3E025E014969C911497891331
:1005B0000DC095E0899FF0011124EA5AFC4F848117
:1005C00014968C931382128214820895992331F029
:1005D000929FD0011124AA5ABC4FE6CF08958823D8
:1005E00081F08F3F29F480919101909192010895BB
:1005F00095E0899FF0011124EA5AFC4F8281938192
:10060000089590E080E0089508958EBD00000DB437
:1006100007FEFDCF8EB508950F931F93CF93DF9301
:10062000082FC62F142FD091110160E08D2F0E944A
:10063000DF018C2F8F71802B0E940503812F0E9478
:10064000050361E08D2F0E94DF01DF91CF911F91A3
:100650000F910895CF93DF93D82FD0769091010119
:100660009D17A1F0C82F43E06FE180EA0E940C03C0
:100670004C2F50E085E0559547958A95E1F74370FA
:100680006FE180E80E940C03D0930101DF91CF91CC
:1006900008951F93CF93DF93C82F162FD72F0E9453
:1006A0002A03412F6C2F80E40E940C0361E06C0F41
:1006B0004D2F80E40E940C03DF91CF911F9108958C
:1006C000EF92FF920F931F93CF93DF938B017A01E9
:1006D0008F3F59F095E0899FE0011124CA5ADC4F01
:1006E00068817981600F711F0FC060918F017091D7
:1006F0009001600F711FCFE8D1E0611588E07807A5
:1007000078F37850CFE8D1E080E00E9449038A81F5
:100710009B81801B910BE816F90608F4C701CDB741
:10072000DEB7E6E00C940736CF92DF92FF920F938C
:100730001F93CF93DF93182FEB016A0180E591E0BF
:100740000E948A01A60170E060E0812F0E94600390
:100750008C01F090110160E08F2D0E94DF018AE38F
:100760000E9405036E01C00ED11ECC15DD0529F0D7
:1007700080E00E9405038993F8CF61E08F2D0E94ED
:10078000DF01C801DF91CF911F910F91FF90DF90A2
:10079000CF90089560918303709184036115710572
:1007A00031F0615071098CE00E94490308956FEFA8
:1007B00077E0F9CFCF93DF93C82FD62F0E942A037B
:1007C0004D2F6C2F80E40E940C03DF91CF91089590
:1007D0001F93CF93DF93182FD62FC091110160E0A4
:1007E0008C2F0E94DF018D2F8F71812B0E940503BA
:1007F000D7FF03C080E00E94050380E00E9405034C
:10080000D82F61E08C2F0E94DF018D2FDF91CF91D7
:100810001F910895CF93C82F0E942A036C2F80E068
:100820000E94E803CF910895CF93DF93EB01682FE7
:1008300084ED0E94DA03BE0186ED0E944903C7E3FE
:10084000D0E08AEE0E940A0480FF04C0CE01019726
:10085000F1F7F7CFDF91CF910895CF93DF93D62FA4
:10086000BC0182E00E944903C091110160E08C2F1D
:100870000E94DF018AE70E9405038D2F0E94050375
:1008800061E08C2F0E94DF01DF91CF910895CF931B
:10089000DF93BC0180E00E944903C091110160E038
:1008A0008C2F0E94DF018AE30E94050380E00E94F2
:1008B0000503D82F61E08C2F0E94DF018D2FDF917F
:1008C000CF910895B0E0A0E0E8E6F4E00C94E935BB
:1008D0006C018B01EA0180E591E00E948A01C13040
:1008E000D10561F4C8010E944704682FC6010E9427
:1008F0002D04CDB7DEB7E8E00C940536C00FD11F4C
:100900007E0181E0E81AF108B80180E10E94490304
:10091000B60184E10E944903011588E0180748F4F4
:10092000E11488E0F80628F07E0181E0E81A88E00A
:10093000F80AB70182E10E94490340E16FE180EAD1
:100940000E940C0340E26FE180E80E940C036FE11B
:1009500080E00E94E80385FDFACFCBCFB0E0A0E0B5
:10096000E4EBF4E00C94E9358C016091560370914E
:1009700057036150784EC12C98E1D92EE6E5F3E09B
:1009800020E0D0E0C0E045E03481CB01332341F0EA
:10099000439FC00111248A5A9C4FDC018D919C9188
:1009A000E080F1808E199F090280F381E02D8E1B7B
:1009B0009F0B8017910799F4B5E02B9FE00111245C
:1009C000CA5ADC4FEBE5F3E081E022813381232B2F
:1009D00009F44FC035968F5F8930B9F744C00817C6
:1009E000190748F48C159D0530F4249FE00111246B
:1009F000CA5ADC4F6C01311121C0209719F7C6E5A6
:100A0000D3E085E0D82E8C8128813981EA80FB8073
:100A10008823D9F0E20EF31E8D9DE0011124CA5AFD
:100A2000DC4F688179816E157F0569F34A815B81AE
:100A3000C7010E946204F982E882E5CF349FF00189
:100A40001124EA5AFC4F232F9FCF80915603909197
:100A50005703821B930B8E199F098150984E801764
:100A6000910708F0AFCF80E0CDB7DEB7E8E00C9497
:100A70000536288139814A815B81240F351F3183F6
:100A80002083138302839C8194838C83EDCF0F9307
:100A90001F93DB01E42FA80190E0EF3FE9F065E050
:100AA000E69FF0011124EA5AFC4F60817181620FC8
:100AB000731F01C0785025E0289FF001299FF00D99
:100AC0001124EA5AFC4F808191818A0F9B1F0E945A
:100AD00062041F910F91089560918F0170919001B0
:100AE000620F731F6115E8E07E0720F7EFE8F1E081
:100AF000DCCFB0E0A0E0EFE7F5E00C94E9357B0156
:100B00008A01482F50E095E0899FF0011124EA5AAC
:100B1000FC4FC281D381C61BD70B2C173D0708F4AD
:100B2000E901209761F185E0849FF001859FF00D38
:100B30001124EA5AFC4FC080D18080E591E00E94E8
:100B40008A01B6016E0D7F1D82E00E944903F0907C
:100B5000110160E08F2D0E94DF018AE70E940503EA
:100B60006801CC0EDD1EF80181918F010E94050302
:100B7000C016D106C1F761E08F2D0E94DF01CE01C2
:100B8000CDB7DEB7E8E00C940536CF93DF93EC01E8
:100B900088810E94CF02188289810E94CF02198227
:100BA000DF91CF910895A1E0B0E0E9EDF5E00C947C
:100BB000ED358C01DC01ED91FC91008CF18DE02D87
:100BC00009958823A1F0D8011C96ED91FC918281B2
:100BD000882369F041E050E0BE016F5F7F4F0E94C3
:100BE0009403898190E02196E4E00C9409368FEF1C
:100BF0009FEFF9CFA1E0B0E0E0E0F6E00C94EF3534
:100C0000DC01ED91FC910288F389E02D41E050E098
:100C1000BE016F5F7F4F09951816190634F489815C
:100C200090E02196E2E00C940B368FEF9FEFF9CF26
:100C3000B0E0A0E0EEE1F6E00C94E335EC014B010E
:100C40008A01E881F981008CF18DE02D09958823D6
:100C500009F471C0EC85FD85828181110EC0E881A7
:100C6000F9810680F781E02DCE01099590E080E0C2
:100C7000CDB7DEB7EEE00C94FF3578018EE1682E3B
:100C8000B8016E197F09680D791DEC85FD85A701F6
:100C900082810E9494036C01AC84BD84F501728052
:100CA000872D0E94EF028C159D0561F5E81AF90A5F
:100CB000872D0E94CF02F501838182831382AC8548
:100CC000BD85EC916E9EF0011124EB57FC4F818D98
:100CD00084FF09C011968C911197982F967019F482
:100CE000886011968C93EC85FD85828181111EC0F0
:100CF000818182FF03C011821D861C86C8018E1966
:100D00009F09B6CF85E0789EF0011124EA5AFC4F86
:100D1000808191818C0D9D1D91838083828193813F
:100D20008C199D0993838283C801A2CFE114F10439
:100D300009F0A6CFF9CF8FEF9FEF9ACFEF92FF92F6
:100D40000F931F93CF93DF938C01DC01ED91FC9106
:100D5000008CF18DE02D0995D0E0C0E08823C9F02A
:100D6000F801E484F584D70112968C910E94EF0279
:100D7000EC01F70183810E94EF02C80FD91F209771
:100D800041F4D801ED91FC910680F781E02DC80176
:100D90000995CE01CDB7DEB7E6E00C940736A1E0A9
:100DA000B0E0E5EDF6E00C94EF356983DC01ED9100
:100DB000FC910280F381E02D41E050E0BE016F5FC5
:100DC0007F4F09952196E2E00C940B36FC01448597
:100DD00055854115510551F0FB01248535852115B7
:100DE000310521F081E04217530709F080E00895B2
:100DF000DC011C96ED91FC91309731F082818111DC
:100E000005C081818170089580E0089581E0089592
:100E100090E080E0089590E080E00895FC01138266
:100E2000128288EE93E0A0E0B0E084839583A683ED
:100E3000B78382E291E0918380831586148688E8E7
:100E400093E1978786870895DC01ED91FC91028CF0
:100E5000F38DE02D099591E089270895FB0141501C
:100E60005109460F571FE417F50778F4208130E049
:100E7000322F22276181260F311D820F931F821787
:100E8000930708F401963296EECFE417F50751F474
:100E9000208130E0322F2227820F931F8217930781
:100EA00008F401960895B0E0A0E0E9E5F7E00C94BD
:100EB000E8358091C20190E0982F88272091C301E6
:100EC000820F911D6C0124E1C21AD10848E050E064
:100ED0006CEC71E00E970E942E070091E0010695E0
:100EE00006950C7310E0A80164ED71E00E942E07D6
:100EF000EC010C151D0508F053C0C01AD10A8091F1
:100F00008C0152E2E52EF12C81FF03C043E2E42E76
:100F1000F12CB0908A0180E591E00E948A01B8012D
:100F20006E0D7F1DA6018B2D0E94600301977C0131
:100F3000B090110160E08B2D0E94DF018AE30E94D6
:100F40000503D12CC12CCE14DF04B8F480E00E943C
:100F50000503082F10E0102F002780E00E940503F2
:100F6000800F912F911DC80FD91FC817D90708F4FA
:100F7000219682E0C80ED11CE6CFEC14FD0461F48A
:100F800080E00E94050390E0982F8827C80FD91FA2
:100F9000C817D90708F4219661E08B2D0E94DF0164
:100FA0009C2F8D2FCD2B11F48FEF9FEFCDB7DEB798
:100FB000E9E00C94043644E150E060EC71E090E02C
:100FC00080E00E942E07009721F098278927982714
:100FD00008958FEF9FEF08950F931F9380918901DC
:100FE00081111BC00E94C0020091850110918601F1
:100FF000209187013091880160177107820793075C
:1010000061F00E94C0026093850170938601809315
:10101000870190938801109289011F910F91089583
:10102000EF92FF920F931F93CF93DF93C0918C01A8
:10103000C1FF69C020918B0130E042EB51E061E0DB
:1010400070E080918A010E947905CD7FC0938C0168
:10105000F0908A0185E0F89EF0011124EA5AFC4FD5
:1010600000811181C281D381C00FD11F80E591E041
:101070000E948A0160E0C8010E942D04B80184E04A
:101080000E944903BE016850710986E00E9449032D
:1010900013E0249740E86FE180E80E940C0340E8E9
:1010A0006FE180EA0E940C034AE06CE180EA0E9452
:1010B0000C0348E06FE180E80E940C038CE10E9481
:1010C0000A04082F8A70D1F348E06FE180EA0E9499
:1010D0000C03802F8270E82E01FF07C0CE010E9412
:1010E000470485FF02C01150A9F6C1E0E110C0E03D
:1010F0008F2D0E94CF0210928A018C2FCDB7DEB7C0
:10110000E6E00C940736C091AA01D091AB01CE0164
:1011100008960E94AE0480938A01882341F09E01C4
:1011200042EB51E061E070E00E94790591CFC0E0B0
:10113000E4CFCF93CFB7F89480918001811127C07D
:10114000E8EDF1E08491ECEEF1E09491E82FF0E02D
:10115000EE0FFF1FE055FE4FA591B491EC91E923EE
:1011600021F461E08AE00E94DF0161E08AE00E94F0
:101170000D028CB580618CBD8CB580648CBD61E046
:101180008DE00E940D0261E08BE00E940D028091D3
:1011900080018F5F80938001CFBFCF910895CF935F
:1011A00080918E0181110FC0C091110161E08C2FDF
:1011B0000E940D0261E08C2F0E94DF010E949908BD
:1011C00081E080938E01CF910895DC01EC91EC30A9
:1011D00090F511968C91119728E830E0281B310981
:1011E00087FD3395220F331F220F331F62177307BA
:1011F00084F012968C9128E532E0281B310987FD96
:101200003395220F331F220F331F621773070CF41D
:101210009B0122503109220F331F4FB7F8948E2FB4
:1012200090E0FC01EE0FFF1FE80FF91FE85DFB4F98
:10123000328321834FBF0895CF92DF92EF92FF92C6
:101240001F93CF93DF936B017C01C5E8D2E010E0E0
:1012500084E0113051F083E0113038F08FE012302B
:1012600021F08EE0133009F088E00E94B60121E001
:10127000892B09F020E08881821789F02883CA82AF
:10128000DB82EC82FD821F5F2696153009F7DF9125
:10129000CF911F91FF90EF90DF90CF9008958981BB
:1012A000821789F38A819B81AC81BD81B701A60138
:1012B000481B590B6A0B7B0BDB01CA014997A1053F
:1012C000B10508F32983DFCFCF93C82F60E085E015
:1012D0000E94DF0160E086E00E94DF0160E087E0BD
:1012E0000E94DF0161E086E0C13021F087E0C2307A
:1012F00009F085E00E94DF01CF910895811106C0B9
:1013000081E0FB018083109249030895FB01108264
:10131000863038F4E82FF0E0EE5EFE4F80818930B1
:1013200008F086E08093490308950F931F93CF93AD
:10133000DF93EC018A01E881F981DF018D91803230
:1013400059F0893049F0DB0130E020E0811106C01E
:10135000F983E88380E019C0FD01EFCF5E2F9F2F56
:101360008191482F4F7D59F0893049F0B9016F5F65
:101370007F4F6017710719F08D939B01EFCF1C927F
:101380005883998381E0232B29F3DF91CF911F911B
:101390000F9108954F925F926F927F929F92AF92BA
:1013A000BF92CF92DF92EF92FF920F931F93CF9352
:1013B000DF93EC018B018881882309F496C08D327C
:1013C000D1F52196AA24A394888190ED980F9A30A4
:1013D00040F08E3209F089C0898180538A3008F04C
:1013E00084C0B12CC12CD12C7601CE01999020ED76
:1013F000290D2A3028F527E02B15D8F020E030E021
:1014000040E251E4C701B6010E94E9376B017C015B
:10141000692D990C770B60537109072E000C880B0E
:10142000990B0E943437A70196010E9420366B0168
:101430007C01B394DACF8B3209F42196A12CC4CF6E
:10144000EEE29E1234C0EC0121968DEC482E8CEC1D
:10145000582E652C8DE3782E699180ED860F8A30A9
:1014600030F5FBE0FB1508F1062E000C770B6053FE
:101470007109072E000C880B990B0E943437A301C9
:1014800092010E94E9379B01AC01C701B6010E949D
:1014900020366B017C012DEC3CEC4CEC5DE3C30190
:1014A000B2010E94E9372B013C01B394D5CFBB2098
:1014B000E1F0AA2021F0F7FAF094F7F8F094F8019F
:1014C000C082D182E282F38281E0DF91CF911F91CD
:1014D0000F91FF90EF90DF90CF90BF90AF909F90D3
:1014E0007F906F905F904F90089580E0EECFA8E1DD
:1014F000B0E0EDE7FAE00C94ED358B0148E150E007
:10150000BE016F5F7F4F0E949509882329F0B801C3
:10151000CE0101960E94CA096896E4E00C9409364F
:10152000AF92BF92CF92DF92EF92FF921F93CF9331
:10153000DF9300D000D0CDB7DEB75B0119821A82ED
:101540001B821C82BE016F5F7F4F0E94770A182F9B
:10155000882321F1C980DA80EB80FC8020E030E034
:10156000A901C701B6010E948C3687FD26C020E084
:101570003FEF4FE757E4C701B6010E94E437181662
:10158000E4F020E030E040E05FE3C701B6010E94F4
:1015900020360E940337F50171836083812F0F90FD
:1015A0000F900F900F90DF91CF911F91FF90EF90D0
:1015B000DF90CF90BF90AF90089510E0EFCF1092E2
:1015C0001D0210921E021092C2020895FC01DB015E
:1015D00012968D919C9113979383828314964D91CB
:1015E0005D916D917C9117974483558366837783D2
:1015F00018964D915D916D917C911B974087518715
:10160000628773871C968D919C911D97958784871F
:101610001E968D919C9197878687CF0108958F9212
:101620009F92AF92BF92CF92DF92EF92FF92811181
:1016300044C08091530290915402409155025091C0
:101640005602B0E0A0E06C017D01C41AD50AE108A1
:10165000F108E1F19B01BC01CD01621B730B810913
:1016600091090E9434374B015C01C701B6010E9409
:1016700034379B01AC01C501B4010E9491366B0166
:101680007C0120E030E0A9010E948C3687FD1EC05D
:1016900020E030E040E85FE3C701B6010E94E43794
:1016A0001816C4F0C701B601FF90EF90DF90CF90FD
:1016B000BF90AF909F908F90089580915702909126
:1016C00058024091590250915A02BBCFC12CD12CE3
:1016D0007601E8CFC12CD12C80E8E82E8FE3F82EDC
:1016E000E1CF8F929F92AF92BF92CF92DF92EF9213
:1016F000FF92CF93DF936B017C01C3E4D2E028A972
:1017000039A94AA95BA90E94E9372CA53DA54EA598
:101710005FA50E9420364B015C012CA93DA94EA972
:101720005FA9C701B6010E94E937A70196010E948F
:10173000E9379B01AC01C501B4010E942036DF915D
:10174000CF91FF90EF90DF90CF90BF90AF909F90A0
:101750008F9008950E940F0B0E94710B08954F9275
:101760005F926F927F928F929F92AF92BF92CF9231
:10177000DF92EF92FF92CF93DF93CDB7DEB72A9738
:101780000FB6F894DEBF0FBECDBF9A878987DC0104
:101790009496CD90DD90ED90FC909797A7019601DF
:1017A00098966D917D918D919C919B970E941F368B
:1017B0004B015C01A985BA855C968D919D910D9038
:1017C000BC91A02D89839A83AB83BC83E985FA857C
:1017D00040A051A062A073A09C01AD01C701B60159
:1017E0000E94E937A985BA8558962D913D914D9172
:1017F0005C915B970E9420366D837E838F839887F0
:10180000A3019201C701B6010E94E937A701960121
:101810000E94E9379B01AC016D817E818F819885A3
:101820000E942036E985FA8564A775A786A797A741
:10183000A3019201C301B2010E942036A7019601C3
:101840000E94E93729813A814B815C810E942036D0
:10185000A50194010E94E937A985BA85D0966D93B8
:101860007D938D939C93D397A5019401C301B201FD
:101870000E94E937A50194010E94E937E985FA85BC
:1018800064AB75AB86AB97AB2A960FB6F894DEBF08
:101890000FBECDBFDF91CF91FF90EF90DF90CF9043
:1018A000BF90AF909F908F907F906F905F904F9080
:1018B00008950E94DF0A10922E028091AD028111DC
:1018C00007C08091AC02811103C081E00E946409CD
:1018D0000895809184028111109284020895E1E4B8
:1018E000F2E010821182E4E2F2E0108211820895A7
:1018F000A7E1B2E0EC918E2F90E0FC01EE0FFF1F0C
:10190000E80FF91FE85DFB4F80818F7B8083139682
:10191000EC918E2F90E0FC01EE0FFF1FE80FF91FF6
:10192000E85DFB4F80818F7B808360E082E00E94D6
:10193000DF0160E089E00E94DF0110920401089558
:10194000109284028091AC02882301F11092AC02C3
:101950001092400283E08093A3020E946F0C1092C9
:101960007C0210927D0210927E0210927F02809182
:10197000040181110E94780C0E94C00260938002D1
:101980007093810280938202909383020895CF9393
:10199000C62F8093A3021092AC021092400281E005
:1019A000809384020E946F0CCC2329F08091040163
:1019B00081110E94780C0E94C00260938002709393
:1019C00081028093820290938302CF910895809147
:1019D0000401882381F060910D0170910E0187E16F
:1019E00092E00E94E50860910F01709110018AE178
:1019F00092E00E94E508089562E070E087E192E0DD
:101A00000E943E0269E070E08AE192E00E943E029C
:101A100081E0809304010E94E70C08958091040105
:101A2000811102C00E94FC0C08959091000199233D
:101A300041F0811103C08091860208958091920245
:101A40000895811103C080918C02089580919802BD
:101A500008950F931F93CF93DF93811103C06623E3
:101A600009F498C09091AD02911196C09091AC028A
:101A7000911194C04093000111E0411101C01FEF8A
:101A8000C22FD62F009192029091860210922402CA
:101A90001093020110924102882349F0211136C0AF
:101AA00080E00E94150D91E08927809341021092F9
:101AB00025021093030110924202DD23A1F081E080
:101AC000CC23B9F10023A9F180934202809325022F
:101AD00080910F0190911001909323028093220234
:101AE0008FEF8093030180914102811129C0809181
:101AF0004202811125C081E08093A3028093840279
:101B000080E0DF91CF911F910F910895992341F2C9
:101B100081E0809341028093240280910D01909195
:101B20000E0190932102809320028FEF8093020197
:101B3000BECF0E94150D91E0892780934202D3CF3A
:101B40000E940E0D81E0809340028093AC021092BF
:101B5000A302109284020E94C00260933C02709320
:101B60003D0280933E0290933F02645171098109C6
:101B70009109609338027093390280933A029093EE
:101B80003B02109280021092810210928202109207
:101B90008302B6CF85E0B5CF84E0B3CF81E0B1CF8B
:101BA000A8E0B0E0E6EDFDE00C94DF357C016B01D0
:101BB00058874F8319010E94C0026C597F4F8F4F85
:101BC0009F4F609324047093250480932604909380
:101BD0002704E8E5F3E08BE2DF011D928A95E9F73F
:101BE00081E098E090935703809356030E94CF08BA
:101BF00080E591E00E948A014FEF60E08FEF0E9444
:101C00000C030E949B022B013C0182E3882E912C45
:101C1000A12CB12C0E949B026419750986099709B1
:101C2000683E734081059105A8F3B1E08B1A9108D5
:101C3000A108B108E8EE4E0EE3E05E1E611C711CC7
:101C400081149104A104B10429F710928403109225
:101C5000830370E060E088E00E94490370E060E088
:101C60008CE00E9449036FEF77E08AE00E9449030D
:101C700060EB88E30E94DA036FE370E388E20E947E
:101C8000490369EF77EF80E30E9449036DE070E05C
:101C900080EC0E94490342E362EC80E80E940C035E
:101CA00062E17CE086EC0E94490362E184EC0E94E0
:101CB000DA036CED75E08AEC0E944903D7016C9160
:101CC00084EE0E94DA03F701618185EE0E94DA0357
:101CD000D70112966C9182EE0E94DA03F7016381BC
:101CE00083EE0E94DA03D70114966C9180EE0E9475
:101CF000DA03F701658181EE0E94DA0360E071E0AA
:101D000080E10E9414048FE10E942A0340EC6BE101
:101D100080E80E940C0344E06FE180E80E940C031D
:101D200066E774E084E10E9414040E94CF0880E515
:101D300091E00E948A0182E70E940A048F3F09F421
:101D400080E091E0811101C090E090932304D701DD
:101D50008C9180931D0411968C91119780931E0491
:101D600012968C91129780931F0413968C9113975F
:101D70008093200414968C911497809321041596D7
:101D80008C91809322041092C2031092C10310928E
:101D90009E031092BC0382E08093C30310921C0444
:101DA0009BE024E080911C048830E0F1D801129679
:101DB0004D915C91139714962D913C91F101A28065
:101DC000B38064817581EF81F88582819381A481DC
:101DD000B581F60104811581E280F380F09253030E
:101DE000E09252031093550300935403B0924F03B3
:101DF000A0924E03709351036093500350934B0392
:101E000040934A0330934D0320934C0380936A041C
:101E100090936B04A0936C04B0936D042896E2E158
:101E20000C94FB35899FF0011124EC53FC4FDF012A
:101E3000322F1D923A95E9F78F5F80931C04B2CF41
:101E4000CF93DF93EC01AEEAB2E0E0E09991992301
:101E5000A1F0E331E9F0292F2F7D21542A3150F0F0
:101E600080ED890F8A3030F09F3521F083ED890FA6
:101E7000823018F49D93EF5FE9CFE11109C068E665
:101E800070E08EEA92E00E94F834DF91CF910895DD
:101E9000F0E0E255FD4F1082F8CF0F931F93CF93E0
:101EA000DF932091D0013091D1012F3F320721F5EE
:101EB0008091D2019091D3010196F1F486E0E8E19E
:101EC000F1E0A2EBB1E001900D928A95E1F786E096
:101ED000EDE1F4E0A8EBB1E001900D928A95E1F715
:101EE00088E090E09093BF018093BE018091AA01A9
:101EF0009091AB010E969EC0809152039091530336
:101F00008227932740914A0350914B0384239523C2
:101F1000892B99F44091D2015091D30180915403BF
:101F2000909155038427952760914C0370914D0340
:101F300086239723892B09F486C080914E039091C4
:101F40004F039093AF018093AE0180915003909125
:101F500051039093B1018093B0010091AE011091B3
:101F6000AF01C091B001D091B101E4ECF3E080E0A9
:101F7000883009F071C080931C0446E050E06FEF98
:101F800070E082EB91E00E94C73886E0E2EDF1E07C
:101F9000DF01482F1D924A95E9F7EDE1F4E0A8EB47
:101FA000B1E0982F01900D929A95E1F7EDE1F4E000
:101FB000A8ECB1E0982F01900D929A95E1F710935B
:101FC000D9010093D801D093DB01C093DA012091AD
:101FD0005203309153033093CF012093CE012091CF
:101FE0005403309155033093D1012093D00120E068
:101FF00031E03093C7012093C6013093C101209393
:10200000C00128E030E03093C3012093C2018093E7
:10201000C40184E08093C50188E096E09093BF01FD
:102020008093BE0188EE91E09093AD018093AC0166
:102030008AE290E09093AB018093AA01DF91CF9167
:102040001F910F9108953093AF012093AE015093EB
:10205000B1014093B00181CF208131810217130774
:1020600029F422813381C217D30719F08F5F3B9681
:102070007FCF80931C04349686E023CFA8E0B0E0A5
:10208000E4E4F0E10C94E935C090A501D090A601FC
:10209000D6015C96ED90FC904091A201E114F10410
:1020A00009F042C046FD03C0D12CC12C12C1809161
:1020B0005304882309F471C080915B048111F4CF2B
:1020C0007AE5E72E74E0F72E81E090E028E0FE014B
:1020D0003196DF01322F1D923A95E9F71C821B825F
:1020E0001E821D8233E0880F991F3A95E1F78E5AC0
:1020F0009B4FDC0101900D922A95E1F7960125583E
:10210000334035952795EFEEFEEE2E9FB0012F9FC1
:10211000700D3E9F700D1124DC016C9321E011962F
:102120002C93F601F58EE48E41FF51C00091AA0177
:102130001091AB010115110509F449C0D7011196A1
:102140008C911197882309F454C081FD40C01296E8
:102150008C91882349F1F701838181112FC0C80137
:102160000E94AE04D70113968C93882339F1DD24A5
:10217000D3942091AC013091AD01225B314040916C
:102180008D0170E060E00E944705B1E0DB121FC0E6
:10219000E091A501F091A60117C062E5E62E64E08A
:1021A000F62E90E080E092CFC8010E94AE04D701E5
:1021B00012968C93882379F2D12CDBCF80918C01FD
:1021C0008E7F80938C01F601818D8061818FF70174
:1021D000818183FF0EC09091A201877F81839260ED
:1021E0009093A201E091A501F091A601818D8F7ECF
:1021F000818F8091A20184FD04C087FD02C085FF0C
:1022000020C0C70104960E94C505E091A501F09188
:10221000A601D70112968C911297882379F08481B8
:10222000958115969C938E93149711968C91119786
:10223000846011968C93158E148E36CF11961C9255
:10224000FACF80FF63C0F70184810E94CF02D701DB
:1022500015968C91159714968C93149715961C923D
:10226000F7018481882309F454C09581911167C0D6
:10227000C680D780C114D10409F416CF35E0839FFE
:10228000F0011124EA5AFC4FD382C2820091AC01C2
:102290001091AD01025B114000938B011127C80121
:1022A00008968C0D9D1D0E94AE0480938A018823A0
:1022B00081F0B8016F5F7F4F860130E020E0D701E9
:1022C00014964C910E94470580918C018260809306
:1022D0008C016091AC017091AD01D0929D01C092D2
:1022E0009C011C141D0454F48091A3019091A4013D
:1022F0006817790719F0A6010E94BE38D092AB0189
:10230000C092AA012896E8E00C9405368C7009F07A
:10231000A7CFF701818181FFC7CEE091A501F091A0
:10232000A601D70114968C91149781110FC01196B4
:102330001C92158E148E80E18093A201B5CE0E946E
:10234000EF026C01892B09F4AFCEA0CF818D8061A3
:10235000818FAACEB0E0A0E0E0EBF1E10C94E9358A
:10236000C091A501D091A60128EE31E03093AD01D6
:102370002093AC013093A4012093A3018330C9F4CE
:10238000898D8F70833009F044C088899989892BA1
:1023900009F03FC088E08093A2010E943E10809126
:1023A000A20185FF5AC410929D0110929C01198EC2
:1023B00051C0823009F09CC08091A1018F5F809351
:1023C000A101811113C08091A0018F5F8093A001B2
:1023D00081110CC080919F018F5F80939F018111BB
:1023E00005C080919E018F5F80939E011092AB018A
:1023F0001092AA0110929D0110929C01898D982F34
:102400009D7F953059F48A8D8F5F8A8F883709F4C4
:10241000198E1092AB011092AA01EAC08823C9F369
:1024200028893989232B09F45EC09A8D2FEF290F53
:102430002A8F9111EECF9B8D983031F02FEF280F1E
:10244000223050F4953041F4198E80E88093A20137
:102450000E943E1084E13EC0392F953008F034E0F0
:1024600023E001C0220F3A95EAF72A8F9F5F9B8FE6
:102470008F70843071F140F5813009F45BC2833094
:1024800041F684E08093A2010E943E108091A30156
:102490009091A4019093AD018093AC0180919C0137
:1024A00090919D01892B09F409C488899989009725
:1024B00009F404C488969093AB018093AA0188E143
:1024C0008093E10180E54AC2863019F0883009F036
:1024D000A0CF81E18093E10188E290E09093AB018D
:1024E0008093AA01EFCF8F70833009F092CF52CF43
:1024F0008091C001853409F08CCFE090C201F12CAD
:10250000FE2CEE248091C301E80EF11C8091AA01FB
:102510009091AB018E159F0508F47BCFF092AB0133
:10252000E092AA018091C6018F7309F072CF1091D9
:10253000C70111116ECFC0905203D0905303C11444
:10254000D10431F48091540390915503892BA1F06B
:102550008091D0019091D101C816D90609F059CFC8
:102560002091D2013091D301809154039091550371
:102570002817390709F04DCF0E94DB07019609F0B3
:1025800048CF8091C9018630E1F1813009F041CF17
:102590008091D401883009F03CCF1092D401809111
:1025A000D6019091D701873F2FEF920740F109960E
:1025B0009093D7018093D6018091CC019091CD0169
:1025C0009093D1018093D0018091CE019091CF0161
:1025D0009093D3018093D201D092CD01C092CC01CF
:1025E00080915403909155039093CF018093CE0135
:1025F0001092A201CDB7DEB7E8E00C94053608963C
:10260000D7CF0E945307019609F003CF8091D601DE
:102610009091D7014091D4015091D501E091CC0126
:10262000F091CD016091CE017091CF01C5E8D3E06A
:10263000298D2223A9F0AC81BD818A179B0781F4E3
:10264000AE81BF814A175B0759F4A881B981EA17A7
:10265000FB0731F4AA81BB816A177B0709F4D0C15B
:102660006E9623E0C33AD20719F310F32091E101EB
:10267000322F3F73323009F08EC090939B018093CC
:102680009A011092C303A091C103B091C2038A17AB
:102690009B0709F07DC020919E03222309F419C1F4
:1026A000D0E0C0E0273011F4C5E8D3E02091BC03AE
:1026B000222309F41BC1273049F4209709F465C08F
:1026C0003091BD032A8D231708F45FC022E02093C8
:1026D000C303209709F49DCED093A601C093A50112
:1026E00023E02A8F288F1E8A24E02F8B1B8E9D8348
:1026F0008C835F834E838091CC019091CD0199832F
:1027000088838091CE019091CF019B838A8381E061
:10271000898F80919E018C8780919F018D87809108
:10272000A0018E878091A1018F8781E090E0998B35
:10273000888B8091DB018B878091DA018A87809179
:10274000D90189878091D801888781E090E00E9433
:10275000F12D8091E001982F907F913508F4EAC027
:1027600082958F708550990B880F991F880F991F3C
:10277000E12FF0E0E817F9072CF4EE54FE4F36A9EC
:102780003111B8C01093C303D5C0C3EAD3E09ECFC4
:1027900031E03093C30322FD3CCE24E12093E101DC
:1027A00028E230E03093AB012093AA0120E520938A
:1027B000E001B091DB012091DF012093DB01A091CA
:1027C000DA012091DE012093DA01A093DE0130913D
:1027D000D9012091DD012093D9013093DD012091B1
:1027E000D8012093C303C091DC01C093D80120938A
:1027F000DC01BF5FB093DF01B1110DC0AF5FA093EB
:10280000DE01A11108C03F5F3093DD01311103C02B
:102810002F5F2093DC0150939B0140939A0190938A
:10282000D5018093D4015093D7014093D601F09302
:10283000D101E093D0017093D3016093D201D09283
:10284000CD01C092CC018091540390915503909397
:10285000CF018093CE0180E48093C8018091AA01CA
:102860009091AB019093C2018093C3011092E70154
:102870001092E6011092E5011092E4010E945307C4
:10288000809590959093E5018093E40185E4809391
:10289000C0011092C1011092C7011092C60180912F
:1028A00094019091950101969093950180939401E4
:1028B0009093C4018093C5011092CB011092CA017C
:1028C0000E94DB07809590959093CB018093CA017D
:1028D0008FCE70E060E02093C3032EE1269FE001DD
:1028E000279FD00D1124CB57DC4FF6CE21E061E0BD
:1028F00070E0F1CF313011F41F5F3ACF27A93230A9
:1029000009F079C0243009F076C01093C30380AD7C
:1029100091AD89279827892790939B0180939A01ED
:10292000813022E0920710F080E092E09B8B8A8B4E
:102930009D8B8C8B82E18093E10182E08093E801A2
:1029400094E09093E9018093EA011092EB018CE20C
:1029500090E09093AB018093AA0180E68093E00120
:1029600088858093DC0189858093DD018A85809349
:10297000DE018B858093DF018C858093D8018D8566
:102980008093D9018E858093DA018F858093DB0156
:1029900086E08093C9018C819D819093D5018093BD
:1029A000D4018E819F819093D7018093D60180912D
:1029B0005203909153039093CD018093CC01809169
:1029C0005403909155039093CF018093CE01888159
:1029D00099819093D1018093D0018A819B819093BA
:1029E000D3018093D201898D84FFBEC11092E3018F
:1029F0001092E20130CF222309F4C4CE120FB8CED8
:102A0000D093A601C093A5011092A2019091E1017B
:102A100092FF07C0198E80E28093A2010E943E10AF
:102A2000F8CC8091E00182958F70880F880F809399
:102A3000C303E81AF1088701045111091093AB018F
:102A40000093AA012F70223021F4892F8F738231D5
:102A5000D1F00115110519F4892F8370A1F0398582
:102A60002A858B855091D8014885541357C14091D0
:102A7000D901431353C13091DA0132134FC1209170
:102A8000DB0128134BC194FF49C06889798961151E
:102A9000710509F443C0CE010C960E94BE2D309101
:102AA000DC0180919601381339C02091DD018091BD
:102AB0009701281333C09091DE01809198019813FB
:102AC0002DC08091DF0140919901841327C03C877C
:102AD0002D879E878F87988D8B8D811118C08E8949
:102AE0002A8D921B282F269526952695921B890FB5
:102AF0008E8B97FD91952F89322F36953695231B16
:102B0000920F9F8B869586958695890F888F81E099
:102B10008093A201888D8A8F198A188A298DE22FC5
:102B2000EF70E150E83008F074CCF0E0E656FA4E71
:102B30000C948135A2150912BB1571169A16AC16A4
:102B40008E166A168091A20180FF63CC83E0898F84
:102B500080E48093A201198A188A0115110531F0C9
:102B600082E48093A201C8010E94F12D10929D0180
:102B700010929C0112CC8091E10180FF21C024FDC4
:102B80001FC088899989892B09F043CCC7014397D5
:102B90000E94F12D8091A201982F90619093A20143
:102BA0000115110519F082618093A2010E943E1067
:102BB00081E090E0998B888B88E0898F1B8E89CC8F
:102BC00085FF14C08091E6019091E701982789273D
:102BD0009827AC0148515E4F5093AD014093AC0132
:102BE000081B190B1093AB010093AA014091AA0195
:102BF0005091AB019091A2014115510541F024FD86
:102C000006C092609093A201CA010E94F12D8091AA
:102C1000E201282F30E0322F22278091E301820F3A
:102C2000932F911D90939B0180939A012C893D894C
:102C30002817390710F0892B21F430939B0120933A
:102C40009A0180919A0190919B019B8B8A8B809134
:102C5000A201837009F4DDCB89CF84FF0AC01092F2
:102C60009D0110929C0181E090E0998B888B84E01B
:102C7000A4CF20919C0130919D0121153105B9F01F
:102C800080FF02C0198A188A88899989009789F477
:102C90008A899B898217930720F490939D018093E2
:102CA0009C0180919C0190919D01998B888B1B8E3A
:102CB000EDCB90939D0180939C01F9CF8091A2016F
:102CC00081FFA7CB88E290E09093AB018093AA01AB
:102CD00080E1F6CB8091A20180FF9BCB198E80E131
:102CE0009BCE0115110519F0C8010E94F12D8091AC
:102CF000A20181709091E10190FF15C0882381F0BD
:102D000087E0898F1A8E198A188A81E090E00E94E4
:102D1000F12D80E18093A2010E943E1080E1DACB88
:102D200086E0898FF2CF882399F085E0898F198A10
:102D3000188A6FCB0115110519F0C8010E94F12DF9
:102D40008091E10180FF04C087E0898F1A8EDDCF7A
:102D50000115110519F75DCB8091A20180FF59CBB8
:102D600087E0898F1A8E55CB82E08093E201109222
:102D7000E30171CDB0E0A0E0E0ECF6E10C94E735C2
:102D80007C018B0110921C04DBE0C0911C04C83054
:102D900058F1A4ECB3E0FD0180E0883009F052C0A6
:102DA0002091A901422F50E080E0C0E090E01A9607
:102DB0003C911A97BA01631B7109961717061CF408
:102DC000922F931BC82F8F5F1B96883081F79093AB
:102DD000A801C093A701C0931C04FBE0CF9FE001B2
:102DE0001124CC53DC4F39C0CD9F50011124C501B3
:102DF0008C539C4F6C01FC0180819181892BF1F0F7
:102E000082819381892BD1F044E050E0B601C70163
:102E10000E94B138892B91F4D501A853BC4F86E0AC
:102E2000F80101900D928A95E1F78091A901F601D0
:102E30008287CDB7DEB7EAE00C940336CF5FC0934C
:102E40001C04A3CFEF0120813181232BC9F42281FF
:102E50003381232BA9F480931C0484E0F701DE0165
:102E600001900D928A95E1F7DE01149686E0F80153
:102E700001900D928A95E1F78091A9018A87D9CFB7
:102E80008F5F3B968ACFB0E0A0E0E9E4F7E10C94D5
:102E9000E93580912304882309F414C10E94C002FB
:102EA0000091810110918201209183013091840170
:102EB000601B710B820B930B613177428105910589
:102EC00008F005C1D0918D01D11151C080E591E08C
:102ED0000E948A0189E30E940A04882309F445C0FC
:102EE00060918303709184037B0126E0E20EF11C64
:102EF000E11448E0F40628F07B018AEFE81A87E045
:102F0000F80A80E00E94490360E08AE30E94E80337
:102F1000C82F60E08AE30E94E803982F8C2F9093DB
:102F200084038093830360E08AE30E94E803182F00
:102F300060E08AE30E94E803C82F60E08AE30E9411
:102F4000E803082F40E46EE180E80E940C0307FFCD
:102F5000F9C0F0929001E0928F019C2F812F04978D
:102F60009093920180939101DFEFD0938D011091A6
:102F70008D01112309F460C081E080938C01812FC1
:102F80000E94EF02EC019093AB018093AA01892B80
:102F900009F4EDC042E650E062EB71E0812F0E943F
:102FA0009403E090BE01F090BF01A8E0EA16F1049E
:102FB00009F0CBC010938A012E97D093AB01C09338
:102FC000AA018091CC019091CD01209152033091C2
:102FD00053038227932720914A0330914B03822386
:102FE0009323892BC1F48091CE019091CF01209140
:102FF0005403309155038227932720914C0330913D
:103000004D0382239323892B31F468EB71E08CEC20
:1030100091E00E94BA1681E00E94AA118091AA0153
:103020009091AB01892B21F00E944D0F0E94100856
:1030300080918C0180FD9BC00E94C00200912404FD
:103040001091250420912604309127046B017C0106
:10305000C01AD10AE20AF30A9701860137FD32C08D
:103060006C597F4F8F4F9F4F6093240470932504BA
:10307000809326049093270485E893E09093A6011B
:103080008093A50182E00E94AA118091AA019091EB
:10309000AB01892B21F00E944D0F0E94100883EA9A
:1030A00093E09093A6018093A50182E00E94AA116B
:1030B0008091AA019091AB01892B21F00E944D0FC4
:1030C0000E941008CDB7DEB7E8E00C9405360E94E8
:1030D000C002609381017093820180938301909379
:1030E00084012091A9012F5F2093A90110921C0453
:1030F0009BE030E064E080911C04883008F0E2CE70
:10310000989FF0011124EC53FC4F40815181A28122
:10311000B3814A2B5B2B452B89F04285D901A41B37
:10312000B109A837B10554F0899FF0011124EC537F
:10313000FC4FDF01C62E1D92CA94E9F78F5F809382
:103140001C04D9CF0E94CA0310CFB8E0EB16B6E03A
:10315000FB0669F41092AB011092AA01AA9780F4C1
:103160008091AA019091AB01892B09F05FCF80E596
:1031700091E00E948A010E94CA0310928D015CCFE7
:103180008091C6019091C7018115E1E09E0701F190
:103190008115924029F72091D8013091D901809171
:1031A00052039091530328173907D1F62091DA0181
:1031B0003091DB0180915403909155032817390712
:1031C00079F668EC71E08EEC91E00E94BA16C8CFF7
:1031D0000091D8011091D90180915203909153032D
:1031E0000817190709F0BCCFC091DA01D091DB01B3
:1031F0008091540390915503C817D90709F0B0CFB7
:1032000068EC71E08EEC91E00E94BA1680E092E0EA
:103210009093C7018093C60186E0E8ECF1E0A2ED4F
:10322000B1E001900D928A95E1F786E0EDE1F4E0DE
:10323000A8ECB1E001900D928A95E1F786E0EDE10E
:10324000F4E0A8EBB1E001900D928A95E1F786E0F9
:10325000E2EDF1E0A2EBB1E001900D928A95E1F789
:103260008091CE019091CF019093D9018093D801A4
:103270008091D0019091D1019093DB018093DA018C
:103280001093CF010093CE01D093D101C093D00110
:10329000F092BF01E092BE018AE290E09093AB0110
:1032A0008093AA015DCFCF93DF93EC010E94431777
:1032B000EC85FD853097F9F084818823E1F08081E9
:1032C0009EE1989FF0011124EB57FC4F2089318932
:1032D000232B89F4F093A601E093A50183E00E94DB
:1032E000AA118091AA019091AB01892B21F00E9433
:1032F0004D0F0E941008DF91CF910895CF93DF9377
:10330000EC010E944317EC85FD8584818823A9F098
:1033100021E08581811101C020E080E0922F990F8A
:1033200026813781820F931F20E034E0A901481BDA
:10333000590BCA01DF91CF91089580E094E0FACF54
:10334000B0E0A0E0E6EAF9E10C94E0355C014B0165
:10335000EA01DC011C960D911C917A010E94C002C9
:103360002B013C010E9443170115110509F47AC095
:10337000F8018181882309F475C0867009F072C054
:10338000358081E090E0311002C090E080E068017B
:10339000C80ED91ED60114968C91811126C080E0EA
:1033A00092E00E94AE04F601848381111BC00E944A
:1033B000C0026419750986099709613D7740810546
:1033C000910508F44CC081E090E0D50113969C93E0
:1033D0008E931297CE018E199F09CDB7DEB7E1E12A
:1033E0000C94FC35F80117821682AE014E195F0964
:1033F000480D591DD80116966D917C919701F601E3
:1034000084810E947905E81AF90AD80116962D914F
:103410003C911797820F931F17969C938E93169744
:103420001E141F04BCF6311009C0D501ED91FC91AA
:103430000680F781E02DC501099594CF0E94C00256
:103440006419750986099709613D774081059105E1
:1034500030F081E090E0F50193838283BBCF0E943E
:10346000EC0780CF90E080E0B8CFCF93DF93EC0102
:103470000E944317EC85FD85309739F0818182FFEA
:1034800008C081E09281911101C080E0DF91CF916D
:10349000089581E0FBCF84E894E00E94351A982FCC
:1034A000882341F084E894E00E94F80691E08111BD
:1034B00001C090E0892F08950F931F93CF93DF935E
:1034C0008C01EB010E944B1A882391F00115110524
:1034D00079F0209739F0AE01B80184E894E00E94B9
:1034E000A019EC01CE01DF91CF911F910F910895AA
:1034F000D0E0C0E0F7CFA1E0B0E0E1E8FAE10C9461
:10350000EF358AE0898361E070E0CE0101960E9488
:103510005C1A0E944B1A882321F084E894E00E94F0
:1035200053192196E2E00C940B36A1E0B0E0EBE9F0
:10353000FAE10C94ED35009779F08C01F801849153
:103540000F5F1F4F882341F0898361E070E0CE0157
:1035500001960E945C1AF2CF2196E4E00C940936A1
:10356000A1E0B0E0E6EBFAE10C94EE35162F0E94F4
:10357000951A80E3111181E3898361E070E0CE0147
:1035800001960E945C1A2196E3E00C940A3600979B
:1035900059F0FC0101900020E9F73197BF01681B49
:1035A000790B11F00E945C1A08954F925F926F920E
:1035B0007F928F929F92AF92BF92CF92DF92EF92C3
:1035C000FF921F93CF93DF93CDB7DEB76A970FB605
:1035D000F894DEBF0FBECDBF4B015C01AC019B0177
:1035E0000E948C368823D1F085E491E00E94951AE0
:1035F0006A960FB6F894DEBF0FBECDBFDF91CF91B4
:103600001F91FF90EF90DF90CF90BF90AF909F9071
:103610008F907F906F905F904F90089520E030E002
:10362000A901C501B4010E948C36DE0111967D010D
:1036300087FF0AC08DE28983B7FAB094B7F8B094D7
:103640007E0182E0E80EF11C20E836E948E15CE406
:10365000C501B4010E94E437181644F490E8892E9D
:1036600096E9992E98E1A92E9CE4B92E20E030E04D
:1036700048EC52E4C501B4010E94E93720E030E093
:1036800040E05FE30E9420360E94033724E630E0EA
:1036900040E050E00E9434354B015C0121153105BA
:1036A00041055105E1F0FE0171966F0110E08AE0DD
:1036B000482E512C612C712C1F5FCA01B901A30146
:1036C00092010E943435605DD6016D936D01211524
:1036D00031054105510531F01A3071F703C080E31F
:1036E000898B11E0F701812F8150A1E1B0E0AC0F8F
:1036F000BD1FA80FB11D9C9191938111F5CFE10ED3
:10370000F11C8EE2F7018083C501B4012AE030E0AC
:1037100040E050E00E943435205DD70111962C9393
:103720001197605D12966C93129713961C92CE01BE
:1037300001960E94C71A5CCFCF92DF92EF92FF9260
:103740006A017B010E94951AC701B6010E94D51A31
:10375000FF90EF90DF90CF900895CF93DF93EC012F
:10376000EC85FD85309759F08181882341F082FFF7
:103770000DC011828C859D8502960E94C5051D860F
:103780001C860E944317DF91CF910895E881F9814B
:103790000680F781E02DCE010995EC85FD858181BC
:1037A00082608183E7CFA6E0B0E0E9EDFBE10C9415
:1037B000ED358B010E94951A4AE0BE016F5F7F4F85
:1037C000C8010E94FF34CE0101960E94C71A2696B6
:1037D000E4E00C9409364F925F926F927F928F9241
:1037E0009F92AF92BF92EF92FF920F931F93CF934E
:1037F000DF93E82E00910D0110910E01C0910F0191
:10380000D0911001F0907B02B80180E00E940F0B74
:103810002B013C018090670290906802A0906902A1
:10382000B0906A02A501940160916B0270916C02E4
:1038300080916D0290916E020E941F36A301920149
:103840000E94E937A50194010E942036AB01BC011A
:1038500083ED90E00E949C1BBE0181E00E940F0B53
:103860002B013C018090670290906802A090690251
:10387000B0906A02A501940160916B0270916C0294
:1038800080916D0290916E020E941F36A3019201F9
:103890000E94E937A50194010E942036AB01BC01CA
:1038A00086E391E00E949C1BB80181E391E00E94B5
:1038B000D31BBE018CE291E00E94D31BFF2009F4D0
:1038C0001CC1B80180E00E94AA0B4B015C01BE0143
:1038D00081E00E94AA0B9B01AC01C501B4010E94CA
:1038E00020362091A8023091A9024091AA0250915D
:1038F000AB020E942036AB01BC0188E291E00E943D
:103900009C1B6091AC028AE191E00E94B01A6F2D7D
:1039100084E191E00E94B01A8AE091E00E94951A39
:103920008EEA92E00E94C71A6E2D8FEF90E00E94FF
:10393000B01A86EF90E00E94951AE0914903F0E0FA
:10394000EF57FE4F849190E0865B9E4F0E94951A40
:1039500060E070E080E89FE30E94710B9B01AC0186
:103960000E9420362091A8023091A9024091AA021B
:103970005091AB020E942036AB01BC018FEE90E06B
:103980000E949C1B60E070E0CB010E94710B9B01C8
:10399000AC010E9420362091A8023091A9024091EA
:1039A000AA025091AB020E942036AB01BC0188EE06
:1039B00090E00E949C1B4091A8025091A902609146
:1039C000AA027091AB028EED90E00E949C1B86EDE6
:1039D00090E00E94951A83E492E00E94C71A6091D9
:1039E00053027091540281ED90E00E94D31B6091CC
:1039F0005502709156028CEC90E00E94D31B6091AE
:103A000057027091580287EC90E00E94D31B60919E
:103A1000590270915A0282EC90E00E94D31BFF2061
:103A2000A1F0B80180E00E94AA0BAB01BC018BEBB6
:103A300090E00E949C1BBE0181E00E94AA0BAB019A
:103A4000BC0184EB90E00E949C1B609186028FEA8F
:103A500090E00E94B01A60918C028AEA90E00E9485
:103A6000B01A6091920285EA90E00E94B01A6091CB
:103A7000980280EA90E00E94B01A6091AD0288E955
:103A800090E00E94B01A809148038823D9F14091B8
:103A900043035091440360914503709146038EE8BF
:103AA00090E00E949C1B87E790E00E94951AE091AD
:103AB000A30280E0E53020F4F0E0E555FE4F84916C
:103AC00090E086579E4F0E94951A60917E0170E0AB
:103AD00080E790E00E94D31B0E947B1ADF91CF9178
:103AE0001F910F91FF90EF90BF90AF909F908F909C
:103AF0007F906F905F904F90089581E291E00E94D7
:103B0000951AFFCE81E890E00E94951ACCCF0E94D2
:103B1000DF0A0E94C00260932602709327028093FE
:103B200028029093290280917E018F3FA9F481E0C1
:103B300080937E018FE391E00E94951A0E947B1A88
:103B40008AE391E00E94951A0E947B1A1092490321
:103B500081E00E94EB1B08958F5FEACFAFE1B0E0F8
:103B6000E4EBFDE10C94DF358B8F4F8B588F698F21
:103B70007A8F0C8F1D8F2E8F3F8F809177029091BF
:103B80007802A0917902B0917A0289879A87AB87EF
:103B9000BC87C0907302D0907402E0907502F090E0
:103BA00076029A01AB0160916F0270917002809170
:103BB0007102909172020E941F366D877E878F87F7
:103BC000988B49845A846B847C84E89477F8D70175
:103BD000C601BF77898B9A8BAB8BBC8B2FE530E707
:103BE00049E850E3C301B2010E948C3687FF81C0CF
:103BF0002FE530E749E850E369897A898B899C8908
:103C00000E94E43787FD12C16D857E858F85988976
:103C10009058A70196010E94913669837A838B831D
:103C20009C8355245394DE011196BE8BAD8B412CA1
:103C3000BAECBD87E2EFE98B99E4392E21E7222E19
:103C4000612C712C00E010E01986541409F404C1B1
:103C5000AD89BE89CD90DD90ED90FD90BE8BAD8B92
:103C600027E137EB41ED58EBC701B6010E94E4377D
:103C700087FD3DC027E433E040E85FE3C701B601BC
:103C80000E948C3618169CF120E030E0A901C70193
:103C9000B6010E948C3687FDCBC020E030E040E8C2
:103CA0005FE3C701B6010E94E437181634F4C12C53
:103CB000D12C80E8E82E8FE3F82E2C8D3D8D4E8D93
:103CC0005F8DC701B6010E941F364B015C01E8946D
:103CD000B7F8B985BB2309F4AFC02D853989432DC9
:103CE000522DC501B4010E948C3687FDAEC04394AD
:103CF000ACCFA7019601C701B6010E94E9374B017D
:103D00005C0120E030E040E850E469857A858B85ED
:103D10009C850E94E9372D853E854F8558890E94F4
:103D2000E9379B01AC01C501B4010E941F364B016C
:103D30005C0129893A894B895C89C301B2010E94DF
:103D4000203620E030E040E85FE30E94203627E1A3
:103D500037EB41ED58EB0E94E9379B01AC01C501FF
:103D6000B4010E948C3687FD61C02CEC3CEB4CE822
:103D70005BE2C301B2010E948C3687FD57C020E090
:103D800030E0A901C501B4010E948C3687FF03C051
:103D9000812C912C5401C501B4010E945C384B0167
:103DA0005C0120E030E0A901C701B6010E94E437C0
:103DB00020E030E040E85FE387FF04C020E030E02F
:103DC00040E85FEBC501B4010E94E937A701960105
:103DD0000E94203620E030E040E05FEB0E94E937AF
:103DE0006B017C019F772CEC3CEB4CE85BE20E9482
:103DF0008C3687FD1BC029853A854B855C85C701BC
:103E0000B6010E94913669837A838B839C83A701D4
:103E100096016D857E858F8598890E9491366D8388
:103E20007E838F83988732E0532EFDCE512CFBCEBC
:103E3000C12CD12C760141CF8D86998A3A2C2B2C1E
:103E400036018701E1E0E98752CF8D86998A3A2CC5
:103E50002B2C360187014BCFF985F11161C060E051
:103E600070E0CB010E94710B6B017C0160E070E09F
:103E700080E89FE30E94710B9B01AC01C701B60172
:103E80000E94203620E030E040E05FE30E94E93706
:103E90009B01AC016F89788D898D9A8D0E94E437E2
:103EA000612C712C87FF55C000E81FE32B8D211179
:103EB00053C0E0905302F0905402C0905502D0904D
:103EC0005602B70190E080E00E9432374B015C015E
:103ED000EC18FD08B70190E080E00E9432379301B2
:103EE000A8010E94E9379B01AC01C501B4010E9401
:103EF0001F3620E030E040E05FE30E9420360E9461
:103F00000337CB016136794010F080E699E08A3FB3
:103F1000910510F48AEF90E06F96E2E10C94FB3586
:103F200020E030E0A901B301C8010E948C3687FD72
:103F30000EC020E030E040E85FE3B301C8010E941A
:103F4000E43718160CF0B2CF612C712CADCF612C78
:103F5000712C00E010E0AACFE0905702F0905802D8
:103F6000C0905902D0905A02ACCFAAEDB0E0EBEB72
:103F7000FFE10C94DF35E2ECF2E0DF018191882370
:103F800019F08D30D1F71C9282EC92E0C555DF4FCD
:103F900099838883CB5AD04044E150E0BE016D58EC
:103FA0007F4FCE0185559F4F0E949509882309F4C4
:103FB00058C0E4968FADE4978823C1F06AE0E62EFE
:103FC00062E0F62E10E0B701CE018D589F4F0E949F
:103FD000EF34892B91F02FEFE21AF20AF7013197B3
:103FE000E491E111F8CF1F5F123169F7CE018D58CE
:103FF0009F4F0E94200F1FEF12C080E06AE072E026
:10400000811749F06F5F7F4FFB013197E491E11118
:10401000F9CF8F5FF5CF8EEA92E00E94F8341092CC
:104020004903C355DF4F1882CD5AD0406090AD028E
:10403000662011F40C94502B123009F445C0123054
:10404000A8F0113109F4B8C01F3F11F40C943F2BB4
:1040500084E08093490383E00E94640980E00E9429
:10406000EB1BC652DF4FE2E10C94FB354CE150E014
:10407000BE016F5F7F4FCE0185559F4F0E9495090E
:10408000882361F0A6E4B1E0FE0131968D9188238A
:1040900011F40C946A2B91918917C1F381E0C355F7
:1040A000DF4F8883CD5AD04094C0C12CD12C58E426
:1040B000E52E52ECF52EC092A802D092A902E09211
:1040C000AA02F092AB02EACF80919E0281112DC02C
:1040D000C090A402D090A502E090A602F090A702A2
:1040E000C114D104E104F10401F10E94C0026C1971
:1040F0007D098E099F09683C71058105910580F055
:104100001092AD020E94FC0C1092A30281E0C355F4
:10411000DF4F8883CD5AD04080E08093490359C057
:10412000C355DF4F1882CD5AD04084E0F6CF80913E
:10413000AC02882311F081E0F0CF19821A821B8231
:104140001C82BE016F5F7F4FCE0185559F4F0E943D
:10415000770A882309F428C1C980DA80EB80FC80C3
:104160000C94852B1092480321E041E061E005C0EA
:104170001092480321E041E060E081E00E94290DB7
:10418000BE0163557F4F0E947E0923C010924803F1
:1041900021E041E061E080E0F1CF1092480320E0AF
:1041A00040E0E4CF1092480320E040E0E5CF1092D9
:1041B000480320E040E0EECF0E94A00C88E080930E
:1041C000490381E0C355DF4F8883CD5AD0408093A7
:1041D00047031091AC02C355DF4F8881CD5AD040C0
:1041E000882311F40C94422B81E0112311F40C94D8
:1041F000432B82E00C94432B48E050E0BE01665C08
:104200007F4FCE0185559F4F0E949509882309F461
:10421000CBC048E050E0BE016F5F7F4FCE018555B7
:104220009F4F0E949509182F882309F4BDC06FE4A1
:1042300071E0CE01CA960E94CE387C0164E571E03F
:10424000CE01CA960E94CE386C016AE571E0CE01BB
:1042500001960E94CE38012F892B51F06CE571E058
:10426000CE0101960E94CE3801E0892B09F000E0D2
:1042700061E671E0CE0101960E94CE38892B51F0A3
:104280006CE571E0CE0101960E94CE3811E0892BD9
:1042900009F010E0E114F10421F0C114D10409F097
:1042A00083C0011103C0112309F47EC0109248039A
:1042B00041E0E114F10409F040E020E0612F802F9B
:1042C0005DCF48E050E0BE01665C7F4FCE01855572
:1042D0009F4F0E949509882309F466C048E050E08A
:1042E000BE016F5F7F4FCE0185559F4F0E9495099C
:1042F000882309F459C06FE471E0CE01CA960E9488
:10430000CE388C0164E571E0CE01CA960E94CE38A9
:104310005C016AE571E0CE0101960E94CE386C0125
:1043200061E671E0CE0101960E94CE387C01011554
:104330001105B9F5C114D104C9F1E114F104A1F5D5
:1043400010924803C114D10421F0E114F10409F0E2
:10435000C4C18091AC0281110C943C2B012B51F50E
:1043600004E010E00E940E0DC114D10451F520911B
:104370000D0130910E01C801012E000CAA0BBB0BE0
:10438000820F931FA11DB11DAC01BD014A5F5109F0
:1043900061097109473658406105710570F083E085
:1043A000EFCEA114B10431F285E0B7CEE114F104EF
:1043B000D9F3C6CF0CEF1FEFD5CF90930E018093AA
:1043C0000D01E114F104D9F420910F013091100195
:1043D000C801110FAA0BBB0B820F931FA11DB11DAA
:1043E000AC01BD014A5F5109610971094736584066
:1043F00061057105A0F69093100180930F010E9452
:10440000E70C81E08093A302809384020E94C002A3
:104410006093800270938102809382029093830262
:1044200080E0AECE48E050E0BE01665C7F4FCE013A
:1044300085559F4F0E949509882309F4B5CF40E127
:1044400050E0BE016F5F7F4FCE0185559F4F0E94A8
:104450009509982E882309F4A7CF6AE571E0CE016B
:10446000CA960E94CE38592C892B59F06CE571E020
:10447000CE01CA960E94CE3855245394892B09F058
:10448000512C61E671E0CE01CA960E94CE38892B8C
:1044900051F06CE571E0CE01CA960E94CE38892BAE
:1044A00011F00C94A52B792C8980882009F47CCFFD
:1044B000FBE28A811E0122E0220E311C8F1649F098
:1044C0003DE28312B6C08A81692C1E0142E0240EAF
:1044D000311C80538A3008F067CFC255DF4F1882F5
:1044E000CE5AD040C155DF4F1882CF5AD040C05568
:1044F000DF4F1882C05BD040CF54DF4F1882C15BC2
:10450000D040CE54DF4F1882C25BD040CD54DF4F35
:104510001882C35BD040CC54DF4F1882C45BD040BC
:10452000CB54DF4F1882C55BD040F10141901F0191
:1045300080ED840D8A3008F081C03AE0A32EB12CC2
:10454000C12CD12CE12CF12C00E010E0C255DF4F42
:104550002881CE5AD040C155DF4F3881CF5AD04044
:10456000C055DF4F4881C05BD040CF54DF4F5881EA
:10457000C15BD040CE54DF4F6881C25BD040CD5488
:10458000DF4F7881C35BD040CC54DF4F8881C45B60
:10459000D040CB54DF4F9881C55BD0400E94873517
:1045A00059016A017B018C01442D042C000C550B30
:1045B00040535109952F990F990B9A01492F592F63
:1045C000692F792F892F0E941636C255DF4F288315
:1045D000CE5AD040C155DF4F3883CF5AD040C05556
:1045E000DF4F4883C05BD040CF54DF4F5883C15B5F
:1045F000D040CE54DF4F6883C25BD040CD54DF4FF4
:104600007883C35BD040CC54DF4F8883C45BD040F9
:10461000CB54DF4F9883C55BD0402F3F3F4F4F4F68
:104620005F47610571058105910509F00CF47DCFA7
:10463000BBCE882DDE0111961D014BCF4110B4CEAB
:10464000C255DF4F88819981AA81BB81CE5AD04063
:10465000662039F0B095A095909581959F4FAF4F0A
:10466000BF4F2BE2821629F0992493943DE28312E6
:10467000912C109248032091AC0221110C943C2BF8
:1046800051100C94412C772041F191100C946A2C1C
:10469000AC01BD014A5F51096109710947365840B3
:1046A0006105710508F07BCEAC0151100C945E2CB5
:1046B00071100C94812C0C94892C4AEF50E00C94CE
:1046C0005E2C40E659E00C945E2C8AEF90E00C944E
:1046D000812C80E699E00C94812C85E051CD80916D
:1046E000AC02811128CD89E3E3E4F2E0DE01DA9641
:1046F00001900D928A95E1F7E3961FAEE39740E1B2
:1047000050E0BE0169577F4FCE0185559F4F0E94F3
:104710009509882309F448CE8E01065C1F4F80E17D
:10472000D8011D928A95E9F74FE050E0BE01695724
:104730007F4FC8010E94D738B801605F7F4FCE011C
:1047400085559F4F0E94900A882309F42DCEB80109
:104750006E5E7F4FCE0185559F4F0E94900A882341
:1047600009F422CEB8016C5E7F4FCE0185559F4F74
:104770000E94900A882309F417CEB8016A5E7F4F21
:10478000CE0185559F4F0E94900A882309F40CCED4
:1047900066968CAD9DADAEADBFAD6697C955DF4F8A
:1047A00088839983AA83BB83C75AD0406A968CAD0D
:1047B0009DADAEADBFAD6A97CD55DF4F8883998370
:1047C000AA83BB83C35AD0406E968CAD9DADAEAD6F
:1047D000BFAD6E97C156DF4F88839983AA83BB8391
:1047E000CF59D040A2968CAD9DADAEADBFADA297D6
:1047F000C556DF4F88839983AA83BB83CB59D040AA
:10480000A6968CAD9DADAEADBFADA697C956DF4F98
:1048100088839983AA83BB83C759D040C555DF4F8E
:10482000E881F981CB5AD04081918032E9F3893017
:10483000D9F3882309F47DC0BE0169557F4FCE01AD
:1048400085559F4F0E94770A882309F4ADCDBE019C
:104850006D557F4FCE0185559F4F0E94770A882363
:1048600009F4A2CDBE0161567F4FCE0185559F4F01
:104870000E94770A882309F497CDBE0165567F4FC1
:10488000CE0185559F4F0E94770A882309F48CCD6D
:10489000BE0169567F4FCE0185559F4F0E94770A12
:1048A000882309F481CDC955DF4F88819981AA8178
:1048B000BB81C75AD04066968CAF9DAFAEAFBFAF3D
:1048C0006697CD55DF4F88819981AA81BB81C35AF4
:1048D000D0406A968CAF9DAFAEAFBFAF6A97C1565E
:1048E000DF4F88819981AA81BB81CF59D0406E96D4
:1048F0008CAF9DAFAEAFBFAF6E97C556DF4F88810F
:104900009981AA81BB81CB59D040A2968CAF9DAF33
:10491000AEAFBFAFA297C956DF4F88819981AA81F8
:10492000BB81C759D040A6968CAF9DAFAEAFBFAF8D
:10493000A6978AAD882309F400C1F80101900020F0
:10494000E9F73197E01BF10B709708F0F6C02E964F
:104950008EAD9FAD2E972C962EAD3FAD2C97821726
:10496000930708F0EAC0A901481B590B40355105CF
:1049700008F4E3C02A5F31092736384008F0DDC06B
:104980008A5F91098736984008F0D7C062968EAD4D
:104990009FAD629760962EAD3FAD609782179307EB
:1049A00008F0CBC0A901481B590B4035510508F44C
:1049B000C4C02A5F31092736384008F0BEC08A5F7C
:1049C00091098736984008F0B8C0A6968CAC9DAC8B
:1049D000AEACBFACA697A2968CAD9DADAEADBFAD53
:1049E000A297C255DF4F88839983AA83BB83CE5A8F
:1049F000D0409C01AD01C501B4010E94E4371816F6
:104A00000CF09BC06A968CAD9DADAEADBFAD6A9704
:104A1000CA54DF4F88839983AA83BB83C65BD04087
:104A20006E96CCACDDACEEACFFAC6E97A7019601F8
:104A3000C701B6010E9420362B013C01AC019B014D
:104A4000C255DF4F688179818A819B81CE5AD040DF
:104A50000E94E937CA54DF4F288139814A815B813E
:104A6000C65BD0400E942036162F072F382E292EE5
:104A7000A3019201C501B4010E94E937CA54DF4F76
:104A8000288139814A815B81C65BD0400E942036F3
:104A90004B015C0120E030E0A901C701B6010E9492
:104AA000E43787FD04C0182D092D3A2C2B2C2DEB53
:104AB00037E346E855EB612F702F832D922D0E942E
:104AC0008C3687FF3AC089E3FE01FA96DE01119623
:104AD00001900D928A95E1F7CE0101960E94AF0BED
:104AE000CDA4DEA4EFA4F8A829A93AA94BA95CA9F2
:104AF000C701B6010E9420362DA93EA94FA958AD85
:104B00000E9420369B01AC01C701B6010E94E43728
:104B100018169CF489E3FE01FA96A3E4B2E0019032
:104B20000D928A95E1F71092520283E492E00E947E
:104B3000AF0B81E080937B02B2CA83E0EECA1AAE6B
:104B40001BAE1CAE1DAEBE01665C7F4FCE0185550F
:104B50009F4F0E94770ACB53DF4F8883C55CD040BC
:104B6000882309F421CC19821A821B821C82BE017F
:104B70006F5F7F4FCE0185559F4F0E94770A812C32
:104B8000912C24E3A22E22E4B22E882321F08980E6
:104B90009A80AB80BC80CAACDBACECACFDACC09204
:104BA0004303D0924403E0924503F092460381E030
:104BB000809348031B3009F41CC31C3009F024C344
:104BC000C654DF4F1882CA5BD0408091AC0281117D
:104BD00053C5B0917B02C653DF4FB883CA5CD04047
:104BE00082E0BB2309F4CCCAE0910D01F0910E01E3
:104BF000C853DF4FF983E883C85CD04020910F0190
:104C000030911001CA53DF4F39832883C65CD040EE
:104C10008091A8029091A902A091AA02B091AB0242
:104C2000C553DF4F88839983AA83BB83CB5CD04075
:104C3000BF0180E00E940F0BCD52DF4F6883798364
:104C40008A839B83C35DD040CA53DF4F68817981DB
:104C5000C65CD04081E00E940F0BC952DF4F6883D1
:104C600079838A839B83C75DD040CD52DF4F6881B3
:104C700079818A819B81C35DD0400E94710BC255AE
:104C8000DF4F6883CE5AD040CA54DF4F7883C65B6B
:104C9000D0401C01C952DF4F688179818A819B8194
:104CA000C75DD0400E94710BC554DF4F6883CB5B5A
:104CB000D040C454DF4F7883CC5BD040C354DF4F27
:104CC0008883CD5BD040C254DF4F9883CE5BD04009
:104CD00060E070E080E89FE30E94710BCD53DF4FEE
:104CE0006883C35CD040CC53DF4F7883C45CD04032
:104CF0008C0160E070E0CB010E94710BC154DF4F6A
:104D00006883CF5BD040C054DF4F7883C05CD04015
:104D1000CF53DF4F8883C15CD040CE53DF4F9883A1
:104D2000C25CD040CD53DF4F2881C35CD040CC5310
:104D3000DF4F3881C45CD040A801CD53DF4F68817C
:104D4000C35CD040CC53DF4F7881C45CD040C801F5
:104D50000E942036C553DF4F288139814A815B810B
:104D6000CB5CD0400E942036C153DF4F68837983EB
:104D70008A839B83CF5CD040C154DF4F2881CF5BB7
:104D8000D040C054DF4F3881C05CD040CF53DF4F9C
:104D90004881C15CD040CE53DF4F5881C25CD040C7
:104DA000C154DF4F6881CF5BD040C054DF4F788162
:104DB000C05CD040CF53DF4F8881C15CD040CE5320
:104DC000DF4F9881C25CD0400E942036C553DF4F30
:104DD000288139814A815B81CB5CD0400E9420369A
:104DE0002B013C01C654DF4F9881CA5BD040992308
:104DF00009F4B2C4CB53DF4FA881C55CD040A111E8
:104E00004FC0CD53DF4F2881C35CD040CC53DF4F20
:104E10003881C45CD040A801C255DF4F6881CE5AAA
:104E2000D040CA54DF4F7881C65BD040C1010E9498
:104E3000203623E333E343EB5EE30E941F36C15386
:104E4000DF4F688379838A839B83CF5CD040C154D2
:104E5000DF4F2881CF5BD040C054DF4F3881C05C2A
:104E6000D040CF53DF4F4881C15CD040CE53DF4F9D
:104E70005881C25CD040C255DF4F6881CE5AD040C5
:104E8000CA54DF4F7881C65BD040C1010E942036F2
:104E900023E333E343EB5EE30E9420362B013C0126
:104EA000C153DF4F288139814A815B81CF5CD0407B
:104EB000C701B6010E94E43787FD71CAA3019201C0
:104EC000C701B6010E948C3618160CF468CAC55387
:104ED000DF4F288139814A815B81CB5CD040C7019B
:104EE000B6010E941F36CB53DF4FB881C55CD0405E
:104EF000BB2309F4B7C1C654DF4FE881CA5BD04079
:104F0000EE2309F48DC120E030E040E05FE30E9431
:104F1000E937C255DF4F6883CE5AD040CA54DF4FBD
:104F20007883C65BD0401C01C554DF4F6883CB5BE0
:104F3000D040C454DF4F7883CC5BD040C354DF4FA4
:104F40008883CD5BD040C254DF4F3882CE5BD040E7
:104F5000C255DF4F2881CE5AD040CA54DF4F388126
:104F6000C65BD040A101CD53DF4F6881C35CD04008
:104F7000CC53DF4F7881C45CD040C8010E94E43735
:104F800018160CF523E333E343EB5EE3CD53DF4F19
:104F90006881C35CD040CC53DF4F7881C45CD04083
:104FA000C8010E941F36C255DF4F2881CE5AD0401B
:104FB000CA54DF4F3881C65BD040A1010E948C36B5
:104FC00018160CF029C4C255DF4F2881CE5AD040A4
:104FD000CA54DF4F3881C65BD040A101C154DF4FB6
:104FE0006881CF5BD040C054DF4F7881C05CD04037
:104FF000CF53DF4F8881C15CD040CE53DF4F9881C3
:10500000C25CD0400E948C3687FF47C023E333E365
:1050100043EB5EE3C154DF4F6881CF5BD040C054A7
:10502000DF4F7881C05CD040CF53DF4F8881C15CB7
:10503000D040CE53DF4F9881C25CD0400E942036D2
:10504000C255DF4F2881CE5AD040CA54DF4F388135
:10505000C65BD040A1010E94E43787FD1EC0C15449
:10506000DF4F2881CF5BD040C255DF4F2883CE5A17
:10507000D040C054DF4F3881C05CD040CA54DF4FAD
:105080003883C65BD040CF53DF4F2880C15CD0400F
:10509000CE53DF4F3880C25CD040C654DF4F4881CA
:1050A000CA5BD040411107C1CD53DF4F2881C35C9B
:1050B000D040CC53DF4F3881C45CD040A801C255EA
:1050C000DF4F6881CE5AD040CA54DF4F7881C65B2B
:1050D000D040C1010E94E43787FD61C9C154DF4F50
:1050E0002881CF5BD040C054DF4F3881C05CD040B6
:1050F000CF53DF4F4881C15CD040CE53DF4F588142
:10510000C25CD040C255DF4F6881CE5AD040CA54ED
:10511000DF4F7881C65BD040C1010E948C361816E3
:105120000CF43DC9C654DF4FF881CA5BD040FF2361
:1051300009F4AFC1C554DF4F2881CB5BD040C454C4
:10514000DF4F3881CC5BD040C354DF4F4881CD5B0B
:10515000D040C254DF4F5881CE5BD040CD53DF4F9B
:105160006881C35CD040CC53DF4F7881C45CD040B1
:10517000C8010E948C3618160CF411C9C554DF4FB3
:105180002881CB5BD040C454DF4F3881CC5BD0400A
:10519000C354DF4F4881CD5BD040C254DF4F5881AC
:1051A000CE5BD040C154DF4F6881CF5BD040C0544C
:1051B000DF4F7881C05CD040CF53DF4F8881C15C26
:1051C000D040CE53DF4F9881C25CD0400E94E4377C
:1051D00087FDE5C8CB53DF4F2881C55CD040C8535D
:1051E000DF4FE880F980C85CD040222309F477C102
:1051F00057C1CB53DF4F9881C55CD040C654DF4FB9
:105200009883CA5BD040E1CCCB53DF4F1882C55C9A
:10521000D040A1E0C654DF4FA883CA5BD040D5CCB4
:10522000C554DF4F2881CB5BD040C454DF4F388159
:10523000CC5BD040C354DF4F4881CD5BD040C254DB
:10524000DF4F5881CE5BD0400E941F36C255DF4FE2
:105250006883CE5AD040CA54DF4F7883C65BD040B3
:105260001C0176CEC654DF4FF881CA5BD040FF23C5
:1052700009F402C1C255DF4F2881CE5AD040CA542A
:10528000DF4F3881C65BD040A1010E941F36C55454
:10529000DF4F6883CB5BD040C454DF4F7883CC5B57
:1052A000D040C354DF4F8883CD5BD040C254DF4F22
:1052B0009883CE5BD040C554DF4F2881CB5BD04074
:1052C000C454DF4F3881CC5BD040C354DF4F48819A
:1052D000CD5BD040C254DF4F5881CE5BD040CD5320
:1052E000DF4F6881C35CD040CC53DF4F7881C45C12
:1052F000D040C8010E94E437181654F523E333E385
:1053000043EB5EE3CD53DF4F6881C35CD040CC53A9
:10531000DF4F7881C45CD040C8010E941F36C5545D
:10532000DF4F2881CB5BD040C454DF4F3881CC5B4A
:10533000D040C354DF4F4881CD5BD040C254DF4FD3
:105340005881CE5BD0400E948C3618160CF07AC281
:10535000C554DF4F2881CB5BD040C454DF4F388128
:10536000CC5BD040C354DF4F4881CD5BD040C254AA
:10537000DF4F5881CE5BD040C154DF4F6881CF5B97
:10538000D040C054DF4F7881C05CD040CF53DF4F56
:105390008881C15CD040CE53DF4F9881C25CD04041
:1053A0000E948C3687FF5AC023E333E343EB5EE36E
:1053B000C154DF4F6881CF5BD040C054DF4F78814C
:1053C000C05CD040CF53DF4F8881C15CD040CE530A
:1053D000DF4F9881C25CD0400E942036C554DF4F19
:1053E0002881CB5BD040C454DF4F3881CC5BD040A8
:1053F000C354DF4F4881CD5BD040C254DF4F58814A
:10540000CE5BD0400E94E43787FD28C0C154DF4FF7
:105410008881CF5BD040C554DF4F8883CB5BD040C1
:10542000C054DF4F9881C05CD040C454DF4F988394
:10543000CC5BD040CF53DF4FA881C15CD040C35478
:10544000DF4FA883CD5BD040CE53DF4FB881C25C25
:10545000D040C254DF4FB883CE5BD040CB53DF4F38
:10546000E881C55CD040E1111FCEC654DF4F988162
:10547000CA5BD04091115ECEC853DF4FE880F980FF
:10548000C85CD040CA53DF4F88819981C65CD04048
:1054900045C0CB53DF4F2881C55CD040222361F348
:1054A000CD52DF4F088119812A813B81C35DD040F5
:1054B000C255DF4F4881CE5AD040CA54DF4F588181
:1054C000C65BD040B10180E00E94AE1D7C01C65495
:1054D000DF4F3881CA5BD040332309F43AC2C95246
:1054E000DF4F088119812A813B81C75DD040C554B7
:1054F000DF4F4881CB5BD040C454DF4F5881CC5B39
:10550000D040C354DF4F6881CD5BD040C254DF4FE1
:105510007881CE5BD04081E00E94AE1DF0920A01FE
:10552000E092090190930C0180930B01CB53DF4F64
:10553000F881C55CD040FF2349F0C853DF4FA881F4
:10554000B981C85CD040EA16FB0629F4C653DF4F88
:105550001882CA5CD040C653DF4FB881CA5CD040C5
:10556000B0934102C654DF4FE881CA5BD040EE23BE
:10557000A1F0F1E0C654DF4FF883CA5BD040CA53B4
:10558000DF4F28813981C65CD0402817390729F4BC
:10559000C654DF4F1882CA5BD040C654DF4F3881F3
:1055A000CA5BD04030934202C653DF4F4881CA5C89
:1055B000D04041110CC031110AC00E940E0D0E9452
:1055C000E70C60E081E00E94C70C0C9410220E945E
:1055D0000E0D82E08093400281E08093AC02109235
:1055E000A302109284022AE037ED43E25CE3C50196
:1055F000B4010E948C3687FD36C020E030E040EFD9
:1056000052E4C501B4010E94E437181634F4812C29
:10561000912C90EFA92E92E4B92E809205019092E0
:105620000601A0920701B09208010E94C002609397
:105630003C0270933D0280933E0290933F02609340
:1056400038027093390280933A0290933B02109291
:1056500080021092810210928202109283020E94B4
:10566000E70C0C9410228AE0882E87ED982E83E2B6
:10567000A82E8CE3B82ED1CF81E00C94C02086E018
:105680000C948D2083E00E946409111102C00E94D5
:10569000690CC355DF4F8881CD5AD0400C942F2020
:1056A000123168F7E12FF0E0E85AF44D0C9481359F
:1056B0003620362086209720B220B820C620CD2064
:1056C000D220D7206F239F259F259F25FC20612175
:1056D0001222DC208091AC0281110C944E206110CA
:1056E0000C944E201AAE1BAE1CAE1DAEBE01665C05
:1056F0007F4FCE0109960E94CA09882311F40C94A9
:105700004E20CAACDBACECACFDAC20E030E048E4B1
:1057100052ECC701B6010E948C3687FF02C00C9480
:10572000552020E030E048E452E4C701B6010E9471
:10573000E437181614F00C945B20C12CD12C48E4EB
:10574000E42E42E4F42E0C945B20552011F40C94CA
:10575000D421712C0C945422CB53DF4F8881C55C2B
:10576000D040882309F49CCBCD53DF4F2881C35C04
:10577000D040CC53DF4F3881C45CD040A801C55421
:10578000DF4F6881CB5BD040C454DF4F7881CC5B66
:10579000D040C354DF4F8881CD5BD040C254DF4F2F
:1057A0009881CE5BD0400E94203623E333E343EB65
:1057B0005EE30E941F36C153DF4F688379838A837B
:1057C0009B83CF5CD040C154DF4F2881CF5BD0405A
:1057D000C054DF4F3881C05CD040CF53DF4F488189
:1057E000C15CD040CE53DF4F5881C25CD040C5541D
:1057F000DF4F6881CB5BD040C454DF4F7881CC5BF6
:10580000D040C354DF4F8881CD5BD040C254DF4FBE
:105810009881CE5BD0403ACBCD53DF4F9881C35CAB
:10582000D040C255DF4F9883CE5AD040CC53DF4F83
:10583000A881C45CD040CA54DF4FA883C65BD04067
:105840001801C1CBCD53DF4FB881C35CD040C554E4
:10585000DF4FB883CB5BD040CC53DF4FE881C45CD3
:10586000D040C454DF4FE883CC5BD040C354DF4FFB
:105870000883CD5BD040C254DF4F1883CE5BD0404D
:1058800067CD992011F40C94482320910D0130919B
:105890000E01AC01BD01420F531F611D711D4A3F36
:1058A00051056105710514F40C945D234136F9E04E
:1058B0005F076105710514F00C94612350930E018C
:1058C00040930D0150930A0140930901772009F19B
:1058D0009920B9F020910F0130911001820F931F90
:1058E000A11DB11D8A3F9105A105B10514F40C94C9
:1058F0006523813629E09207A105B10514F00C94C7
:1059000069239093100180930F0190930C01809371
:105910000B010E94FC0C0E94E70C0E94C002685719
:105920007C4E8F4F9F4F60937C0270937D028093DB
:105930007E0290937F0260E081E00E94C70C10928B
:1059400080021092810210928202109283020C94C3
:10595000102290930A0180930901CA53DF4F888176
:105960009981C65CD04090930C0180930B01E5CDEA
:105970001F920F920FB60F9211242F933F938F9384
:105980009F93AF93BF938091300290913102A09189
:105990003202B091330230912F0223E0230F2D37D2
:1059A00058F50196A11DB11D20932F02809330025E
:1059B00090933102A0933202B0933302809134026B
:1059C00090913502A0913602B09137020196A11D47
:1059D000B11D8093340290933502A0933602B093A8
:1059E0003702BF91AF919F918F913F912F910F906F
:1059F0000FBE0F901F90189526E8230F0296A11D49
:105A0000B11DD2CF1F920F920FB60F9211242F9378
:105A10003F934F935F936F937F938F939F93AF9336
:105A2000BF93CF93DF93EF93FF9380917F01C0915A
:105A30001602D0E087FF24C01092850010928400E7
:105A400080917F018F5F80937F0180917F01082E7D
:105A5000000C990B8C179D0724F480917F018C30EA
:105A6000C4F18091840090918500049680349C4913
:105A700008F47AC08091840090918500049676C0E5
:105A800080917F01082E000C990B8C179D07C4F69E
:105A9000E0917F018E2FEE0F990BFC01EE0FFF1F9F
:105AA000E80FF91FE85DFB4F808186FFC9CFE091C9
:105AB0007F018E2FEE0F990BFC01EE0FFF1FE80FF9
:105AC000F91FE85DFB4F808160E08F730E94DF016A
:105AD000B7CF2091840030918500E0917F018E2F17
