:200000000C94EA010C9412020C9412020C9412020C9412020C9412020C9412020C94120269
:200020000C9412020C9412020C9412020C94AD250C9412020C9412020C9412020C94120262
:200040000C9463250C9412020C9412020C9412020C9412020C9412020C9412020C9412028C
:200060000C9412020C94120272657475726E5F686F6D65007365656B5F74726176656C00DB
:200080007365656B5F686F6D65006C65617665007265636F766572006C656176655F74725B
:2000A0006176656C006170706C790074696D656F7574007374616C6C007370616E00736FB7
:2000C00066745F6D617800736F66745F6D696E00302E3000302E303000756E6B6E6F776EE6
:2000E00000206D6F7665456E643D0020746172676574483D00206573746F703D00206C7421
:200100003D00206C683D002075743D002075683D002070754D6D3D6E616E20706C4D6D3DC5
:200120006E616E0020706C4D6D3D002070754D6D3D0020746C3D0020686C3D002074753DDF
:20014000002068753D002063616C49643D00206D6563684F66663D0020686D61783D0020EB
:20016000686D696E3D0020726561736F6E3D002061636365707465643D00206C6173744304
:200180006D643D002063616C56616C69643D002063616C3D0020627573793D0020683D6EF4
:2001A000616E0020683D00206C3D0050494E47005245414459006E6F6E650055004C002DC1
:2001C000002061783D002070686173653D00206854726176656C3D002068486F6D653D00FA
:2001E000207354726176656C3D002073486F6D653D0020433D0020423D0020413D006F6BB1
:200200003D0043414C5F524553554C5420006F6B0062757379006E6F63616C006C696D691E
:20022000740072616E6765006573746F7000626F74685F6C696D6974730070617273650059
:20024000756E6B6E6F776E006F766572666C6F77006C696E6B00000003080E141A202C32A7
:200260003A4350494E470053544154555300434C4541524553544F50005345544D454348F4
:200280004F464600484F4D4500484F4D455F555050455200484F4D455F4C4F5745520053E2
:2002A00045454B5F54524156454C005345454B5F54524156454C5F5550504552005345451F
:2002C0004B5F54524156454C5F4C4F5745520043414C4942524154450043414C4942524149
:2002E00054494F4E0053455443414C0053455448454E4453004D4F5645424F54484D4D00AC
:200300004D4F56455F55505045524D4D004D4F56455F4C4F5745524D4D00006E6F6E6500B8
:200320006F6B006C696D6974007374616C6C0074696D656F757400686F6D655F6661696CF9
:200340000063616C5F6661696C006C696E6B5F6C6F7374006573746F7000626F74685F6C00
:20036000696D6974730072616E676500000005080E141C262F393F4B00000000240027009C
:200380002A0000000000250028002B00000000002300260029000404040404040404020225
:2003A0000202020203030303030301020408102040800102040810200102040810200000A6
:2003C000000800020100000304070000000000000000B42611241FBECFEFD8E0DEBFCDBF79
:2003E00011E0A0E0B1E0E6EDF4E702C005900D92A43AB107D9F725E0A4EAB1E001C01D925D
:20040000A130B207E1F711E0CAEED1E004C02197FE010E946E37C93ED107C9F70E940627F0
:200420000C94693A0C9400008CBD9DBD0895833081F028F4813099F08230A9F00895873080
:20044000A9F08830C9F08430B1F4809180008F7D03C0809180008F7780938000089584B5D9
:200460008F7784BD089584B58F7DFBCF8091B0008F778093B00008958091B0008F7DF9CFCD
:20048000CF93DF93282F30E0F901E254FC4F8491F901E655FC4FD491F901EA56FC4FC491D2
:2004A000CC23A1F081110E941702EC2FF0E0EE0FFF1FE457FC4FA591B491EC91ED2381E07A
:2004C00090E009F480E0DF91CF91089580E090E0FACF1F93CF93DF93282F30E0F901E2542C
:2004E000FC4F8491F901E655FC4FD491F901EA56FC4FC491CC23A9F0162F81110E941702C3
:20050000EC2FF0E0EE0FFF1FEE57FC4FA591B4918FB7F894EC91111108C0D095DE23DC93BC
:200520008FBFDF91CF911F910895DE2BF8CFCF93DF9390E0FC01E655FC4F24918A569C4F39
:20054000FC0184918823D1F090E0880F991FFC01E858FC4FA591B491FC01EE57FC4FC59178
:20056000D491623071F49FB7F8943C91822F809583238C93E8812E2B28839FBFDF91CF914A
:2005800008958FB7F894EC912E2B2C938FBFF6CF1F93CF93DF93EC01162F88818C3008F0CF
:2005A0004EC061E0812F0E9497028881282F30E0F901EE0FFF1FE20FF31FE456FB4F1F7363
:2005C0006081607C612B608319821A822CE0622F0E946237829FB001112430E020E0AB011D
:2005E000420F531FFA01EE0FFF1FE40FF51FE456FB4F908196FD16C02F5F3F4F2C3031056F
:2006000071F781110FC01092800082E0809381001092850010928400B19A80916F008260FF
:2006200080936F00E8818E2F90E0FC01EE0FFF1FE80FF91FE456FB4F808180648083888106
:20064000DF91CF911F9108953FB7F8948091BA039091BB03A091BC03B091BD0326B5A89B3F
:2006600005C02F3F19F00196A11DB11D3FBFBA2FA92F982F8827BC01CD01620F711D811DBE
:20068000911D42E0660F771F881F991F4A95D1F708952FB7F8946091B6037091B7038091F4
:2006A000B8039091B9032FBF089590E080E008958823E9F0AAECB3E025E014969C91149776
:2006C00089130DC095E0899FF0011124E653FC4F848114968C931382128214820895992384
:2006E00031F0929FD0011124A653BC4FE6CF0895882381F08F3F29F48091C2019091C3018C
:20070000089595E0899FF0011124E653FC4F82819381089590E080E0089508958EBD0000EC
:200720000DB407FEFDCF8EB508950F931F93CF93DF93082FC62F142FD091120160E08D2F40
:200740000E9469028C2F8F71802B0E948E03812F0E948E0361E08D2F0E946902DF91CF9136
:200760001F910F910895CF93DF93D82FD076909100019D17A1F0C82F43E06FE180EA0E948E
:2007800095034C2F50E085E0559547958A95E1F743706FE180E80E949503D0930001DF917B
:2007A000CF9108951F93CF93DF93C82F162FD72F0E94B303412F6C2F80E40E94950361E032
:2007C0006C0F4D2F80E40E949503DF91CF911F910895EF92FF920F931F93CF93DF938B01A1
:2007E0007A018F3F59F095E0899FE0011124C653DC4F68817981600F711F0FC06091C0010D
:200800007091C101600F711FC0ECD1E0611588E0780778F37850C0ECD1E080E00E94D203F5
:200820008A819B81801B910BE816F90608F4C701CDB7DEB7E6E00C949C37CF92DF92FF92E4
:200840000F931F93CF93DF93182FEB016A0180E591E00E941402A60170E060E0812F0E94BB
:20086000E9038C01F090120160E08F2D0E9469028AE30E948E036E01C00ED11ECC15DD05D4
:2008800029F080E00E948E038993F8CF61E08F2D0E946902C801DF91CF911F910F91FF9047
:2008A000DF90CF9008956091F7037091F8036115710531F0615071098CE00E94D20308952E
:2008C0006FEF77E0F9CFCF93DF93C82FD62F0E94B3034D2F6C2F80E40E949503DF91CF91EE
:2008E00008951F93CF93DF93182FD62FC091120160E08C2F0E9469028D2F8F71812B0E9413
:200900008E03D7FF03C080E00E948E0380E00E948E03D82F61E08C2F0E9469028D2FDF914B
:20092000CF911F910895CF93C82F0E94B3036C2F80E00E947104CF910895CF93DF93EB018A
:20094000682F84ED0E946304BE0186ED0E94D203C7E3D0E08AEE0E94930480FF04C0CE01C0
:200960000197F1F7F7CFDF91CF910895CF93DF93D62FBC0182E00E94D203C091120160E0B1
:200980008C2F0E9469028AE70E948E038D2F0E948E0361E08C2F0E946902DF91CF91089586
:2009A000CF93DF93BC0180E00E94D203C091120160E08C2F0E9469028AE30E948E0380E063
:2009C0000E948E03D82F61E08C2F0E9469028D2FDF91CF910895B0E0A0E0E1EFF4E00C9457
:2009E0007E376C018B01EA0180E591E00E941402C130D10561F4C8010E94D004682FC60117
:200A00000E94B604CDB7DEB7E8E00C949A37C00FD11F7E0181E0E81AF108B80180E10E94D2
:200A2000D203B60184E10E94D203011588E0180748F4E11488E0F80628F07E0181E0E81A20
:200A400088E0F80AB70182E10E94D20340E16FE180EA0E94950340E26FE180E80E94950371
:200A60006FE180E00E94710485FDFACFCBCFB0E0A0E0EDE3F5E00C947E378C016091CA0375
:200A80007091CB036150784EC12C98E1D92EEAECF3E020E0D0E0C0E045E03481CB013323AE
:200AA00041F0439FC001112486539C4FDC018D919C91E080F1808E199F090280F381E02D1E
:200AC0008E1B9F0B8017910799F4B5E02B9FE0011124C653DC4FEFECF3E081E022813381E8
:200AE000232B09F44FC035968F5F8930B9F744C00817190748F48C159D0530F4249FE001F0
:200B00001124C653DC4F6C01311121C0209719F7CAECD3E085E0D82E8C8128813981EA8057
:200B2000FB808823D9F0E20EF31E8D9DE0011124C653DC4F688179816E157F0569F34A8130
:200B40005B81C7010E94EB04F982E882E5CF349FF0011124E653FC4F232F9FCF8091CA03AC
:200B60009091CB03821B930B8E199F098150984E8017910708F0AFCF80E0CDB7DEB7E8E05F
:200B80000C949A37288139814A815B81240F351F31832083138302839C8194838C83EDCFE2
:200BA0000F931F93DB01E42FA80190E0EF3FE9F065E0E69FF0011124E653FC4F608171818B
:200BC000620F731F01C0785025E0289FF001299FF00D1124E653FC4F808191818A0F9B1FE8
:200BE0000E94EB041F910F9108956091C0017091C101620F731F6115E8E07E0720F7E0EC59
:200C0000F1E0DCCFB0E0A0E0E8E0F6E00C947E377B018A01482F50E095E0899FF0011124E4
:200C2000E653FC4FC281D381C61BD70B2C173D0708F4E901209761F185E0849FF001859FC3
:200C4000F00D1124E653FC4FC080D18080E591E00E941402B6016E0D7F1D82E00E94D20318
:200C6000F090120160E08F2D0E9469028AE70E948E036801CC0EDD1EF80181918F010E94B9
:200C80008E03C016D106C1F761E08F2D0E946902CE01CDB7DEB7E8E00C949A37CF93DF935F
:200CA000EC0188810E945803188289810E9458031982DF91CF910895A1E0B0E0E2E6F6E0E9
:200CC0000C9482378C01DC01ED91FC91008CF18DE02D09958823A1F0D8011C96ED91FC91BF
:200CE0008281882369F041E050E0BE016F5F7F4F0E941D04898190E02196E4E00C949E3714
:200D00008FEF9FEFF9CFA1E0B0E0E9E8F6E00C948437DC01ED91FC910288F389E02D41E0D0
:200D200050E0BE016F5F7F4F09951816190634F4898190E02196E2E00C94A0378FEF9FEF9F
:200D4000F9CFB0E0A0E0E7EAF6E00C947837EC014B018A01E881F981008CF18DE02D099569
:200D6000882309F471C0EC85FD85828181110EC0E881F9810680F781E02DCE01099590E079
:200D800080E0CDB7DEB7EEE00C94943778018EE1682EB8016E197F09680D791DEC85FD855D
:200DA000A70182810E941D046C01AC84BD84F5017280872D0E9478038C159D0561F5E81A93
:200DC000F90A872D0E945803F501838182831382AC85BD85EC916E9EF0011124E750FC4F27
:200DE000818D84FF09C011968C911197982F967019F4886011968C93EC85FD85828181111D
:200E00001EC0818182FF03C011821D861C86C8018E199F09B6CF85E0789EF0011124E6535F
:200E2000FC4F808191818C0D9D1D91838083828193818C199D0993838283C801A2CFE1143E
:200E4000F10409F0A6CFF9CF8FEF9FEF9ACFEF92FF920F931F93CF93DF938C01DC01ED91D0
:200E6000FC91008CF18DE02D0995D0E0C0E08823C9F0F801E484F584D70112968C910E9463
:200E80007803EC01F70183810E947803C80FD91F209741F4D801ED91FC910680F781E02D27
:200EA000C8010995CE01CDB7DEB7E6E00C949C37A1E0B0E0EEE5F7E00C9484376983DC01CB
:200EC000ED91FC910280F381E02D41E050E0BE016F5F7F4F09952196E2E00C94A037FC01CD
:200EE000448555854115510551F0FB01248535852115310521F081E04217530709F080E019
:200F00000895DC011C96ED91FC91309731F08281811105C081818170089580E0089581E06A
:200F2000089590E080E0089590E080E00895DC01ED91FC91028CF38DE02D099591E0892778
:200F40000895FB0141505109460F571FE417F50778F4208130E0322F22276181260F311D1F
:200F6000820F931F8217930708F401963296EECFE417F50751F4208130E0322F2227820FBB
:200F8000931F8217930708F401960895B0E0A0E0ECECF7E00C947D378091F30190E0982FED
:200FA00088272091F401820F911D6C0124E1C21AD10848E050E06DEF71E00E970E94A10782
:200FC00000911102069506950C7310E0A80165E072E00E94A107EC010C151D0508F053C003
:200FE000C01AD10A8091BD0152E2E52EF12C81FF03C043E2E42EF12CB090BB0180E591E0A0
:201000000E941402B8016E0D7F1DA6018B2D0E94E90301977C01B090120160E08B2D0E9459
:2010200069028AE30E948E03D12CC12CCE14DF04B8F480E00E948E03082F10E0102F00272A
:2010400080E00E948E03800F912F911DC80FD91FC817D90708F4219682E0C80ED11CE6CFE5
:20106000EC14FD0461F480E00E948E0390E0982F8827C80FD91FC817D90708F4219661E01F
:201080008B2D0E9469029C2F8D2FCD2B11F48FEF9FEFCDB7DEB7E9E00C94993744E150E054
:2010A00061EF71E090E080E00E94A107009721F098278927982708958FEF9FEF08950F93B7
:2010C0001F938091BA0181111BC00E9449030091B6011091B7012091B8013091B90160173A
:2010E00071078207930761F00E9449036093B6017093B7018093B8019093B9011092BA01AB
:201100001F910F910895EF92FF920F931F93CF93DF93C091BD01C1FF69C02091BC0130E032
:2011200043EE51E061E070E08091BB010E940206CD7FC093BD01F090BB0185E0F89EF001C0
:201140001124E653FC4F00811181C281D381C00FD11F80E591E00E94140260E0C8010E9434
:20116000B604B80184E00E94D203BE016850710986E00E94D20313E0249740E86FE180E8C5
:201180000E94950340E86FE180EA0E9495034AE06CE180EA0E94950348E06FE180E80E945C
:2011A00095038CE10E949304082F8A70D1F348E06FE180EA0E949503802F8270E82E01FF29
:2011C00007C0CE010E94D00485FF02C01150A9F6C1E0E110C0E08F2D0E9458031092BB0174
:2011E0008C2FCDB7DEB7E6E00C949C37C091DB01D091DC01CE0108960E9437058093BB015D
:20120000882341F09E0143EE51E061E070E00E94020691CFC0E0E4CFCF93CFB7F89480917E
:20122000B101811127C0E0EAF3E08491E4EBF3E09491E82FF0E0EE0FFF1FE858FC4FA59147
:20124000B491EC91E92321F461E08AE00E94690261E08AE00E9497028CB580618CBD8CB561
:2012600080648CBD61E08DE00E94970261E08BE00E9497028091B1018F5F8093B101CFBF6D
:20128000CF910895CF938091BF0181110FC0C091120161E08C2F0E94970261E08C2F0E9484
:2012A00069020E940C0981E08093BF01CF910895DC01EC91EC3090F511968C91119728E864
:2012C00030E0281B310987FD3395220F331F220F331F6217730784F012968C9128E532E0E4
:2012E000281B310987FD3395220F331F220F331F621773070CF49B0122503109220F331F61
:201300004FB7F8948E2F90E0FC01EE0FFF1FE80FF91FE456FB4F328321834FBF089580914E
:201320008C02882321F080919202811105C080919802811180919E020895CF92DF92EF9289
:20134000FF921F93CF93DF936B017C01CBE8D2E010E084E0113051F083E0113038F08FE017
:20136000123021F08EE0133009F088E00E94400221E0892B09F020E08881821789F02883B0
:20138000CA82DB82EC82FD821F5F2696153009F7DF91CF911F91FF90EF90DF90CF9008953F
:2013A0008981821789F38A819B81AC81BD81B701A601481B590B6A0B7B0BDB01CA014997D4
:2013C000A105B10508F32983DFCFCF93C82F60E085E00E94690260E086E00E94690260E05E
:2013E00087E00E94690261E086E0C13021F087E0C23009F085E00E946902CF91089581117D
:2014000006C081E0FB0180831092AD030895FB011082883038F4E82FF0E0ED5EFE4F8081C5
:201420008B3008F088E08093AD0308950F931F93CF93DF93EC018A01E881F981DF018D91B0
:20144000803259F0893049F0DB0130E020E0811106C0F983E88380E019C0FD01EFCF5E2FF2
:201460009F2F8191482F4F7D59F0893049F0B9016F5F7F4F6017710719F08D939B01EFCF46
:201480001C925883998381E0232B29F3DF91CF911F910F9108954F925F926F927F929F920A
:2014A000AF92BF92CF92DF92EF92FF920F931F93CF93DF93EC018B018881882309F496C00E
:2014C0008D32D1F52196AA24A394888190ED980F9A3040F08E3209F089C0898180538A300B
:2014E00008F084C0B12CC12CD12C7601CE01999020ED290D2A3028F527E02B15D8F020E0B1
:2015000030E040E251E4C701B6010E9475396B017C01692D990C770B60537109072E000C81
:20152000880B990B0E94C038A70196010E94AC376B017C01B394DACF8B3209F42196A12CFF
:20154000C4CFEEE29E1234C0EC0121968DEC482E8CEC582E652C8DE3782E699180ED860F50
:201560008A3030F5FBE0FB1508F1062E000C770B60537109072E000C880B990B0E94C038A7
:20158000A30192010E9475399B01AC01C701B6010E94AC376B017C012DEC3CEC4CEC5DE3D5
:2015A000C301B2010E9475392B013C01B394D5CFBB20E1F0AA2021F0F7FAF094F7F8F094A1
:2015C000F801C082D182E282F38281E0DF91CF911F910F91FF90EF90DF90CF90BF90AF90B9
:2015E0009F907F906F905F904F90089580E0EECFA8E1B0E0EEEFFAE00C9482378B0148E148
:2016000050E0BE016F5F7F4F0E94160A882329F0B801CE0101960E944B0A6896E4E00C9441
:201620009E37AF92BF92CF92DF92EF92FF921F93CF93DF9300D000D0CDB7DEB75B01198229
:201640001A821B821C82BE016F5F7F4F0E94F80A182F882321F1C980DA80EB80FC8020E026
:2016600030E0A901C701B6010E94183887FD26C020E03FEF4FE757E4C701B6010E9470396C
:201680001816E4F020E030E040E05FE3C701B6010E94AC370E948F38F50171836083812FEC
:2016A0000F900F900F900F90DF91CF911F91FF90EF90DF90CF90BF90AF90089510E0EFCF79
:2016C00010924A0310924B031092C90208958F929F92AF92BF92CF92DF92EF92FF928111C7
:2016E00044C080918103909182034091830350918403B0E0A0E06C017D01C41AD50AE1084B
:20170000F108E1F19B01BC01CD01621B730B810991090E94C0384B015C01C701B6010E9454
:20172000C0389B01AC01C501B4010E941D386B017C0120E030E0A9010E94183887FD1EC0FF
:2017400020E030E040E85FE3C701B6010E9470391816C4F0C701B601FF90EF90DF90CF9008
:20176000BF90AF909F908F90089580918503909186034091870350918803BBCFC12CD12C72
:201780007601E8CFC12CD12C80E8E82E8FE3F82EE1CF8F929F92AF92BF92CF92DF92EF9234
:2017A000FF92CF93DF936B017C01C1E7D3E028A939A94AA95BA90E9475392CA53DA54EA5E0
:2017C0005FA50E94AC374B015C012CA93DA94EA95FA9C701B6010E947539A70196010E946D
:2017E00075399B01AC01C501B4010E94AC37DF91CF91FF90EF90DF90CF90BF90AF909F9089
:201800008F9008950E94670B0E94C90B089580915102882359F089E3E2E5F2E0A1E7B3E06D
:2018200001900D928A95E1F71092510208954F925F926F927F928F929F92AF92BF92CF92C6
:20184000DF92EF92FF92CF93DF93CDB7DEB72A970FB6F894DEBF0FBECDBF9A878987DC0102
:201860009496CD90DD90ED90FC909797A701960198966D917D918D919C919B970E94AB37C3
:201880004B015C01A985BA855C968D919D910D90BC91A02D89839A83AB83BC83E985FA85BA
:2018A00040A051A062A073A09C01AD01C701B6010E947539A985BA8558962D913D914D9163
:2018C0005C915B970E94AC376D837E838F839887A3019201C701B6010E947539A70196013D
:2018E0000E9475399B01AC016D817E818F8198850E94AC37E985FA8564A775A786A797A731
:20190000A3019201C301B2010E94AC37A70196010E94753929813A814B815C810E94AC3772
:20192000A50194010E947539A985BA85D0966D937D938D939C93D397A5019401C301B201CE
:201940000E947539A50194010E947539E985FA8564AB75AB86AB97AB2A960FB6F894DEBF6F
:201960000FBECDBFDF91CF91FF90EF90DF90CF90BF90AF909F908F907F906F905F904F90AA
:20198000089580914E02811110924E0208958091B203811107C00E948F09811105C0809167
:2019A0007003089585E0089586E008950E9449036093AC017093AD018093AE019093AF013E
:2019C00060936703709368038093690390936A036093A8017093A9018093AA019093AB0157
:2019E000E4EAF1E0ACE0B1E08D919C9111979183808312968D919C919383828308951092D4
:201A00000701E5E6F3E010821182E82FF0E0EB59FC4F81E080830E94D60C0895811105C0A9
:201A200080918103909182030895809185039091860308950F931F93CF93DF93C82FD0E01F
:201A40009091A9038E01000F111F992339F00E940E0DF801E45FFE4F91838083D801A85FC9
:201A6000BE4FF801E45FFE4F808191818D939C93FE01EB59FC4F1082CD59DC4F1882DF91F3
:201A8000CF911F910F910895E5E6F3E010821182089590E0880F991FFC01E45FFE4F2081AC
:201AA0003181AB01770F660B770B420F531F611D711D413629E052076105710524F040E691
:201AC00059E060E070E0845F9E4F4032E2E05E076105710524F440E252E060E070E0FC01FF
:201AE0005183408308950F931F930E9449030091A8011091A9012091AA013091AB01601BA7
:201B0000710B820B930B21E0683B7B408105910508F420E0822F1F910F9108950F931F93B5
:201B20000E9449030091AC011091AD012091AE013091AF01601B710B820B930B21E06036A0
:201B40007A4E8105910508F420E0822F1F910F91089520910C0130910D0180910E01909139
:201B60000F014091A4015091A5012417350739F44091A6015091A7014817590791F03093B0
:201B8000A5012093A4019093A7018093A6010E9449036093A8017093A9018093AA019093AA
:201BA000AB010895A8E4B2E0EC918E2F90E0FC01EE0FFF1FE80FF91FE456FB4F80818F7B5E
:201BC00080831396EC918E2F90E0FC01EE0FFF1FE80FF91FE456FB4F80818F7B808360E0B6
:201BE00082E00E94690260E089E00E9469021092100108958093B3031092700391E0209170
:201C00006B03233009F090E09093AC0310926B0391E090934E021092670310926803109219
:201C2000690310926A039EEF980F953010F0893029F48091100181110E94D20D0E94490337
:201C400060936C0370936D0380936E0390936F0308959091070190931101909162039093F2
:201C6000AA038093AB030E94070C86E00E94FA0D089580911001882381F060910C01709158
:201C80000D0188E492E00E94580960910E0170910F018BE492E00E945809089562E070E031
:201CA00088E492E00E94C80269E070E08BE492E00E94C80281E0809310010E94390E0895E9
:201CC00080911001811102C00E944E0E0895CF93DF93C0917003C1114DC09091B203911104
:201CE00045C0D82F0E948F09811140C00E94600ED0936B0381E0809370031092B30310924A
:201D00004E021092AC030E9449036093AC017093AD018093AE019093AF01609367037093EE
:201D200068038093690390936A036093A8017093A9018093AA019093AB0180910C01909114
:201D40000D019093A5018093A40180910E0190910F019093A7018093A60110926C0310926B
:201D60006D0310926E0310926F03C1E08C2FDF91CF910895C0E0FACF811103C080919202A0
:201D8000089580919E020895811103C080918C020895809198020895B0E0A0E0E2EDFEE0C2
:201DA0000C947E37811103C0662309F469C0C62FD82F0E94C70C811164C084E00E94670E28
:201DC000882309F463C00E94440DD0936503C093660380E090E0A4E3B2E480930301909397
:201DE0000401A0930501B093060135E6E32E33E0F32E03E613E0D0E0C0E043E0D42ECC2EB0
:201E0000D7018D917D01882359F1F80110828C2F0E94C40E882369F08C2F0E94BC0E8823C9
:201E200041F089E00E94FA0D80E02BC0C1E0D0E0E6CF8C2D0E94BC0E882391F0D801DC9276
:201E4000CE01880F991FFC01E85FFE4F845F9E4FDC018D919C9191838083F7013197108272
:201E60000F5F1F4F219711F70E94390E809165038111DACF809166038111D6CF81E0D2CF76
:201E800087E0CDB7DEB7E8E00C949A3781E0F9CFB0E0A0E0EEE4FFE00C947F37811103C0F4
:201EA000662309F480C0C62FD82F0E94C70C81117BC081E00E94670E882309F47AC00E9422
:201EC000440DD0936503C093660380E090E0A4E3B2E48093030190930401A0930501B09382
:201EE000060135E6E32E33E0F32ED0E0C0E042E0D42E0C2FF70181917F018823B9F1FE01EE
:201F0000ED59FC4F1082FE01E45BFC4F10828C2F0E94C40E182F882369F08C2F0E94BC0EE2
:201F2000882341F089E00E94FA0D80E03DC0C1E0D0E0DFCF8091A903882349F1112371F11F
:201F4000802F0E940E0DFE01EE0FFF1FE45FFE4F2081318182179307B8F4A901481B590BC8
:201F6000CA018997B0F4802F0E941A0D2197F9F60E94390E809165038111D7CF809166039F
:201F80008111D3CF81E0CFCF821B930BEACF112329F0FE01EF5FFE4F1082E8CFFE01EF5F9D
:201FA000FE4FD082E3CF87E0CDB7DEB7E7E00C949B3781E0F9CFB0E0A0E0E1EEFFE00C9490
:201FC0007F37D82E84E080930701CD2DD0E0CE018D599C4F7C01FC011082109265031092C4
:201FE00066038E010B591C4F81E0F80180830E94D60C8D2D0E94C40E882381F0CC0FDD1F18
:20200000FE01E85FFE4FC45FDE4F888199819183808383E0F7018083F8011082CDB7DEB7A1
:20202000E7E00C949B37B0E0A0E0E9E1F0E10C947F37D82E82E080930701CD2DD0E0CE016A
:202040008D599C4F7C01FC01108210926503109266038E010B591C4F81E0F80180830E9431
:20206000D60C8D2D0E94C40E882381F0CC0FDD1FFE01E85FFE4FC45FDE4F88819981918343
:20208000808383E0F7018083F8011082CDB7DEB7E7E00C949B37B0E0A0E0E1E5F0E10C94BB
:2020A0007A37D090A903DD2061F1D0917003D11128C0A0908703B09088038090830390903B
:2020C00084030CE011E088E0E82E81E0F82EC0E08C2F0E94C40EC82E8C2F0E94BC0ECC20BF
:2020E000B9F08823B9F00E5F1F4FF2E0EF0EF11CC13061F4DD2329F08091100181110E9477
:20210000390ECDB7DEB7ECE00C949637C1E0E0CF882349F38C2F0E940E0D9501C11101C04E
:202120009401F80140815181BA01681B790B8417950718F0BC01641B750BFA01E21BF30BCB
:202140002417350718F0F901E41BF50BCC2041F06035710540F6E617F70728F69C0104C02F
:202160006E177F0708F0BFCF2417350709F4BBCFF80131832083F70131832083DD2DB3CFA5
:2021800080917003882349F01092700310926B031092AC0387E08093B30310924E020E949D
:2021A000440D0E944B108091100181110E94D20D0E94490360936C0370936D0380936E0355
:2021C00090936F030895B0E0A0E0E9EEF0E10C947F37D82F8B010E94C40ED82E882329F0EE
:2021E0008D2F0E94BC0E811124C0ED2FF0E0EE0FFF1FE45FFE4FE080F180C091A903CC23ED
:20220000B1F18D2FDD20B9F00E940E0D7C01CD2D8017910709F43FC08D2F0E94BC0EC82F3C
:202220000E191F0991E0101611060CF490E0CC23C1F1C0E030C00E94BC0E882351F0E09038
:202240008303F0908403DD2321F0E0908703F09088030E151F05F9F00E191F0991E01016C5
:2022600011060CF490E0C82F12C0C1E014C0E016F106D9F38D2F0E94BC0EC82F0E191F0972
:2022800091E0101611060CF490E0D110D0CF992361F381E0C8278C2FCDB7DEB7E7E00C9405
:2022A0009B379111F6CFF7CF0F931F93CF93DF9361157105E9F18B01C82F0E94C40ED82F33
:2022C0008C2F0E94BC0EDD2321F08823C1F1D0E030C01016110614F081112BC08C2F90E0E0
:2022E000880F991FFC01E45FFE4F20813181A801110F660B770B420F531F611D711D4136AD
:2023000029E052076105710524F040E659E060E070E0845F9E4F4032E2E05E076105710537
:2023200024F440E252E060E070E0FC0151834083D1E08D2FDF91CF911F910F9108951016BD
:2023400011062CF2CBCFA8E0B0E0E9EAF1E10C9474377C016B0158874F8319010E94490304
:202360006C597F4F8F4F9F4F609398047093990480939A0490939B04ECECF3E08BE2DF0164
:202380001D928A95E9F781E098E09093CB038093CA030E94420980E591E00E9414024FEF2C
:2023A00060E08FEF0E9495030E9424032B013C0182E3882E912CA12CB12C0E94240364192B
:2023C000750986099709683E734081059105A8F3B1E08B1A9108A108B108E8EE4E0EE3E01A
:2023E0005E1E611C711C81149104A104B10429F71092F8031092F70370E060E088E00E94E0
:20240000D20370E060E08CE00E94D2036FEF77E08AE00E94D20360EB88E30E9463046FE3CD
:2024200070E388E20E94D20369EF77EF80E30E94D2036DE070E080EC0E94D20342E362ECDD
:2024400080E80E94950362E17CE086EC0E94D20362E184EC0E9463046CED75E08AEC0E94D0
:20246000D203D7016C9184EE0E946304F701618185EE0E946304D70112966C9182EE0E9452
:202480006304F701638183EE0E946304D70114966C9180EE0E946304F701658181EE0E949A
:2024A000630460E071E080E10E949D048FE10E94B30340EC6BE180E80E94950344E06FE12A
:2024C00080E80E94950366E774E084E10E949D040E94420980E591E00E94140282E70E948B
:2024E00093048F3F09F480E091E0811101C090E090939704D7018C918093910411968C91C7
:2025000011978093920412968C9112978093930413968C9113978093940414968C911497C5
:202520008093950415968C91809396041092360410923504109212041092300482E08093C0
:202540003704109290049BE024E0809190048830E0F1D80112964D915C91139714962D91FF
:202560003C91F101A280B38064817581EF81F88582819381A481B581F60104811581E28099
:20258000F380F092C703E092C6031093C9030093C803B092C303A092C2037093C5036093B7
:2025A000C4035093BF034093BE033093C1032093C0038093DE049093DF04A093E004B093C9
:2025C000E1042896E2E10C949037899FF0011124E85CFB4FDF01322F1D923A95E9F78F5FC5
:2025E00080939004B2CFCF93DF93EC01A1EBB2E0E0E099919923A1F0E331E9F0292F2F7DAC
:2026000021542A3150F080ED890F8A3030F09F3521F083ED890F823018F49D93EF5FE9CFEA
:20262000E11109C069ED70E081EB92E00E94E536DF91CF910895F0E0EF54FD4F1082F8CF79
:202640000F931F93CF93DF9320910102309102022F3F320721F58091030290910402019648
:20266000F1F486E0EBE1F1E0A3EEB1E001900D928A95E1F786E0E1E9F4E0A9EEB1E001906C
:202680000D928A95E1F788E090E09093F0018093EF018091DB019091DC010E969EC08091B7
:2026A000C6039091C703822793274091BE035091BF0384239523892B99F440910302509177
:2026C00004028091C8039091C903842795276091C0037091C10386239723892B09F486C0F1
:2026E0008091C2039091C3039093E0018093DF018091C4039091C5039093E2018093E1016A
:202700000091DF011091E001C091E101D091E201E8E3F4E080E0883009F071C080939004C7
:2027200046E050E06FEF70E083EE91E00E94533A86E0E3E0F2E0DF01482F1D924A95E9F7C4
:20274000E1E9F4E0A9EEB1E0982F01900D929A95E1F7E1E9F4E0A9EFB1E0982F01900D92F7
:202760009A95E1F710930A0200930902D0930C02C0930B022091C6033091C703309300026A
:202780002093FF012091C8033091C903309302022093010220E031E03093F8012093F70188
:2027A0003093F2012093F10128E030E03093F4012093F3018093F50184E08093F60188E068
:2027C00096E09093F0018093EF0189E192E09093DE018093DD018AE290E09093DC018093AE
:2027E000DB01DF91CF911F910F9108953093E0012093DF015093E2014093E10181CF20819D
:2028000031810217130729F422813381C217D30719F08F5F3B967FCF80939004349686E0BF
:2028200023CFA8E0B0E0E7E1F4E10C947E37C090D601D090D701D6015C96ED90FC9040919A
:20284000D301E114F10409F042C046FD03C0D12CC12C12C18091C704882309F471C0809136
:20286000CF048111F4CF7EECE72E74E0F72E81E090E028E0FE013196DF01322F1D923A95DA
:20288000E9F71C821B821E821D8233E0880F991F3A95E1F78A539B4FDC0101900D922A9542
:2028A000E1F79601295F334035952795EFEEFEEE2E9FB0012F9F700D3E9F700D1124DC012A
:2028C0006C9321E011962C93F601F58EE48E41FF51C00091DB011091DC010115110509F441
:2028E00049C0D70111968C911197882309F454C081FD40C012968C91882349F1F7018381AB
:2029000081112FC0C8010E943705D70113968C93882339F1DD24D3942091DD013091DE0183
:20292000235E31404091BE0170E060E00E94D005B1E0DB121FC0E091D601F091D70117C039
:2029400066ECE62E64E0F62E90E080E092CFC8010E943705D70112968C93882379F2D12C1F
:20296000DBCF8091BD018E7F8093BD01F601818D8061818FF701818183FF0EC09091D301CB
:20298000877F818392609093D301E091D601F091D701818D8F7E818F8091D30184FD04C04E
:2029A00087FD02C085FF20C0C70104960E944E06E091D601F091D701D70112968C9112972E
:2029C000882379F08481958115969C938E93149711968C911197846011968C93158E148EC7
:2029E00036CF11961C92FACF80FF63C0F70184810E945803D70115968C91159714968C9303
:202A0000149715961C92F7018481882309F454C09581911167C0C680D780C114D10409F4D6
:202A200016CF35E0839FF0011124E653FC4FD382C2820091DD011091DE01035E1140009303
:202A4000BC011127C80108968C0D9D1D0E9437058093BB01882381F0B8016F5F7F4F860122
:202A600030E020E0D70114964C910E94D0058091BD0182608093BD016091DD017091DE013F
:202A8000D092CE01C092CD011C141D0454F48091D4019091D5016817790719F0A6010E941E
:202AA0004A3AD092DC01C092DB012896E8E00C949A378C7009F0A7CFF701818181FFC7CEB4
:202AC000E091D601F091D701D70114968C91149781110FC011961C92158E148E80E180939C
:202AE000D301B5CE0E9478036C01892B09F4AFCEA0CF818D8061818FAACEB0E0A0E0E3E806
:202B0000F5E10C947E37C091D601D091D70129E132E03093DE012093DD013093D50120938E
:202B2000D4018330C9F4898D8F70833009F044C088899989892B09F03FC088E08093D3015D
:202B40000E9411148091D30185FF5AC41092CE011092CD01198E51C0823009F09CC0809176
:202B6000D2018F5F8093D201811113C08091D1018F5F8093D10181110CC08091D0018F5F65
:202B80008093D001811105C08091CF018F5F8093CF011092DC011092DB011092CE01109238
:202BA000CD01898D982F9D7F953059F48A8D8F5F8A8F883709F4198E1092DC011092DB01BE
:202BC000EAC08823C9F328893989232B09F45EC09A8D2FEF290F2A8F9111EECF9B8D983083
:202BE00031F02FEF280F223050F4953041F4198E80E88093D3010E94111484E13EC0392F47
:202C0000953008F034E023E001C0220F3A95EAF72A8F9F5F9B8F8F70843071F140F5813062
:202C200009F45BC2833041F684E08093D3010E9411148091D4019091D5019093DE0180938C
:202C4000DD018091CD019091CE01892B09F409C488899989009709F404C488969093DC019C
:202C60008093DB0188E18093120280E54AC2863019F0883009F0A0CF81E18093120288E292
:202C800090E09093DC018093DB01EFCF8F70833009F092CF52CF8091F101853409F08CCFDA
:202CA000E090F301F12CFE2CEE248091F401E80EF11C8091DB019091DC018E159F0508F420
:202CC0007BCFF092DC01E092DB018091F7018F7309F072CF1091F80111116ECFC090C603A6
:202CE000D090C703C114D10431F48091C8039091C903892BA1F08091010290910202C816B6
:202D0000D90609F059CF20910302309104028091C8039091C9032817390709F04DCF0E9437
:202D20004E08019609F048CF8091FA018630E1F1813009F041CF80910502883009F03CCF74
:202D4000109205028091070290910802873F2FEF920740F1099690930802809307028091DE
:202D6000FD019091FE0190930202809301028091FF01909100029093040280930302D09221
:202D8000FE01C092FD018091C8039091C903909300028093FF011092D301CDB7DEB7E8E08C
:202DA0000C949A370896D7CF0E94C607019609F003CF80910702909108024091050250918F
:202DC0000602E091FD01F091FE016091FF0170910002C9EFD3E0298D2223A9F0AC81BD819E
:202DE0008A179B0781F4AE81BF814A175B0759F4A881B981EA17FB0731F4AA81BB816A1729
:202E00007B0709F4D0C16E9624E0C731D20719F310F320911202322F3F73323009F08EC039
:202E20009093CC018093CB0110923704A0913504B09136048A179B0709F07DC020911204C1
:202E4000222309F419C1D0E0C0E0273011F4C9EFD3E020913004222309F41BC1273049F4A8
:202E6000209709F465C0309131042A8D231708F45FC022E020933704209709F49DCED09305
:202E8000D701C093D60123E02A8F288F1E8A24E02F8B1B8E9D838C835F834E838091FD01BD
:202EA0009091FE01998388838091FF01909100029B838A8381E0898F8091CF018C878091EE
:202EC000D0018D878091D1018E878091D2018F8781E090E0998B888B80910C028B878091D1
:202EE0000B028A8780910A02898780910902888781E090E00E949C2680911102982F907F2D
:202F0000913508F4EAC082958F708550990B880F991F880F991FE12FF0E0E817F9072CF419
:202F2000ED51FE4F36A93111B8C010933704D5C0C7E1D4E09ECF31E03093370422FD3CCEF9
:202F400024E12093120228E230E03093DC012093DB0120E520931102B0910C02209110027F
:202F600020930C02A0910B0220910F0220930B02A0930F0230910A0220910E0220930A023F
:202F800030930E022091090220933704C0910D02C093090220930D02BF5FB0931002B111FF
:202FA0000DC0AF5FA0930F02A11108C03F5F30930E02311103C02F5F20930D025093CC0102
:202FC0004093CB0190930602809305025093080240930702F0930202E0930102709304023E
:202FE00060930302D092FE01C092FD018091C8039091C903909300028093FF0180E48093B0
:20300000F9018091DB019091DC019093F3018093F4011092180210921702109216021092D9
:2030200015020E94C60780959095909316028093150285E48093F1011092F2011092F801CD
:203040001092F7018091C5019091C60101969093C6018093C5019093F5018093F6011092F8
:20306000FC011092FB010E944E08809590959093FC018093FB018FCE70E060E02093370479
:203080002EE1269FE001279FD00D1124C750DC4FF6CE21E061E070E0F1CF313011F41F5F67
:2030A0003ACF27A9323009F079C0243009F076C01093370480AD91AD892798278927909395
:2030C000CC018093CB01813022E0920710F080E092E09B8B8A8B9D8B8C8B82E18093120222
:2030E00082E08093190294E090931A0280931B0210921C028CE290E09093DC018093DB01D0
:2031000080E680931102888580930D02898580930E028A8580930F028B85809310028C854A
:20312000809309028D8580930A028E8580930B028F8580930C0286E08093FA018C819D8139
:2031400090930602809305028E819F8190930802809307028091C6039091C7039093FE01CB
:203160008093FD018091C8039091C903909300028093FF01888199819093020280930102DD
:203180008A819B819093040280930302898D84FFBEC1109214021092130230CF222309F4FF
:2031A000C4CE120FB8CED093D701C093D6011092D3019091120292FF07C0198E80E2809352
:2031C000D3010E941114F8CC8091110282958F70880F880F80933704E81AF1088701045102
:2031E00011091093DC010093DB012F70223021F4892F8F738231D1F00115110519F4892FA1
:203200008370A1F039852A858B85509109024885541357C140910A02431353C130910B0260
:2032200032134FC120910C0228134BC194FF49C0688979896115710509F443C0CE010C9647
:203240000E94692630910D028091C701381339C020910E028091C801281333C090910F0255
:203260008091C90198132DC0809110024091CA01841327C03C872D879E878F87988D8B8DAF
:20328000811118C08E892A8D921B282F269526952695921B890F8E8B97FD91952F89322F90
:2032A00036953695231B920F9F8B869586958695890F888F81E08093D301888D8A8F198A56
:2032C000188A298DE22FEF70E150E83008F074CCF0E0E359F64E0C946E377519DC158E19EA
:2032E000441A6D1A7F1A611A3D1A8091D30180FF63CC83E0898F80E48093D301198A188AE0
:203300000115110531F082E48093D301C8010E949C261092CE011092CD0112CC8091120202
:2033200080FF21C024FD1FC088899989892B09F043CCC70143970E949C268091D301982F8C
:2033400090619093D3010115110519F082618093D3010E94111481E090E0998B888B88E04F
:20336000898F1B8E89CC85FF14C08091170290911802982789279827AC01475E5D4F50936B
:20338000DE014093DD01081B190B1093DC010093DB014091DB015091DC019091D3014115B1
:2033A000510541F024FD06C092609093D301CA010E949C2680911302282F30E0322F222750
:2033C00080911402820F932F911D9093CC018093CB012C893D892817390710F0892B21F433
:2033E0003093CC012093CB018091CB019091CC019B8B8A8B8091D301837009F4DDCB89CFE3
:2034000084FF0AC01092CE011092CD0181E090E0998B888B84E0A4CF2091CD013091CE0190
:2034200021153105B9F080FF02C0198A188A88899989009789F48A899B898217930720F42C
:203440009093CE018093CD018091CD019091CE01998B888B1B8EEDCB9093CE018093CD015F
:20346000F9CF8091D30181FFA7CB88E290E09093DC018093DB0180E1F6CB8091D30180FF5E
:203480009BCB198E80E19BCE0115110519F0C8010E949C268091D30181709091120290FF59
:2034A00015C0882381F087E0898F1A8E198A188A81E090E00E949C2680E18093D3010E9490
:2034C000111480E1DACB86E0898FF2CF882399F085E0898F198A188A6FCB0115110519F01D
:2034E000C8010E949C268091120280FF04C087E0898F1A8EDDCF0115110519F75DCB8091EF
:20350000D30180FF59CB87E0898F1A8E55CB82E0809313021092140271CDB0E0A0E0E3E991
:20352000FAE10C947C377C018B0110929004DBE0C0919004C83058F1A8E3B4E0FD0180E0C0
:20354000883009F052C02091DA01422F50E080E0C0E090E01A963C911A97BA01631B71092A
:20356000961717061CF4922F931BC82F8F5F1B96883081F79093D901C093D801C09390042C
:20358000FBE0CF9FE0011124C85CDB4F39C0CD9F50011124C501885C9B4F6C01FC01808194
:2035A0009181892BF1F082819381892BD1F044E050E0B601C7010E943D3A892B91F4D501DD
:2035C000A45CBB4F86E0F80101900D928A95E1F78091DA01F6018287CDB7DEB7EAE00C94EC
:2035E0009837CF5FC0939004A3CFEF0120813181232BC9F422813381232BA9F4809390043E
:2036000084E0F701DE0101900D928A95E1F7DE01149686E0F80101900D928A95E1F7809128
:20362000DA018A87D9CF8F5F3B968ACFB0E0A0E0ECE1FBE10C947E3780919704882309F47C
:2036400014C10E9449030091B2011091B3012091B4013091B501601B710B820B930B61317D
:2036600077428105910508F005C1D091BE01D11151C080E591E00E94140289E30E94930471
:20368000882309F445C06091F7037091F8037B0126E0E20EF11CE11448E0F40628F07B016C
:2036A0008AEFE81A87E0F80A80E00E94D20360E08AE30E947104C82F60E08AE30E947104D0
:2036C000982F8C2F9093F8038093F70360E08AE30E947104182F60E08AE30E947104C82F77
:2036E00060E08AE30E947104082F40E46EE180E80E94950307FFF9C0F092C101E092C00184
:203700009C2F812F04979093C3018093C201DFEFD093BE011091BE01112309F460C081E0D4
:203720008093BD01812F0E947803EC019093DC018093DB01892B09F4EDC042E650E063EE08
:2037400071E0812F0E941D04E090EF01F090F001A8E0EA16F10409F0CBC01093BB012E97AF
:20376000D093DC01C093DB018091FD019091FE012091C6033091C703822793272091BE03D1
:203780003091BF0382239323892BC1F48091FF01909100022091C8033091C9038227932742
:2037A0002091C0033091C10382239323892B31F469EE71E08DEF91E00E948D1A81E00E94FB
:2037C0007D158091DB019091DC01892B21F00E9420130E9483088091BD0180FD9BC00E945C
:2037E0004903009198041091990420919A0430919B046B017C01C01AD10AE20AF30A970144
:20380000860137FD32C06C597F4F8F4F9F4F609398047093990480939A0490939B0489EF82
:2038200093E09093D7018093D60182E00E947D158091DB019091DC01892B21F00E94201315
:203840000E94830887E194E09093D7018093D60182E00E947D158091DB019091DC01892B45
:2038600021F00E9420130E948308CDB7DEB7E8E00C949A370E9449036093B2017093B30198
:203880008093B4019093B5012091DA012F5F2093DA01109290049BE030E064E08091900435
:2038A000883008F0E2CE989FF0011124E85CFB4F40815181A281B3814A2B5B2B452B89F0EF
:2038C0004285D901A41BB109A837B10554F0899FF0011124E85CFB4FDF01C62E1D92CA9438
:2038E000E9F78F5F80939004D9CF0E94530410CFB8E0EB16B6E0FB0669F41092DC01109225
:20390000DB01AA9780F48091DB019091DC01892B09F05FCF80E591E00E9414020E945304C9
:203920001092BE015CCF8091F7019091F8018115E1E09E0701F18115924029F720910902A6
:2039400030910A028091C6039091C70328173907D1F620910B0230910C028091C803909105
:20396000C9032817390779F669EF71E08FEF91E00E948D1AC8CF0091090210910A028091BB
:20398000C6039091C7030817190709F0BCCFC0910B02D0910C028091C8039091C903C8173B
:2039A000D90709F0B0CF69EF71E08FEF91E00E948D1A80E092E09093F8018093F70186E06F
:2039C000E9EFF1E0A3E0B2E001900D928A95E1F786E0E1E9F4E0A9EFB1E001900D928A9586
:2039E000E1F786E0E1E9F4E0A9EEB1E001900D928A95E1F786E0E3E0F2E0A3EEB1E00190EE
:203A00000D928A95E1F78091FF019091000290930A02809309028091010290910202909333
:203A20000C0280930B02109300020093FF01D0930202C0930102F092F001E092EF018AE222
:203A400090E09093DC018093DB015DCFCF93DF93EC010E94161B2091F8043091F904E6EC0A
:203A6000F4E09EE1818184FD2FC080FF0CC0A0819A9FD0011124A750BC4F14964D915C915F
:203A80004217530739F082FF1FC04481558124173507D1F4806181831B821A8288EE93E00C
:203AA000A0E0B0E08C839D83AE83BF8381E491E099838883FD87EC8788E893E19F878E8741
:203AC000CE01DF91CF910895389684E0E63DF80748F21B821A8288EE93E0A0E0B0E08C83DB
:203AE0009D83AE83BF8381E491E0998388831D861C86E2CFCF93DF93EC010E94161BEC853B
:203B0000FD853097F9F084818823E1F080819EE1989FF0011124E750FC4F20893189232BE2
:203B200089F4F093D701E093D60183E00E947D158091DB019091DC01892B21F00E94201347
:203B40000E948308DF91CF910895CF93DF93EC010E94161BEC85FD8584818823A9F021E0FA
:203B60008581811101C020E080E0922F990F26813781820F931F20E034E0A901481B590BFC
:203B8000CA01DF91CF91089580E094E0FACFB0E0A0E0EDECFDE10C9475375C014B01EA01A9
:203BA000DC011C960D911C917A010E9449032B013C010E94161B0115110509F47AC0F8012A
:203BC0008181882309F475C0867009F072C0358081E090E0311002C090E080E06801C80E4D
:203BE000D91ED60114968C91811126C080E092E00E943705F601848381111BC00E944903AF
:203C00006419750986099709613D77408105910508F44CC081E090E0D50113969C938E9361
:203C20001297CE018E199F09CDB7DEB7E1E10C949137F80117821682AE014E195F09480D7D
:203C4000591DD80116966D917C919701F60184810E940206E81AF90AD80116962D913C910B
:203C60001797820F931F17969C938E9316971E141F04BCF6311009C0D501ED91FC91068031
:203C8000F781E02DC501099594CF0E9449036419750986099709613D77408105910530F02F
:203CA00081E090E0F50193838283BBCF0E945F0880CF90E080E0B8CFCF93DF93EC010E9486
:203CC000161BEC85FD85309739F0818182FF08C081E09281911101C080E0DF91CF910895E1
:203CE00081E0FBCF88EE94E00E945C1E982F882341F088EE94E00E94810791E0811101C018
:203D000090E0892F08950F931F93CF93DF938C01EB010E94721E882391F00115110579F04A
:203D2000209739F0AE01B80188EE94E00E94C71DEC01CE01DF91CF911F910F910895D0E0A2
:203D4000C0E0F7CFA1E0B0E0E8EAFEE10C9484378AE0898361E070E0CE0101960E94831E30
:203D60000E94721E882321F088EE94E00E947A1D2196E2E00C94A037A1E0B0E0E2ECFEE184
:203D80000C948237009779F08C01F80184910F5F1F4F882341F0898361E070E0CE01019674
:203DA0000E94831EF2CF2196E4E00C949E37A1E0B0E0EDEDFEE10C948337162F0E94BC1E2A
:203DC00080E3111181E3898361E070E0CE0101960E94831E2196E3E00C949F37CF93DF93F0
:203DE000EC01EC85FD85309759F08181882341F082FF0DC011828C859D8502960E944E0653
:203E00001D861C860E94161BDF91CF910895E881F9810680F781E02DCE010995EC85FD85CF
:203E2000818182608183E7CF009759F0FC0101900020E9F73197BF01681B790B11F00E9444
:203E4000831E0895A6E0B0E0E8E2FFE10C9482378B010E94BC1E4AE0BE016F5F7F4FC801B5
:203E60000E94EC36CE0101960E94141F2696E4E00C949E37AEE1B0E0E0E4FFE10C9476373E
:203E80002B013C01142FAC019B010E941838882361F084ED90E0123011F080ED90E00E949C
:203EA000BC1E6E96E0E10C94923720E030E0A901C301B2010E94183887FF26C08DE28983F0
:203EC00077FA709477F870947E0122E0E20EF11C123009F48EC020E030E04AE755E4C301B1
:203EE000B2010E94703990E4892E92E4992E9FE0A92EB12C18160CF093C0412C512C7AE761
:203F0000672E75E4772E8CC0CE0101967C01E0CF80E3898B01E0F701802F8150A1E1B0E04E
:203F2000AC0FBD1FA80FB11D9C9191938111F5CF802F90E06C01BFEFCB1ADB0ACE0CDF1CE5
:203F4000E80EF91E8EE2F7018083C501B4012AE030E040E050E00E94213749015A010C2D2C
:203F600076013AE0432E512C612C712C60E381149104A104B10479F06B8D7C8D8D8D9E8D22
:203F8000A50194010E942137CA01B901A30192010E942137605DD7016D937D01C501B401A8
:203FA000A30192010E94213749015A018E2D801B8117E0F28FEF810F90E00196C80ED91E89
:203FC000123081F0F6019E012D5F3F4F6F012E173F0740F48291803329F4DF0111978C91C7
:203FE0008E32A1F7F6011082CE0101960E94141F58CF20E836E948E15CE4C301B2010E94D5
:20400000703924E6822E912CA12CB12C181644F4E0E84E2EE6E95E2EE8E16E2EECE47E2EF0
:20402000C501B4010E94BE38A30192010E94753920E030E040E05FE30E94AC370E948F3886
:20404000A50194010E9421376B8F7C8F8D8F9E8F211531054105510509F45ACFDE015196E9
:204060006D0100E06AE0462E512C612C712C0F5FCA01B901A30192010E942137605DD601D5
:204080006D936D01211531054105510509F443CF0A3069F740CFCF92DF92EF92FF926A01A3
:2040A0007B010E94BC1E46E0C701B6010E943A1FFF90EF90DF90CF900895CF92DF92EF929C
:2040C000FF926A017B010E94BC1E42E0C701B6010E943A1FFF90EF90DF90CF9008954F92F6
:2040E0005F926F927F928F929F92AF92BF92EF92FF920F931F93CF93DF93E82E0E944B108C
:2041000000910C0110910D01C0910E01D0910F01F090A903B80180E00E94670B2B013C01BF
:204120008090950390909603A0909703B0909803A50194016091990370919A0380919B0364
:2041400090919C030E94AB37A30192010E947539A50194010E94AC37AB01BC0183E491E093
:204160000E945D20BE0181E00E94670B2B013C018090950390909603A0909703B09098037D
:20418000A50194016091990370919A0380919B0390919C030E94AB37A30192010E9475393F
:2041A000A50194010E94AC37AB01BC0187EA91E00E945D20FF2009F417C1B80180E00E9426
:2041C000020C4B015C01BE0181E00E94020C9B01AC01C501B4010E94AC372091AD023091EE
:2041E000AE024091AF025091B0020E94AC37AB01BC0183EA91E00E945D206091700385E93D
:2042000091E00E94D71E6F2D8FE891E00E94D71E6F2D84E891E00E94D71E8AE791E00E94E7
:20422000BC1E81EB92E00E94141F6E2D8FE691E00E94D71E86E691E00E94BC1EE091AD035F
:20424000F0E0E95AFD4F849190E0825F9D4F0E94BC1E60E070E080E89FE30E94C90B9B01A5
:20426000AC010E94AC372091AD023091AE024091AF025091B0020E94AC37AB01BC018FE5C4
:2042800091E00E945D2060E070E0CB010E94C90B9B01AC010E94AC372091AD023091AE021D
:2042A0004091AF025091B0020E94AC37AB01BC0188E591E00E945D204091AD025091AE02ED
:2042C0006091AF027091B0028EE491E00E945D2086E491E00E94BC1E81E793E00E94141F80
:2042E000609181037091820381E491E00E94221F60918303709184038CE391E00E94221F48
:20430000609185037091860387E391E00E94221F609187037091880382E391E00E94221F1C
:20432000FF2009F466C0B80180E00E94020CAB01BC018BE291E00E945D20BE0181E00E944A
:20434000020CAB01BC0184E291E00E945D2060918C028CE091E00E94D71E6091920287E011
:2043600091E00E94D71E6091980282E091E00E94D71E60919E028DEF90E00E94D71E60913B
:20438000B20385EF90E00E94D71E4091C5025091C6026091C7027091C8028BEE90E00E949C
:2043A0005D2081EE90E00E94BC1EE091B30380E0EB3020F4F0E0E359FC4F849190E0855EB0
:2043C0009C4F0E94BC1E0E94A21EDF91CF911F910F91FF90EF90BF90AF909F908F907F90FB
:2043E0006F905F904F9008958CE991E00E94BC1E04CF81E191E00E94BC1EA9CFA9E3B0E03B
:20440000E4E0F2E20C947E37FC018081882309F495C0DF010D900020E9F71197AE1BBF0BFC
:20442000509708F08BC082899389208931898217930708F083C0A901481B590B403551051E
:2044400008F47CC0205232402134374008F076C0805292408134974008F070C086899789BF
:20446000248935898217930708F068C0A901481B590B4035510508F461C0205232402134EC
:20448000374008F05BC0805292408134974008F055C08F0124A135A146A157A160A571A530
:2044A00082A593A50E94703918160CF047C020E030E0A901F80160A171A182A193A10E9462
:2044C00070391816DCF589E3F801DE01119601900D928A95E1F7CE0101960E94170CCDA486
:2044E000DEA4EFA4F8A829A93AA94BA95CA9C701B6010E94AC372DA93EA94FA958AD0E94F9
:20450000AC379B01AC01C701B6010E9470391816ACF489E3F801A1E7B3E001900D928A9508
:20452000E1F71092800381E793E00E94170C81E08093A903E996E8E00C949A3780E0FACFDD
:20454000A9E3B0E0E6EAF2E20C94803780915603882321F080915703811104C083E00E9458
:20456000290E4EC089E3E1E7F3E0DE01119601900D928A95E1F74FE050E065E671E0CE0178
:2045800001960E945A3A188AE0905803F0905903FA8AE98A00915A0310915B031E8B0D8BE0
:2045A00080915203909153039C8B8B8B8091540390915503988F8F8BCE0101960E94FE2198
:2045C000882311F11092510282E0809311011092AA031092AB03F0920D01E0920C01109361
:2045E0000F0100930E01F0920901E092080110930B0100930A010E94390E81E00E94FA0DC2
:20460000E996E6E00C949C3787E0A9CF0F931F93CF93C82F082F10E00B591C4F8091070147
:20462000823069F58C2F90E09C01220F331FF901E85AFC4F285F3E4FD9012D913C9131836B
:20464000208313E01093070110925C03FC01EA5AFC4F108210926503109266038B599C4F16
:2046600021E0FC0120830E94D60C8C2F0E94BC0E811110935C03CF911F910F91089583305A
:2046800001F58C2F0E94DB0F8C2F90E0FC01EB59FC4F20812111EFCF880F991FFC01E85A07
:2046A000FC4F885F9E4FDC018D919C9191838083C11104C081E00E947123DDCF0E94A0225F
:2046C000DACF843019F48C2F90E0E6CF813099F68C2F0E941310F8018081882309F49ECFC1
:2046E000CACF0F931F93CF93DF93C82F8093620310925D03082F10E0F801ED59FC4F108245
:2047000010925C030E94440D0B591C4FD1E0F801D0830E94D60C8C2F0E94C40E8823C9F0C2
:204720008C2F0E94BC0E882381F0D0931101C093AA031092AB030E94070C89E00E94FA0DAA
:20474000DF91CF911F910F9108958C2F0E94FF0CF7CF8C2F0E941310F80180818111F0CFA3
:204760008C2F0E940623ECCFA9E1B0E0EAEBF3E20C9474378D8B498B5A8B6B8B7C8B0E8B82
:204780001F8B288F398F8090A5039090A603A090A703B090A803C090A103D090A203E09041
:2047A000A303F090A4039A01AB0160919D0370919E0380919F039091A0030E94AB372B018B
:2047C0003C01C501B4019F772FE530E749E850E30E94183887FF7AC02FE530E749E850E33B
:2047E000C701B6019F770E94183887FDC4C0C301B2019058A70196010E941D3869837A83AC
:204800008B839C8321E02987FE013196F88BEF87512CFAECFE8792EF292E29E4322E31E7B6
:20482000432E612C712C00E010E01D862985251509F4BEC0EF85F889C190D190E190F1906E
:20484000F88BEF8727E137EB41ED58EBC701B6010E94703987FD38C027E433E040E85FE3F6
:20486000C701B6010E941838181674F120E030E0A901C701B6010E94183887FD7EC020E047
:2048800030E040E85FE3C701B6010E94703918160CF477C02E893F89488D598DC701B601B6
:2048A0000E94AB374B015C01E894B7F8FD85FF2309F46EC02E85322D432D542DC501B40153
:2048C0000E94183887FD6DC05394B0CFA7019601C701B6010E94753969877A878B879C879B
:2048E00020E030E040E850E4C501B4010E947539A30192010E9475399B01AC0169857A85C4
:204900008B859C850E94AB372B013C0120E030E0A9010E94703987FD2EC0C301B2010E94E9
:20492000E8392B013C01A5019401C501B4010E94AC374B015C01A7019601C301B2010E94B1
:20494000AB37A50194010E941D3869837A838B839C83C701B6019058A30192010E94AB370B
:20496000A50194010E941D386D837E838F83988782E0898749CF198647CFC12CD12C760143
:2049800089CFC12CD12C80E8E82E8FE3F82E82CF8E86292C3A2C4B2C3601870121E02D87B4
:2049A00093CF8E86292C3A2C4B2C360187018CCF8D85811128C060E070E0CB010E94C90BD7
:2049C0006B017C0160E070E080E89FE30E94C90B9B01AC01C701B6010E94AC3720E030E0A1
:2049E00040E05FE30E9475399B01AC0169897A898B899C890E947039612C712C87FF54C07F
:204A000000E81FE314C020E030E0A901B301C8010E94183887FD46C020E030E040E85FE3AB
:204A2000B301C8010E94703918160CF440C09D89911140C0E0908103F0908203C0908303E9
:204A4000D0908403B70190E080E00E94BE384B015C01EC18FD08B70190E080E00E94BE387D
:204A60009301A8010E9475399B01AC01C501B4010E94AB3720E030E040E05FE30E94AC376A
:204A80000E948F38CB016136794010F080E699E08032F2E09F0710F480E292E06996E2E1EE
:204AA0000C949037612C712C00E010E0C0CF612C712CA6CFE0908503F0908603C09087038C
:204AC000D0908803BFCF1F920F920FB60F9211242F933F938F939F93AF93BF938091B6032A
:204AE0009091B703A091B803B091B9033091B50323E0230F2D3758F50196A11DB11D2093BD
:204B0000B5038093B6039093B703A093B803B093B9038091BA039091BB03A091BC03B09169
:204B2000BD030196A11DB11D8093BA039093BB03A093BC03B093BD03BF91AF919F918F910C
:204B40003F912F910F900FBE0F901F90189526E8230F0296A11DB11DD2CF1F920F920FB642
:204B60000F9211242F933F934F935F936F937F938F939F93AF93BF93CF93DF93EF93FF9313
:204B80008091B001C0914702D0E087FF24C010928500109284008091B0018F5F8093B001DE
:204BA0008091B001082E000C990B8C179D0724F48091B0018C30C4F1809184009091850080
:204BC000049680349C4908F47AC08091840090918500049676C08091B001082E000C990BB9
:204BE0008C179D07C4F6E091B0018E2FEE0F990BFC01EE0FFF1FE80FF91FE456FB4F808188
:204C000086FFC9CFE091B0018E2FEE0F990BFC01EE0FFF1FE80FF91FE456FB4F808160E00B
:204C20008F730E946902B7CF2091840030918500E091B0018E2FEE0F990BFC01EE0FFF1FCC
:204C4000E80FF91FE456FB4F81819281820F931F9093890080938800E091B0018E2FEE0F46
:204C6000990BFC01EE0FFF1FE80FF91FE456FB4F808186FF11C0E091B0018E2FEE0F990B0E
:204C8000FC01EE0FFF1FE80FF91FE456FB4F808161E08F730E946902FF91EF91DF91CF9138
:204CA000BF91AF919F918F917F916F915F914F913F912F910F900FBE0F901F90189580E4D9
:204CC0009CE990938900809388008FEF8093B001E3CFFC013381360F3093CA01A72FBB27D8
:204CE00092819A0F9093C90121812093C80140814093C7019A171B0648F481E0820F80937E
:204D0000C801811103C04F5F4093C70177273617170688F49F5F9093C90191110CC080913E
:204D2000C8018F5F8093C801811105C08091C7018F5F8093C7010895CF93DF93C091D6014E
:204D4000D091D701BC01CE0108960E946926E7ECF1E0808188878181898782818A878381E1
:204D60008B87DF91CF910895E0ECF4E083E691E0918380831282138214821582E6EDF4E026
:204D8000918380831282138214821582E6ECF4E01382128215821482138612861586148644
:204DA000E2EEF4E0918380831282138214821582ECEDF4E0918380831282138214821582C8
:204DC000EBEFF4E0918380831282138214821582E8EFF4E08FE191EF918380831282E8EE9C
:204DE000F4E01382128288EE93E0A0E0B0E084839583A683B78381E491E0918380831586B3
:204E0000148688E893E1978786870895A7E9B0E0ECE0F7E20C947437789484B5826084BDD4
:204E200084B5816084BD85B5826085BD85B5816085BD80916E00816080936E001092810058
:204E400080918100826080938100809181008160809381008091800081608093800080912D
:204E6000B10084608093B1008091B00081608093B00080917A00846080937A0080917A00ED
:204E8000826080937A0080917A00816080937A0080917A00806880937A001092C10014BE75
:204EA0000FB6F894A89580916000886180936000109260000FBE88E19FE00FB6F894A89552
:204EC000809360000FBE9093600061E082E00E94970261E089E00E94970262E083E00E9405
:204EE000970262E084E00E94970262E08FE00E94970262E08EE00E94970261E085E00E9419
:204F0000970261E086E00E94970261E087E00E94970260E085E00E94690260E086E00E9439
:204F2000690260E087E00E94690262E088E00E949702EBE8F2E010821182128213821482E4
:204F40001582369622E0E93AF207A9F70E9449030E949D0980918B0280938C028091910217
:204F600080939202809197028093980280919D0280939E028091A3028093A4028091470207
:204F80008C3008F0CBC191E0980F909347028093480290E0FC01EE0FFF1FE80FF91FE4561F
:204FA000FB4F88EB9BE092838183809147028C3008F0B8C191E0980F9093470280934B0235
:204FC00090E0FC01EE0FFF1FE80FF91FE456FB4F88EB9BE0928381831092AD021092AE020C
:204FE0001092AF021092B002E1E7F3E089E3DF011D928A95E9F74FE050E06DE671E0CF01A2
:205000000E945A3A8EE997E090938203809381038CE494E090938403809383038DED95E017
:2050200090938603809385038BED92E0909388038093870388EF98EAA5E9B0E4809389033A
:2050400090938A03A0938B03B0938C0382E39EE1A5E3BEEB80938D0390938E03A0938F03DC
:20506000B09390038DEF90E2A1E0BBE38093910390939203A0939303B093940380E090E07B
:20508000A0EAB2EC8093950390939603A0939703B093980380E090E0ACE0B2E48093990335
:2050A00090939A03A0939B03B0939C0381E793E00E94170C1092A90326EB34E030930D0199
:2050C00020930C0189E696E090930F0180930E01309309012093080190930B0180930A0100
:2050E0000E944E0E0E94390E10926B0312E010930701109270031092B2031092B3031092B6
:205100004E021092AC030E94490360936C0370936D0380936E0390936F030E94600B89E795
:2051200091E00E94F3121092AD031092C5021092C6021092C7021092C8020E94490360937A
:20514000AE037093AF038093B0039093B10381E00E94E5090E940C098AE080931201A596D9
:205160001FAFA597A6961FAEA697A7961FAEA7979AECA8969FAFA8979EE7A9969FAFA997F4
:2051800095E5AA969FAFAA9723E631E03A8329839FEF9B839C839D831E823BAF2AAF40ECC9
:2051A0004CAF98EA9DAF8EAFFF24F394FFAE60963FAF2EAF609761964FAF619762969FAFA7
:2051C000629763968FAF63976496FFAE6497A0963FAF2EAFA097A1964FAFA197A2969FAFD8
:2051E000A297A3968FAFA39787E3A4968FAFA4978E010F5F1F4F9E01265C3F4FAE01425B42
:205200005F4FBE01625A7F4FCE018C599F4F0E94A3118091F8049091F904109237042091E6
:20522000350430913604232B09F080C090933604809335040E94161B81E08093FA048093B2
:205240004F02109250021092B4030E94E509A895A8950E9449030E949D099091A402809198
:20526000B203992309F465C0811116C080917003882331F010926B03109270031092AC036D
:2052800081E08093B20398E09093B30380934E020E94440D0E94D20D1092A9021092AA0222
:2052A0001092AB021092AC028091B203882319F083E00E94E50980914F02882309F4B7C061
:2052C00088EE94E00E945C1E882351F088EE94E00E948107811104C088EE94E00E94EE1EDA
:2052E00088EE94E00E945C1E882309F469C088EE94E00E948107882309F462C0CE01019693
:205300000E94261DCE0101960E945C1E882309F48EC0CE0101960E94EE1E89C08FEF809342
:20532000480243CE8FEF80934B0256CEF092370481CF8823C1F08091A9029091AA02A091ED
:20534000AB02B091AC02892B8A2B8B2B09F0ACCF0E9449036093A9027093AA028093AB0223
:205360009093AC02A1CF0E948F09882309F49CCF8091700381111DC08091B303893009F42F
:2053800093CF89E08093B30381E080934E020E94440D8091100181110E94D20D0E9449039F
:2053A00060936C0370936D0380936E0390936F037BCF10926B03109270031092AC03E1CF8F
:2053C000CE0101960E94261DCE0101960E945C1E882369F18B819C819093EB048093EA04BF
:2053E0008D819E81AF81B8858093EC049093ED04A093EE04B093EF0489859A85AB85BC8503
:205400008093F0049093F104A093F204B093F3048D859E859093F5048093F4048F85988979
:205420009093F7048093F60481E080935002809150028823E9F0109250020E94600B0E94F1
:2054400049036093AE037093AF038093B0039093B10380EB91E00E94BC1E0E94A21E8BEADB
:2054600091E00E94BC1E0E94A21E81E08093B4030E94721ECD56DF4F8883C359D040811166
:205480000C9416368091B403882369F00E94C0100E94600B8091B203811103C081E00E94B7
:2054A000E5091092B40380917003811178C60E944B10809110018823F1F08091B20381114E
:2054C0001AC0C0906C03D0906D03E0906E03F0906F03C114D104E104F10469F00E944903C5
:2054E0006C197D098E099F096C3D75408105910510F00E94D20DCD56DF4FA880C359D040C2
:20550000A1100C94C73480917003882319F082E00E94E509CD56DF4FB880C359D040B1109F
:205520000C94F2350E94C10C0C94F2350E94721E882309F4B8CF88EE94E00E942707CB5731
:20554000DF4F99838883C558D040C19744F0E0E3F0E0CB57DF4FF983E883C558D040CB5724
:20556000DF4FA880B980C558D0401A141B040CF09ACF0E94721E882359F188EE94E00E940A
:2055800083068C0197FD24C00E9449036093AE037093AF038093B0039093B1030D30C1F0AB
:2055A00080914B030A3009F0E6C5882301F188E891E00E94F31289E08093AD0383E00E9458
:2055C000E50980E00E946F2010924A0310924B03CB57DF4F28813981C558D04021503109E2
:2055E000CB57DF4F39832883C558D040B8CFE0914A03EE2349F3F0E0E753FD4F1082E9EC78
:20560000F2E0DF018191882319F08D30D1F71C9289EC92E0E8969FAF8EAFE89744E150E01B
:20562000BE01665C7F4FCE018A589F4F0E94160A882351F28AAD8823B9F032E6E32E32E006
:20564000F32E10E0B701CE01CA960E94DC36892B89F02FEFE21AF20AF7013197E491E11134
:20566000F8CF1F5F113171F7CE01CA960E94F3121FEF12C080E062E672E0811749F06F5FEC
:205680007F4FFB013197E491E111F9CF8F5FF5CF81EB92E00E94E5361092AD03E9961FAE5E
:2056A000E9970091B203002311F40C945236123009F440C0123028F01F3F09F44FC585E067
:2056C0007BCF4CE150E0BE016F5F7F4FCE018A589F4F0E94160A882361F0A1E9B1E0FE0151
:2056E00031968D91882311F40C946C3691918917C1F381E0E9968FAFE99710917003E9962C
:205700008FADE997882309F42BC581E0112309F428C582E026C5C12CD12C28E4E22E22EC55
:20572000F22EC092AD02D092AE02E092AF02F092B002DFCF8091A402811129C0C090A90204
:20574000D090AA02E090AB02F090AC02C114D104E104F104E1F00E9449036C197D098E090D
:205760009F09683C71058105910570F01092B2030E944E0E1092B30381E0E9968FAFE997A0
:2057800080E08093AD03B9CFE9961FAEE99785E0F8CF80917003882311F081E0F2CF198279
:2057A0001A821B821C82BE016F5F7F4FCE018A589F4F0E94F80A882309F49AC2C980DA80CD
:2057C000EB80FC800C948B3661E081E00E94480FBE0168587F4F0E94FF098FCF60E0F5CF8D
:2057E00061E080E0F3CF61E081E00E94CC0EF0CF60E0FACF61E080E0F8CF0E94C70C8111F1
:20580000E7CF83E00E94670E882309F4A5C40E94440D82E0809311011092AA031092AB032E
:2058200080E090E0A4E3B2E48093030190930401A0930501B09306011092560310925703C2
:2058400010925303109252031092550310925403109259031092580310925B0310925A036C
:20586000109263031092640310925C0380E00E94C40E882329F080E00E94BC0E811111C04F
:2058800081E00E94C40E882371F081E00E94BC0E882349F081E08093AA0389E00E94FA0D43
:2058A00033C080E0F8CF8091A903882379F189E3E1E7F3E0A2E5B2E001900D928A95E1F7B5
:2058C00081E0809351021092A9031092820310928103109284031092830310928603109248
:2058E000850310928803109287034FE050E06AE971E081E793E00E945A3A109280030E94EC
:20590000600E80E00E94712380E062CF10925102DACF80917003811140CF89E3E1E7F3E028
:205920008E010F5F1F4FD80101900D928A95E1F719AE40E150E0BE01625B7F4FCE018A58E9
:205940009F4F0E94160A882309F4D2C180E1D8011D928A95E9F74FE050E0BE01625B7F4FCB
:20596000C8010E945A3ABE016F5E7F4FCE018A589F4F0E94110B882309F4BAC1BE016D5EC4
:205980007F4FCE018A589F4F0E94110B882309F4AFC1BE016B5E7F4FCE018A589F4F0E942D
:2059A000110B882309F4A4C1BE01695E7F4FCE018A589F4F0E94110B882309F499C1898DF5
:2059C0009A8DAB8DBC8DE6968CAF9DAFAEAFBFAFE6978D8D9E8DAF8DB8A1E2968CAF9DAFFB
:2059E000AEAFBFAFE29789A19AA1ABA1BCA1AE968CAF9DAFAEAFBFAFAE978DA19EA1AFA1BD
:205A0000B8A5A8968CAF9DAFAEAFBFAFA89789A59AA5ABA5BCA5A2968CAF9DAFAEAFBFAFB2
:205A2000A297E896EEADFFADE89781918032E9F38930D9F3882309F469C0BE016E587F4FA0
:205A4000CE018A589F4F0E94F80A882309F450C1BE0162597F4FCE018A589F4F0E94F80ABF
:205A6000882309F445C1BE0166597F4FCE018A589F4F0E94F80A882309F43AC1BE016C59C2
:205A80007F4FCE018A589F4F0E94F80A882309F42FC1BE01625A7F4FCE018A589F4F0E94D3
:205AA000F80A882309F424C1E6968CAD9DADAEADBFADE697898F9A8FAB8FBC8FE2968CAD9D
:205AC0009DADAEADBFADE2978D8F9E8FAF8FB8A3AE968CAD9DADAEADBFADAE9789A39AA31E
:205AE000ABA3BCA3A8968CAD9DADAEADBFADA8978DA39EA3AFA3B8A7A2968CAD9DADAEADFA
:205B0000BFADA29789A79AA7ABA7BCA7C8010E94FE21882309F4D9C08091A903882309F48A
:205B2000E8CD0E94600E80E00E941A0D81E00E941A0D0E94390E0E94490360936C03709311
:205B40006D0380936E0390936F03D3CD80917003811123CE8091A903811102C082E011CEC3
:205B600062961CAE1DAE1EAE1FAE629719821A821B821C82BE01625B7F4FCE018A589F4FAB
:205B80000E94F80A882309F4B3C0BE016F5F7F4FCE018A589F4F0E94F80A882309F4A8C098
:205BA00049805A806B807C806296CCACDDACEEACFFAC62978091A903882309F486C0A701D1
:205BC0009601C301B2010E94183887FF7EC080909D0390909E03A0909F03B090A00320912A
:205BE000A1033091A2034091A3035091A403ED962CAF3DAF4EAF5FAFED978091A5039091E9
:205C0000A603A091A703B091A803C358DF4F88839983AA83BB83CD57D040C501B4010E94E8
:205C2000AC37C358DF4F288139814A815B81CD57D0400E94AC37A50194010E94AB374B016A
:205C40005C019F772DEB37E346E855E30E94183887FD3BC0A7019601C301B2010E94AB378E
:205C6000A50194010E941D384B015C01C0929D03D0929E03E0929F03F092A003AC019B01D2
:205C8000ED966CAD7DAD8EAD9FADED970E9475396093A1037093A2038093A3039093A40321
:205CA000A5019401C358DF4F688179818A819B81CD57D0400E9475396093A5037093A6038B
:205CC0008093A7039093A80314CD84E05ACD62961CAE1DAE1EAE1FAE6297BE01625B7F4F64
:205CE000CE018A589F4F0E94F80A382E811102C087E047CD19821A821B821C82BE016F5F2D
:205D00007F4FCE018A589F4F0E94F80A882309F4FAC0A980BA80CB80DC80CF57DF4FA88288
:205D2000B982CA82DB82C158D0406296CCACDDACEEACFFAC6297C092C502D092C602E0926A
:205D4000C702F092C802232C1E3031F0212C1F3019F0312C222423940E94C70C811138CD65
:205D60008091A903882309F4F1C10E944B10A0900C01B0900D01EB96BFAEAEAEEB97A09088
:205D80000E01B0900F01EF96BFAEAEAEEF9760E070E080E89FE30E94C90BC557DF4F6883AB
:205DA00079838A839B83CB58D0408090AD029090AE02A090AF02B090B0029B01AC010E943C
:205DC000AC37A50194010E94AC37C157DF4F688379838A839B83CF58D04060E070E0CB0135
:205DE0000E94C90BC957DF4F688379838A839B83C758D0409B01AC010E94AC37A501940195
:205E00000E94AC372B013C01C157DF4F288139814A815B81CF58D040C701B6010E94703943
:205E200087FDEBC0A3019201C701B6010E94183818160CF4E2C0A5019401C701B6010E945F
:205E4000AB374B015C01EB966EAD7FADEB9780E00E94670BC157DF4F688379838A839B83A1
:205E6000CF58D040EF966EAD7FADEF9781E00E94670BCC56DF4F688379838A839B83C459A5
:205E8000D040C157DF4F688179818A819B81CF58D0400E94C90B6B017C01CC56DF4F6881D3
:205EA00079818A819B81C459D0400E94C90B2B013C01332009F43FC02220A1F120E030E082
:205EC00040E05FE3C501B4010E9475396B017C012B013C019601A701C557DF4F68817981D7
:205EE0008A819B81CB58D0400E94183818160CF050C0EF960EAD1FADEF97EB96EEACFFACC4
:205F0000EB9782E083C0C12CD12C84E3E82E82E4F82ECF57DF4FC882D982EA82FB82C1586C
:205F2000D04003CF9B01AC01C501B4010E94AB376B017C01CFCF222009F4EEC09601A70184
:205F4000C501B4010E94AB372B013C019201A301C557DF4F688179818A819B81CB58D0401B
:205F60000E94183818162CF29201A301C957DF4F688179818A819B81C758D0400E947039DA
:205F800087FDB7CF311015C0EB96EEACFFACEB971EC09601A701C957DF4F688179818A8140
:205FA0009B81C758D0400E94703987FDA2CF2110CDCFC157DF4F088119812A813B81CF5892
:205FC000D040A601B70180E00E94B4237C01EF960EAD1FADEF97222071F0CC56DF4F0881EE
:205FE00019812A813B81C459D040A201B30181E00E94B4238C0180E009C0EF960EAD1FAD80
:20600000EF97EB96EEACFFACEB9781E08150823008F49EC0332039F0B70180E00E94E3104B
:20602000882309F497C0222039F0B80181E00E94E310882309F48EC082E00E94670E88232D
:2060400009F48AC0F0920901E092080110930B0100930A01332051F033243394EB96CEACF8
:20606000DFACEB97CE14DF0409F4312C30926503222051F022242394EF96EEACFFACEF97FA
:20608000E016F10609F4212C209266032AE037ED43E25CE3CF57DF4F688179818A819B81BE
:2060A000C158D0400E94183887FD3FC020E030E040EF52E4CF57DF4F688179818A819B816F
:2060C000C158D0400E947039181674F4A12CB12C00EFC02E02E4D02ECF57DF4FA882B98292
:2060E000CA82DB82C158D040CF57DF4FA880B980CA80DB80C158D040A0920301B0920401CE
:20610000C0920501D09206010E94390E3110FCCB2110FACB81E0C2CBEF960EAD1FADEF9757
:20612000EB96EEACFFACEB9766CF1AE0C12E17EDD12E13E2E12E1CE3F12ECF57DF4FC88236
:20614000D982EA82FB82C158D040CECF82E040CB84E03ECB83E03CCB81E03ACB88E011CB47
:2061600083E00E94E509111102C00E94C10CE9968FADE99727CA81112BCAE0914A0381E007
:20618000E7FD08C08E0F80934A03F0E0E753FD4F00831ECA80934B0310924A0319CA809151
:2061A0006B03813009F010C10E948E0DF82E882321F085E00E94FA0D9EC90E9449030091E3
:2061C0006703109168032091690330916A035B016C01A01AB10AC20AD30A960185010431C5
:2061E00011052105310508F486C960936703709368038093690390936A03B5E62B2EB3E081
:206200003B2E412C10E000E0EE24E394502ED1017D901D01772009F441C0802F0E94C40E1C
:20622000682E882329F0802F0E94BC0E8111B5C0F801EF5FFE4F6F01808181113BC06110DF
:206240000BC0A2E0AA2EA082F801ED59FC4F108225C001E010E0DACF5801AA0CBB1C950100
:20626000245F3E4F4901D9016D907C90B0E66B16B9E07B0640F0F601E082F501E25BFC4FA9
:20628000718260820BC064E070E0852D0E94490DD4018D919C916816790669F30130110560
:2062A000C1F60E94390E0E94A90D442009F47AC089E080CF813009F03FC0C801880F991FD2
:2062C0009C01245F3E4F4901D901AD90BC9061100FC0825B9C4FFC01808191818A159B050D
:2062E00020F59501281B390BC9018035910500F531E2A31632E0B30670F06CEF7FEF852DF0
:206300000E945411882309F44BC0F401808191818A159B0519F6F801E45BFC4F8081811157
:206320003AC0E082D6011C92B9CF8A199B09DDCFE2E0D601EC9388CFF801ED59FC4F662082
:2063400069F080818F3F11F08F5F80838081833008F4A4CF852D0E941A0DA0CF1082C801BB
:20636000880F991FFC01E45FFE4F6F01A080B180F0E6AF16F9E0BF0698F464E070E0852D75
:206380000E945411882361F0D6012D913C91A216B30609F083CFF82E81CF482EF82E7ECF7D
:2063A000F72C7CCFF11005CF80916503811106C080916603811102C081E0FCCE0E94730DAE
:2063C000882309F498C8F5CE823009F0DBC00E948E0D782E882311F084E0ECCE0E94490311
:2063E00000916703109168032091690330916A034B015C01801A910AA20AB30A09F47BC8C4
:2064000060936703709368038093690390936A0320E030E048EC52E460910301709104012D
:2064200080910501909106010E94753920E030E040E05FE30E94AC370E948F386B017C0184
:20644000A0E4B7E0AC019B010E9416379B01AC01C501B4010E94523720E838EA42E151E07C
:206460000E942137211531054105510509F043C091E080E0CD28CE28CF2809F490E0092FC6
:20648000182F25E6E22E23E0F22E3CE0832E31E0932E48E0A42E41E0B42E612C512CF701D9
:2064A00041907F01442061F0D501CD90DC90F40160817181C616D70659F5F7013197108216
:2064C000F2E08F0E911C22E0A20EB11C31E053121CC00E94390E71100E94A90D8091650394
:2064E000811143C08091660381113FC0662009F463CF82E05FCE8901233331054105510506
:2065000008F4BFCF02E310E0BCCF55245394C7CF6C157D05C0F49601261B370BB9010217F7
:20652000130708F4B801852D0E945411D4012D913C91811112C0F70131971082F501318313
:206540002083642CBDCF6C197D090617170708F4B801719561957109E6CFC216D30619F498
:20656000F70131971082782EABCF662019F0772009F4BFCF0E94730D882311F40C947B2AE1
:2065800083E018CE833009F067C10E948E0D882329F086E00E94290E0C947B2A0E9449036B
:2065A00000916703109168032091690330916A035B016C01A01AB10AC20AD30A9601850185
:2065C000043111052105310510F40C947B2A60936703709368038093690390936A03E09081
:2065E00062030E2D10E098012B593C4F6901D9017C90772011F40C947B2A8E2D0E94C40E03
:20660000B82E882341F08E2D0E94BC0E882319F00E94070C4DCEF0900701F11053C0B110B0
:2066200010C08E2D0E941310F6018081811103C08E2D0E9406230E94390E0E94A90D0C9456
:206640007B2A000F111F9801245F3E4F4901D901AD90BC90B0E6AB16B9E0BB0688F081E076
:2066600080930701025A1C4FF801B182A0821092650310926603D6018C930E94D60CDBCFB1
:206680006CE070E08E2D0E94490D0E94390E0E94A90DF40180819181A816B90609F06AC0C2
:2066A00081E080930701025A1C4FD801AD92BC921092650310926603F60180830E94D60C9E
:2066C0000C947B2AF1E0FF125DC0B11017C09801220F331FF901E25AFC4F80819181245FAB
:2066E0003E4FD9012D913C918217930770F4F901E81BF90BCF018035910550F48E2D0E9454
:20670000BC0E882381F088E045CF821B930BF3CFD6011C920E94390E0E94A90D8E2D0E94F7
:2067200006230C947B2A000F111F045F1E4FF801C080D180F1E2CF16F2E0DF0660F480917E
:206740005D03811187C081E080935D038E2D0E94FF0C0C947B2A64EF7FEF8E2D0E94490D0B
:206760000E94390E0E94A90DD8018D919C91C816D90629F30E94730D882311F40C947B2AC4
:2067800085E008CFB2E0FB1619F0E4E0FE12E3C2B11033C0F801ED59FC4F1082F3E06CE0A9
:2067A00070E0FF1202C010925C03000F111F9801245F3E4F4901D901AD90BC908E2D0E94C3
:2067C000490D0E94390E0E94A90DF40180819181A816B90679F6F3E083E0FF1609F4DACE3E
:2067E0008E2D0E94C40E882391F1085F1E4FD801AD92BC92F601108291CFC801880F991F02
:20680000FC01E85FFE4F845F9E4FDC018D919C9191838083F801ED59FC4F80818F3F11F07E
:206820008F5F80838081833008F405CFF601108271CFF801EA5AFC4F21E020838E5A9C4F1B
:20684000DC014D935C93F2CF64EF7FEFACCF82E07110A0CE81E09ECE843011F00C947B2A77
:206860000E948E0DB82E8111B7CD0E94490300916703109168032091690330916A036B0133
:206880007C01C01AD10AE20AF30A97018601043111052105310510F40C947B2A6093670371
:2068A000709368038093690390936A0345E6C42E43E0D42E5CE0E52E51E0F52E10E000E0A6
:2068C000A02ED6018D916D01882309F44AC0802F0E94C40E982E802F0E94BC0E992039F0EF
:2068E000882301F1B82E3DC001E010E0E9CF8823C9F0F801ED59FC4F80818F3F11F08F5FE3
:2069000080838081833068F1F801EE0FFF1FE85FFE4FD7018D919C9191838083F6013197C6
:2069200010821FC0F801ED59FC4F1082F70180809180F1E28F16F2E09F0640F4F801EE0FA8
