:100000000C9445010C946D010C946D010C946D01E0
:100010000C946D010C946D010C946D010C946D01A8
:100020000C946D010C946D010C946D010C94101ADC
:100030000C946D010C946D010C946D010C946D0188
:100040000C946E190C946D010C94DE190C94B81973
:100050000C946D010C946D010C946D010C946D0168
:100060000C946D010C946D014E414E494E4954590A
:10007000494E46CDCCCC3D0AD7233C17B7D1387773
:10008000CC2B329595E6241FB14F0A000020410089
:1000900000C84200401C4620BCBE4CCA1B0E5AAED3
:1000A000C59D7400407A10F35A00A0724E180900E2
:1000B00010A5D4E80000E87648170000E40B5402CD
:1000C0000000CA9A3B000000E1F505000080969808
:1000D00000000040420F000000A086010000001058
:1000E0002700000000E8030000000064000000009A
:1000F000000A00000000000100000000002C76D87B
:1001000088DC674F0823DFC1DFAE59E1B1B796E560
:10011000E3E453C63AE651997696E8E6C28426EBC4
:10012000898C9B62ED407C6FFCEFBC9C9F40F2BAD7
:10013000A56FA5F490055A2AF75C936B6CF9676D6F
:10014000C11BFCE0E40D47FEF520E6B500D0ED90C4
:100150002E0300943577050080841E080000204E91
:100160000A000000C80C333333330F986E1283112A
:1001700041EF8D2114893BE65516CFFEE6DB18D101
:10018000844B381BF77C1D901DA4BBE424203284D3
:10019000725E228100C9F124ECA1E53D270001082F
:1001A0000006040001FFFFFF00C0A80A01C0A80A62
:1001B000377469692D30324D4F56455F4C4F574566
:1001C000524D4D004D4F56455F55505045524D4D87
:1001D000004D4F5645424F54484D4D005345454BF9
:1001E0005F54524156454C00484F4D455F4C4F5768
:1001F000455200484F4D455F555050455200484FBD
:100200004D45005345544D4543484F464600434CE9
:10021000524641554C54004553544F500053544F8F
:1002200050005354415455530050494E470000006C
:100230000000240027002A000000000025002800FC
:100240002B00000000002300260029000404040401
:100250000404040402020202020203030303030370
:10026000010204081020408001020408102001024D
:100270000408102000000008000201000003040729
:1002800000000000000000006E1D11241FBECFEF13
:10029000D8E0DEBFCDBF14E0A0E0B1E0E8E4FBE5CC
:1002A00002C005900D92A034B107D9F726E0A0E472
:1002B000B4E001C01D92AF3EB207E1F711E0C5E422
:1002C000D1E004C02197FE010E947B29C434D107EC
:1002D000C9F70E94E51D0C94A22D0C940000CF9349
:1002E000DF93209171052223C1F0FC01208122239C
:1002F000A1F0C1E7D5E0ADE6B5E09C012C5F3F4F32
:10030000899141919D918427892339F4E217F3075C
:10031000B9F781E0DF91CF91089580E0FBCFFC0138
:10032000538D448D252F30E0842F90E0821B930B5A
:10033000541710F00196089501970895FC01918DCE
:10034000828D981761F0A28DAE0FBF2FB11D5D9603
:100350008C91928D9F5F9170928F90E008958FEFB6
:100360009FEF0895FC01918D828D981731F0828D59
:10037000E80FF11D858D90E008958FEF9FEF0895B0
:10038000FC01918D228D892F90E00296821B9109AC
:10039000817099270895FC01A48DA80FB92FB11D74
:1003A0005F962C91848D90E0019681709927848FBF
:1003B000A689B7892C93A089B1898C9183708064B8
:1003C0008C93938D848D981306C00288F389E02D59
:1003D00080818F7D80830895EF92FF920F931F930A
:1003E000CF93DF93EC0181E0888F9B8D8C8D9813E8
:1003F0001AC0E889F989808185FF15C09FB7F894F4
:10040000EE89FF896083E889F9898081837080643F
:1004100080839FBF81E090E0DF91CF911F910F918A
:10042000FF90EF900895F62E0B8D10E00F5F1F4F99
:1004300001701127E02E8C8D8E110CC00FB607FCB9
:10044000FACFE889F989808185FFF5CFCE010E9436
:10045000CB01F1CFEB8DEC0FFD2FF11DF78E9FB788
:10046000F8940B8FEA89FB8980818062D1CFCF938A
:10047000DF93EC01888D8823B9F0AA89BB89E889CC
:10048000F9898C9185FD03C0808186FD0DC00FB672
:1004900007FCF7CF8C9185FFF2CF808185FFEDCFF0
:1004A000CE010E94CB01E9CFDF91CF91089581EA7F
:1004B00096E00E94C00121E0892B09F420E0822F00
:1004C000089580E090E0892B29F00E945702811165
:1004D0000C9400000895833081F028F4813099F065
:1004E0008230A9F008958730A9F08830C9F08430AF
:1004F000B1F4809180008F7D03C0809180008F7760
:1005000080938000089584B58F7784BD089584B565
:100510008F7DFBCF8091B0008F778093B0000895DE
:100520008091B0008F7DF9CFCF93DF93282F30E0FB
:10053000F901EC58FD4F8491F901E05AFD4FD49137
:10054000F901E45BFD4FC491CC23A1F081110E941D
:100550006B02EC2FF0E0EE0FFF1FEE5BFD4FA5915D
:10056000B491EC91ED2381E090E009F480E0DF911B
:10057000CF91089580E090E0FACF1F93CF93DF935F
:10058000282F30E0F901EC58FD4F8491F901E05A31
:10059000FD4FD491F901E45BFD4FC491CC23A9F048
:1005A000162F81110E946B02EC2FF0E0EE0FFF1F5F
:1005B000E85CFD4FA591B4918FB7F894EC911111BF
:1005C00008C0D095DE23DC938FBFDF91CF911F91C0
:1005D0000895DE2BF8CFCF93DF9390E0FC01E05A33
:1005E000FD4F2491845B9D4FFC0184918823C9F0C9
:1005F00090E0880F991FFC01E25DFD4FA591B49139
:10060000FC01E85CFD4FC591D49161110DC09FB70D
:10061000F8948C91209582238C93888128232883B9
:100620009FBFDF91CF910895623051F49FB7F89446
:100630003C91822F809583238C93E8812E2BEFCFE2
:100640008FB7F894EC912E2B2C938FBFEACF1F938A
:10065000CF93DF93EC01162F88818C3008F050C0C7
:1006600061E0812F0E94EB028881282F30E0F901A0
:10067000EE0FFF1FE20FF31FEE53F94F1F73608160
:10068000607C612B60839FEF998394EF9A832CE0C9
:10069000622F0E946F29829FB001112430E020E078
:1006A000AB01420F531FFA01EE0FFF1FE40FF51FBE
:1006B000EE53F94F908196FD16C02F5F3F4F2C30BF
:1006C000310571F781110FC01092800082E0809394
:1006D00081001092850010928400B19A80916F0081
:1006E000826080936F00E8818E2F90E0FC01EE0F16
:1006F000FF1FE80FF91FEE53F94F8081806480835C
:100700008881DF91CF911F9108953FB7F894809130
:10071000A6049091A704A091A804B091A90426B5BD
:10072000A89B05C02F3F19F00196A11DB11D3FBF29
:10073000BA2FA92F982F8827BC01CD01620F711DF8
:10074000811D911D42E0660F771F881F991F4A95F2
:10075000D1F708958F929F92AF92BF92CF92DF927E
:10076000EF92FF924B015C010E9485036B017C01BB
:100770000E9485036C197D098E099F09683E7340AC
:1007800081059105A8F321E0821A9108A108B1081A
:1007900088EEC80E83E0D81EE11CF11C8114910480
:1007A000A104B10429F7FF90EF90DF90CF90BF90A4
:1007B000AF909F908F9008952FB7F8946091A20406
:1007C0007091A3048091A4049091A5042FBF089573
:1007D000AF92BF92CF92DF92EF92FF920F931F934F
:1007E000CF93DF936C017B018B01040F151FEB018D
:1007F0005E01AE18BF08C017D10759F06991D60144
:10080000ED91FC910190F081E02DC6010995892BB5
:1008100079F7C501DF91CF911F910F91FF90EF9074
:10082000DF90CF90BF90AF900895DC01EC91EC3059
:1008300090F511968C91119728E830E0281B31092A
:1008400087FD3395220F331F220F331F6217730763
:1008500084F012968C9128E532E0281B310987FD3F
:100860003395220F331F220F331F621773070CF4C7
:100870009B0122503109220F331F4FB7F8948E2F5E
:1008800090E0FC01EE0FFF1FE80FF91FEE53F94F48
:10089000328321834FBF089580918505909186050D
:1008A00098278927982744972091A30530E044E0B2
:1008B000359527954A95E1F7220F331F220F331FF5
:1008C000821B930B97FF02C090E080E00895209177
:1008D00099053091970530939905209397052091BC
:1008E0009A053091980530939A0520939805E5E78D
:1008F000F5E021A5820F911D25A585A7662381F02E
:1009000021A7892F9927319725E0E137F20789F749
:100910001092A7051092A80580E58093A30508957D
:1009200011A6EFCF0F931F93CF93DF9370E06B5817
:100930007A4F2230A9F48A010250110930E020E0F8
:10094000EB01FA01E230F10578F0A991B991BA27EB
:10095000AB27BA270A0F1B1F211D311D3297F2CF7B
:1009600000E010E09801ECCFFA01EE7F6E0F7F1FE0
:100970004E175F0769F0FB01408150E070E060E0D6
:10098000762F652F542F4427040F151F261F371F5E
:10099000A90166277727411551056105710519F0F1
:1009A00022273327F1CF00951095E82FF0E0EB5880
:1009B000FA4F10830183DF91CF911F910F9108951A
:1009C000E5E7F5E0108E118E80E4848B158A868B26
:1009D00020E044E150E06EE088E10C9492048EBD8A
:1009E0000DB407FEFDCF089561E080917A040E9466
:1009F000BD0278940895F89460E080917A040C9494
:100A0000BD020F931F93CF93DF93EC018B010E94E4
:100A1000FB042097B9F08AE30E94EF041EBCF801A2
:100A2000CE01019739F00DB407FEFDCF2EB51EBCE7
:100A30002193F7CF2197C00FD11F0DB407FEFDCF33
:100A40008EB58883DF91CF911F910F910C94F404A0
:100A50001F93CF93DF93182FC62FD42F0E94FB0430
:100A60008C2F8F71812B0E94EF048D2F0E94EF0439
:100A7000DF91CF911F910C94F404CF93C82FC076CF
:100A800080915D048C1799F043E06FE180EA0E9449
:100A90002805C0935D044C2F50E085E0559547959F
:100AA0008A95E1F76FE180E8CF910C942805CF910A
:100AB0000895CF93DF93C82FD62F0E943D054D2F69
:100AC0006C2F80E4DF91CF910C942805CF93DF93B6
:100AD000C82FD72F0E9459056D2F81E08C0FDF9111
:100AE000CF910C945905CF93C82F0E943D050E94C9
:100AF000FB048C2F8F710E94EF0480E00E94EF04B2
:100B0000C7FF03C080E00E94EF04CEB50E94F4044A
:100B10008C2FCF9108950F931F93CF93DF9300D025
:100B200000D000D0CDB7DEB780916004882379F083
:100B300060915E0470915F046115710509F053C006
:100B40006FEF7BE08CE00E9466051092600489E301
:100B50000E94730510E000E08823C9F160915E04F3
:100B600070915F0480E00E946605BE016F5F7F4F59
:100B700086E090E00E94010589819A8190935F044C
:100B800080935E048D819E818C010078112787FF00
:100B900012C08B819C81049700917B0410917C048E
:100BA000015011098017910708F48C0165E775E081
:100BB000C8010E940105F801EB58FA4F108281E04C
:100BC0008093600440E46EE180E80E942805C8013B
:100BD00026960FB6F894DEBF0FBECDBFDF91CF9142
:100BE0001F910F91089561507109ACCFCF93DF939E
:100BF000EC0140E86FE180E80E94280540E86FE1E1
:100C000080EA0E9428054AE06CE180EA0E942805FB
:100C100060E07CE082E00E946605BE01745F86E0D1
:100C20000E94660540E060E08AE70E9428050E9475
:100C3000FB042097B1F08AE70E94EF0480917505CC
:100C40008EBDE6E7F5E0CB58DA4FEC17FD0731F043
:100C500081910DB407FEFDCF8EBDF7CF0DB407FE19
:100C6000FDCF0E94F40448E06FE180E80E9428056F
:100C7000D0E0C0E08CE10E9473058A7029F42196CF
:100C8000C83E83E0D807B1F78CE10E94730581FD6F
:100C900003C0C83ED34039F448E06FE180EADF91F9
:100CA000CF910C942805DF91CF91089561E184EDF7
:100CB0000E94590561E082ED0E9459058AEE0E946A
:100CC000730580FDFBCF60E082ED0E94590589ED40
:100CD0000E94730582FB882780F90895CF93DF93E4
:100CE000EB01682F84ED0E945905BE0186ED0E943C
:100CF00066058AEE0E94730580FDFBCFDF91CF91E0
:100D000008954F925F926F927F928F929F92AF92CF
:100D1000BF92CF92DF92EF92FF920F931F93CF93E8
:100D2000DF9300D000D000D0CDB7DEB79E838D8397
:100D30002A013B01480159011E2D0C2DDC018D912A
:100D40009D910D90BC91A02D89839A83AB83BC8328
:100D50009C01AD01CB01B2010E9481296B017C0194
:100D60009F77A50194010E94F72718160CF480C004
:100D7000ED81FE814082518262827382ED81FE812B
:100D800080809180A280B38020E030E0A901C5017D
:100D9000B4010E94F72787FD88C020E030E044EBD3
:100DA00052E4C501B4010E94602A18160CF481C0F7
:100DB000AD81BE818D929D92AD92BC921397809130
:100DC0006C0583FD3EC01123C9F020E030E0A9018D
:100DD000C701B6010E94F72787FF10C02DEC3CEC3D
:100DE0004CE45EE3C501B4010E94F727181634F005
:100DF000ED81FE811082118212821382002309F19B
:100E000020E030E0A901C701B6010E94602A18164F
:100E1000C4F42AE939E943EB52E4AD81BE816D9116
:100E20007D918D919C910E94602A87FD0AC080E08F
:100E300090E0A4EBB2E4ED81FE8180839183A283F4
:100E4000B38326960FB6F894DEBF0FBECDBFDF91F9
:100E5000CF911F910F91FF90EF90DF90CF90BF90B7
:100E6000AF909F908F907F906F905F904F9008957C
:100E700020E030E0A901C701B6010E94602A1816DF
:100E800024F0B7FAB094B7F8B094A5019401698141
:100E90007A818B819C810E948229AD81BE816D9374
:100EA0007D938D939C93139769CF812C912C540142
:100EB0007FCF812C912C84EBA82E82E4B82E78CFA2
:100EC0008091BA049091BB04A091BC04B091BD0480
:100ED0008093AE049093AF04A093B004B093B10498
:100EE0008091B6049091B704A091B804B091B90470
:100EF0008093AA049093AB04A093AC04B093AD0488
:100F000010925104109252041092530410925404FF
:100F100010924D0410924E0410924F0410925004FF
:100F200008958091150180FF0AC090916C0591FD94
:100F300006C02EE133E03093100120930F0181FFB2
:100F40000AC080916C0582FD06C086ED94E0909306
:100F50000C0180930B010895CF93C0916C05C3FDE4
:100F60000E949107C77FC0936C0510926B05CF91CB
:100F70000C946007CF93DF93C4E4D4E0833051F046
:100F8000C3E4D4E08F3031F0C1E4D4E08E3011F00E
:100F9000C2E4D4E00E949402892B69F488818830ED
:100FA00010F48F5F888381E09881983008F480E0A6
:100FB000DF91CF9108951882F6CF109241041092DC
:100FC00043041092440410924204089580FF15C017
:100FD0009091400490FF11C0E091EA062E2F30E07E
:100FE000F901EE0FFF1FE20FF31FEE53F94F2081BF
:100FF0002F7B20839E7F9093400481FF15C08091BA
:10100000400481FF11C0E091E7062E2F30E0F90186
:10101000EE0FFF1FE20FF31FEE53F94F90819F7BFE
:1010200090838D7F8093400408952091400421FF98
:1010300005C0BC0187EE96E00C941504089520913C
:10104000400420FF05C0BC018AEE96E00C94150414
:1010500008950F931F93CF93DF93EC018091650563
:10106000882371F000916605109167058881998148
:101070000817190769F41092650583E080936405E9
:10108000809164058823C1F18150809364051AC062
:101090009801281B390BA901465F5F4F4531510567
:1010A000B8F419830883888199816623F1F09093BD
:1010B0000E0180930D010E941F08888199810817F5
:1010C0001907C9F280E0DF91CF911F910F91089528
:1010D000121613063CF42AE030E0820F931F998326
:1010E0008883E1CF26EF3FEFF8CF90930A018093FA
:1010F00009010E941508E1CF81E0E5CFCF93DF938E
:10110000EC0180916C0583FD44C020911301309166
:10111000140140910F0150911001C901421753076A
:101120000CF4CA01241735070CF49A0140911101FF
:1011300050911201A0910B01B0910C01FA01A4177A
:10114000B5070CF4FD014A175B070CF4AD01C81795
:10115000D9072CF0CE012C173D070CF4C901909350
:101160000E0180930D016E177F072CF0FA016417B2
:1011700075070CF4FB01F0930A01E09309010E944A
:101180001F088091090190910A01DF91CF910C9481
:101190001508E6E2F2E022E939E086E292E042E96F
:1011A00059E0D5CFCF93DF93D82F80FF13C0C091E4
:1011B0004004C0FD0FC062E070E08AEE96E00E943D
:1011C0002703C160C093400480910D0190910E01EE
:1011D0000E941F08D1FF15C0C0914004C1FD11C07D
:1011E00069E070E087EE96E00E942703C260C0933A
:1011F00040048091090190910A01DF91CF910C94F4
:101200001508DF91CF910895CF93DF93D62FC42F88
:10121000682F85E00E94BD026D2F86E00E94BD020E
:101220006C2F87E0DF91CF910C94BD02CF9320917A
:10123000BA043091BB044091BC045091BD0460914C
:10124000AE047091AF048091B0049091B1040E94FB
:1012500081299F772DEC3CEC4CE45EE30E94602AF0
:10126000C1E01816ECF02091B6043091B70440911B
:10127000B8045091B9046091AA047091AB048091B4
:10128000AC049091AD040E9481299F77C1E02DECC0
:101290003CEC4CE45EE30E94602A18160CF0C0E0BF
:1012A0008C2FCF91089580916C0583FD0BC00E9417
:1012B0001609811107C080916B05811103C083E07D
:1012C0000C94E607089580916C0580FF08C0982F64
:1012D000987229F4982F967081E0963009F080E09A
:1012E0000895CF93C0916C05C3FD04C00E941609F8
:1012F000882321F041E060E080E00FC0809101058B
:10130000882341F080919E0481FD04C08091A00457
:10131000811106C041E060E081E0CF910C940409A6
:10132000C5FD06C0C0FF06C00E946309811102C04E
:1013300040E0F1CF40E061E0DFCF0E94940221E085
:10134000892B09F020E0822F0895EF92FF921F93DE
:10135000CF93DF93EC017A01822F6C177D0784F124
:10136000A89611E010936A050E949D098127809339
:10137000690510926805D0936705C0936605F7016B
:10138000808191819E01281B390BC90137FF03C061
:1013900091958195910921E08B3091050CF420E025
:1013A000209365050B971CF4F701D183C08310923D
:1013B0006405DF91CF911F91FF90EF900C94DD07B2
:1013C000A897CFCF9F92AF92BF92CF92DF92EF922A
:1013D000FF920F931F93CF93DF93B82EEB01942EC0
:1013E0000E949D09882309F461C0911004C0CC2497
:1013F000C3948FE0B812C12C86E9A82ED12C0EE43C
:1014000012E09AE6E92E99E0F92E8B2D0E949D09B3
:10141000882331F128813981CC2099F1283899E04D
:1014200039072CF4265F3F4F3983288306C0F982A1
:10143000E882D11015C0DC2CC12C888199819920BB
:1014400071F190930E0180930D010E941F0863E2D9
:1014500070E080E090E00E94AA03AA94A110D5CF8A
:101460008B2D0E949D0991E08927DF91CF911F91DB
:101470000F91FF90EF90DF90CF90BF90AF909F9033
:101480000895213392E039071CF02A503109CCCF5E
:1014900019830883D110E4CFD82EC82ECECF9093D5
:1014A0000A01809309010E941508D1CF81E0DDCFA8
:1014B0002F923F924F925F926F927F928F929F9264
:1014C000AF92BF92CF92DF92EF92FF920F931F9352
:1014D000CF93DF9300D000D0CDB7DEB7582E811167
:1014E000CAC000910B0110910C01E0901101F09025
:1014F00012018EE0482E89E091E09C838B839FE06F
:10150000292EC9C03801E016F1060CF456C028E2B5
:10151000620E711C580167010E151F0534F0680139
:101520000E151F050CF46701570156EF852E9924FF
:101530009A94E016F1061CF44AE0842E912CC30123
:101540000A979A8389839AE0690E711CEB81FC816A
:1015500080819181E016F106A4F168167906B4F154
:10156000842D0E949D09811169C0822D0E949D09D0
:10157000882349F0452D6B817C81822D0E94E209F0
:10158000882309F491C080916C05552009F45FC04F
:101590001092AE041092AF041092B0041092B104F5
:1015A0001092BA041092BB041092BC041092BD04B5
:1015B000826080936C05352C78C038E2631A71081C
:1015C000AECF29813A818217930754F6842D0E9469
:1015D0009D098111C5CFEB81FC8180819181880DAE
:1015E000991D8A159B05F4F091838083EB81FC8122
:1015F00080819181C816D90614F4D182C082EB8112
:10160000FC8180819181552091F090930E0180930F
:101610000D010E941F0863E270E080E090E00E94EC
:10162000AA0394CFEB81FC81B182A082DFCF90939B
:101630000A01809309010E941508EDCF452D6B81A9
:101640007C81842D0E94E20981118FCF2DC01092E0
:10165000AA041092AB041092AC041092AD04109244
:10166000B6041092B7041092B8041092B9048460C2
:1016700080936C051AC000910F0110911001E09049
:101680001301F090140123E0422E2DE031E03C8361
:101690002B8334E0232E452D6B817C81842D0E9489
:1016A000E209382E81112ECF312C832D0F900F900F
:1016B0000F900F90DF91CF911F910F91FF90EF90BE
:1016C000DF90CF90BF90AF909F908F907F906F9062
:1016D0005F904F903F902F900895CF93C82F80FD3B
:1016E00007C081E0C1FF09C080E0CF910C94580A87
:1016F00081E00E94580A8111F4CFCF9108951F9381
:10170000CF93DF93182FEB010E949D09811105C033
:1017100081E0DF91CF911F91089580916A05811139
:101720000BC088819981873222E09207CCF00A971A
:101730009983888380E0EDCF88819981823929E07F
:10174000920714F40A96F4CF10926A058AE699E09B
:1017500099838883812F0E949D098111E2CFD8CF80
:101760008091C004882311F082E0D3CF81E0809380
:101770006A058093C0048EE492E099838883812F68
:101780000E949D09882321F288819981823929E06C
:101790009207C4F2E9CF8F929F92AF92BF92CF92FD
:1017A000DF92EF92FF92C090B204D090B304E09029
:1017B000B404F090B50420E030E0A901C701B601FF
:1017C0000E9482294B015C0180929A0490929B04B2
:1017D000A0929C04B0929D0423E333E347E852E4D3
:1017E000C701B6010E9482296B017C01C092960458
:1017F000D0929704E0929804F0929904AC019B0176
:10180000C501B4010E94602A181644F4C0929A04DB
:10181000D0929B04E0929C04F0929D04FF90EF9084
:10182000DF90CF90BF90AF909F908F900895CF9210
:10183000DF92EF92FF926B017C0120E030E0A90182
:101840000E94F72787FD11C020E030E044EB52E40E
:10185000C701B6010E94602A181654F4C12CD12C7D
:1018600084EBE82E82E4F82E03C0C12CD12C760143
:1018700020E030E044EB52E4C701B6010E94EE29BB
:1018800023E333E347E052E40E945D2820E030E0A8
:10189000A9010E948229FF90EF90DF90CF900895D8
:1018A000CF92DF92EF92FF926091BA047091BB04E5
:1018B0008091BC049091BD040E94170C6B017C01C7
:1018C0006091B6047091B7048091B8049091B90406
:1018D0000E94170C9B01AC01C701B6010E9482292E
:1018E000FF90EF90DF90CF900895E0916B05EE238D
:1018F00081F1009711F48CE391E0E15024E034E0B1
:10190000E73038F4F0E0EE0FFF1FE45EFE4F208179
:1019100031819F938F933F932F9381E491E09F9325
:101920008F931F9280E68F9382E095E09F938F9331
:101930000E94F42A80916205806180936205109272
:101940006B058DB79EB70A960FB6F8949EBF0FBE73
:101950008DBF0895CF92DF92EF92FF920F931F9366
:10196000CF9388E00E949402C82F0E94DC0320914C
:1019700001012C1751F0C093010160935904709339
:101980005A0480935B0490935C0400915904109175
:101990005A0420915B0430915C046B017C01C01AF5
:1019A000D10AE20AF30A97018601093111052105DE
:1019B000310580F0209100012C1761F0C0930001E7
:1019C000C11110C06093550470935604809357045E
:1019D00090935804CF911F910F91FF90EF90DF905B
:1019E000CF9008950091550410915604209157040A
:1019F00030915804601B710B820B930B6C3D75404A
:101A00008105910538F380916B0581111CC080918F
:101A10006C0583FD18C00E941609C82F0E94AC07F0
:101A200080916C05887F806280936C05CC2391F255
:101A300081ED91E0CF911F910F91FF90EF90DF909A
:101A4000CF900C94750CC1E0E9CFCF93DF93EC01FC
:101A50000E9491078091150180FF0BC090916C0549
:101A60009D7F90936C052EE436E030931401209313
:101A7000130181FF0BC090916C059B7F90936C05C7
:101A80002CEF37E0309312012093110190916C05F7
:101A9000977F906190936C051092C6041092C704D2
:101AA0001092C8041092C9040E94E60780916B0549
:101AB0008150833028F4CE01DF91CF910C94750CC6
:101AC000DF91CF910895CF92DF92EF92FF921F9313
:101AD000CF93DF93182FEB017A016901809169059B
:101AE00081110AC0812F0E949D09811131C081E0BE
:101AF000809369050E94DD07812F0E94BA07882321
:101B000009F450C0812F0E949D098823A9F12881E2
:101B100039818091660590916705F901E81BF90B01
:101B2000CF01815B9F4F8F39910530F1F7013183F0
:101B3000208320916A0588819981222369F18F345D
:101B4000F2E09F071CF088979983888381E048C062
:101B50008881998120916A05222381F0873222E0D1
:101B6000920714F00A970FC010926A058EE492E073
:101B7000998388830E94DD0780E032C0823949E082
:101B8000940724F40A9699838883F6CF81E08093A2
:101B90006A058AE699E0ECCF8A3629E09207B4F626
:101BA0008896D2CF8881998120916A05222301F1FC
:101BB000823949E0940734F38091680581110CC0A3
:101BC00081E08093680510926A052AE639E039833E
:101BD000288380936905CECFC6010E94250D82E03F
:101BE000DF91CF911F91FF90EF90DF90CF900895FC
:101BF000873252E095070CF0B5CF809168058111CE
:101C0000EBCF81E08093680580936A052EE432E093
:101C1000DECFDC0194E0FB0101900D929A95E1F793
:101C20000895FC0196E0A5E7B5E001900D929A9524
:101C3000E1F786E0EDE7F4E0ABE7B5E001900D9267
:101C40008A95E1F708958BE795E00E94110E6FE801
:101C500075E083E995E00E94090E61E775E08FE881
:101C600095E00E94090E0C94E00420E12093A40565
:101C7000009711F481E090E061E00E946704109207
:101C8000850588E2809386050E94230E84E0809378
:101C9000A5051092A60522E04CE150E06AE182E33E
:101CA0000E94920486E390E00C94F6050E944C0496
:101CB0000E94350EE5E7F5E086A190E0B0E0A0E0F7
:101CC000BA2FA92F982F882727A1820F911DA11D18
:101CD000B11DBA2FA92F982F882720A5820F911DFB
:101CE000A11DB11DBA2FA92F982F882721A5820FDA
:101CF000911DA11DB11D8093610490936204A09376
:101D00006304B09364040895CF93DF93EB0144E040
:101D100050E0BC0181E995E00E94A02A892B61F482
:101D200086E0EBE8F5E0DE0101900D928A95E1F79F
:101D300081E0DF91CF91089580E0FBCF0F931F9357
:101D4000CF938C0186E191E00E94110EE5E7F5E06A
:101D500088E08487C6E0C58748E050E06DE971E01F
:101D600083E895E00E943D24E5E9F5E0DF011D925E
:101D7000CA95E9F786E0EDE7F4E0ABE8B5E001905D
:101D80000D928A95E1F7B8018BE995E00E94090E62
:101D900061E775E081E995E00E94090E8AE290E032
:101DA000CF911F910F910C94F605FF920F931F9303
:101DB000CF93DF938C01009709F054C08091950474
:101DC000857099F080918B0490918C04892B69F433
:101DD0000E945606882349F087E894E00E949E0EF0
:101DE0008091950488608093950480918B049091F4
:101DF0008C04019690938C0480938B048DE894E07E
:101E00000E946F01882379F08091780481110BC0C2
:101E100080917704811107C08DE894E00E949E0EA6
:101E200081E08093770483E794E00E946F01811141
:101E300009C0D0E0C0E0CE01DF91CF911F910F919A
:101E4000FF900895809172048111F3CF8091710405
:101E50008111EFCF83E794E00E949E0E81E0809392
:101E60007104E7CF899728F380918105883009F7BD
:101E700080918205863009F0EAC044E050E061E7D5
:101E800075E08BE995E00E94A02A892B91F680915C
:101E90008A05813059F58BE795E00E94110E10926A
:101EA000890582E080938A0586E0EBE8F5E0A5E904
:101EB000B5E001900D928A95E1F786E0EDE7F4E058
:101EC000ABE8B5E001900D928A95E1F761E975E024
:101ED0008BE995E00E94090E61E775E081E995E0E4
:101EE0000E94090E8AE290E00E94F6058091950416
:101EF00083FF0DC0C0918A05C23049F46BE674E0DF
:101F000087E894E00E94840E8111C093950480912B
:101F10007804811111C080917704882369F065E607
:101F200074E08DE894E00E94840E882329F081E01B
:101F3000809378041092770480917204811179CF94
:101F400080917104882309F474CF65E674E083E717
:101F500094E00E94840E882309F46BCF81E0809383
:101F600072041092710465CF0633110508F461CF35
:101F7000863009F05ECF2091030130919905809160
:101F8000040190E03817190609F053CF80919A05A3
:101F900082134FCFF090A405F1FE39C01092850551
:101FA0008CE2809386050E94230E82E18093A40533
:101FB00060E081E090E00E94670410929B0510921F
:101FC0009C058091020180939D0510929E058D5F76
:101FD0008093020182E08093AB0584E08093AC059E
:101FE00085E08093AD051092AE0590E69093A30531
:101FF0008093A50588E78093A60522E040E250E0A3
:102000006AE182E30E9492048AE390E065C0F4FEF4
:1020100010CF0E944C04EC01892B91F0C091A305D4
:10202000D0E084E0D595C7958A95E1F7CC0FDD1F08
:10203000CC0FDD1FA2960C171D0708F0FCCEF9CEC1
:10204000F0FEF7CE90E080E00E94350EF4CE09322B
:10205000110509F4EECE8111ECCE80918305853413
:1020600009F0E7CE44E050E061E775E083E995E0F0
:102070000E94A02A892BA9F044E050E063E874E0B4
:1020800083E995E00E94A02A892B59F044E050E0B2
:1020900066E171E083E995E00E94A02A892B09F0AE
:1020A000C8CE80918C05813009F05ECF8091970574
:1020B000883009F0BECE0E94230E109297058091C1
:1020C0009905883F28F090919A059F5F90939A0513
:1020D000885F80939905C8010E94F605AACEBF9239
:1020E000CF92DF92EF92FF920F931F93CF93DF93E4
:1020F000EC018881882309F46CC0662369F0809123
:102100000005882349F086E3EAECF4E0A5E7B5E0B2
:1021100001900D928A95E1F7FE0101900020E9F708
:1021200031970E2F0C1B063F08F005EF162FBE014E
:10213000C02FD0E085E06B3A780729F0AE018BEA3A
:1021400095E00E94AD2ABB24B394B00EC555DA4F7A
:102150008AE088830E94560ECB2DD0E0C0906104A7
:10216000D0906204E0906304F0906404F0929B05C8
:10217000E0929C05D0929D05C0929E0588E18093D7
:10218000A405CE01889690938505075D009386058A
:102190000E94E0041092A7051092A805AE01445ECB
:1021A0005F4F22E06AE182E30E949204CE01C6966C
:1021B0000E94F605CB0CD11CE11CF11CC0926104FD
:1021C000D0926204E0926304F092640411111092C0
:1021D0000005DF91CF911F910F91FF90EF90DF905D
:1021E000CF90BF9008958091620584FF13C0982F0F
:1021F0009C7E909362058370813061F4809100052C
:1022000061E0811101C060E082E095E00E946F1002
:102210001092020508950F931F93CF93DF93EC0163
:10222000CB01BA018E0140E00E941B24CE01BC010B
:102230000196FB0120812032D1F3C617D70769F040
:1022400001900020E9F7AF01461B570BCE01DF914B
:10225000CF911F910F910C94B62ADF91CF911F91CE
:102260000F910895CF92DF92EF92FF920F931F93F9
:10227000CF93DF93CDB7DEB768970FB6F894DEBF84
:102280000FBECDBF80916B05882309F479C04091C2
:10229000BA045091BB046091BC047091BD048E01DE
:1022A0000F5E1F4F21E0C8010E940B114091B60440
:1022B0005091B7046091B8047091B9047E0189E02F
:1022C000E80EF11C21E0C7010E940B110E94500C86
:1022D0002091B2043091B3044091B4045091B504FC
:1022E0000E948229AB01BC0121E0CE0101966C0164
:1022F0000E940B116091090170910A0140910D013A
:1023000050910E0180916C0582FB992790F986957A
:102310008170E0916B05E15024E034E0E73038F45F
:10232000F0E0EE0FFF1FE45EFE4F208131817F93CE
:102330006F935F934F931F929F931F928F93DF92A0
:10234000CF92FF92EF921F930F933F932F938BE4C3
:1023500091E09F938F931F9280E68F9382E095E0A8
:102360009F938F930E94F42A8091620580618093ED
:10237000620510926B050FB6F894DEBF0FBECDBF9D
:1023800068960FB6F894DEBF0FBECDBFDF91CF9138
:102390001F910F91FF90EF90DF90CF900895CF9312
:1023A000C09115018C2F0E946D0B811123C0C0FFBD
:1023B0000FC083E00E949D09882329F08AE891E0FC
:1023C000CF910C94250D84E00E949D098111F6CFD8
:1023D000C1FF0DC08EE00E949D09882319F081E99C
:1023E00091E0EECF8FE00E949D098111F8CF83E943
:1023F00091E0E6CF6091090170910A0180910D0191
:1024000090910E010E947E088C2F0E94E607809119
:102410006C05877E80936C051092C6041092C704E9
:102420001092C8041092C90480916B0581508330CA
:1024300018F4CF910C943211CF9108954F925F927E
:102440006F927F928F929F92AF92BF92CF92DF92C4
:10245000EF92FF920F931F93CF93DF93C0916C0580
:10246000DC2FD870C3FD08C01092C6041092C704B8
:102470001092C8041092C9040E94DC036B017C0115
:102480008091910490919204A0919304B09194044E
:10249000892B8A2B8B2B41F4C0929104D092920409
:1024A000E0929304F09294048091910490919204AC
:1024B000A0919304B0919404A7019601281B390BB5
:1024C0004A0B5B0BCA01B9010E94FC2720E030E0F7
:1024D0004AE754E40E94EE294B015C01C09291044A
:1024E000D0929204E0929304F092940420E030E0C1
:1024F000A9010E94F727181644F08FE6882E82E182
:10250000982E83E8A82E8AE3B82EDD2309F459C259
:102510008091C6049091C704A091C804B091C904E9
:102520000097A105B10501F1C81AD90AEA0AFB0A08
:1025300030ECC31634EDD30631E0E306F104A0F02D
:1025400088E991E0DF91CF911F910F91FF90EF907B
:10255000DF90CF90BF90AF909F908F907F906F90C3
:102560005F904F900C94250D0E94DC03C090C20434
:10257000D090C304E090C404F090C5049B01AC016A
:102580002C193D094E095F0969017A0133E2C3162E
:10259000D104E104F10408F43EC36093C2047093D3
:1025A000C3048093C4049093C5048091BE04823018
:1025B00009F415C100F5882309F44EC0813009F4EF
:1025C000E8C06091090170910A0180910D0190911C
:1025D0000E01DF91CF911F910F91FF90EF90DF904F
:1025E000CF90BF90AF909F908F907F906F905F90B3
:1025F0004F900C947E08843009F4BDC108F440C1AA
:102600008530F9F660E089E091E00E94290888238E
:10261000C1F22DEA31E041E151E069E071E08EE084
:102620000E94630D813069F6809111019091120131
:1026300020910B0130910C01821B930B97FF03C07B
:10264000919581959109805591098D3C964008F0AE
:10265000EEC00E94CF11B5CF8091150180FD06C05C
:1026600083E08093BE041092C104ABCF8091C1047B
:10267000811129C083E00E949D0981110AC081E077
:102680008093C104109268051092BF040E94DD0778
:1026900098CF8091BF04811107C010926A051092F3
:1026A000C00481E08093BF046DE071E083E00E948C
:1026B0007F0B813021F3823009F083CF80EA91E0F3
:1026C0000E94250D7ECF84E00E949D098823F1F0B1
:1026D00084E00E94BA078823C9F080910D0190918F
:1026E0000E019093100180930F011092BA04109282
:1026F000BB041092BC041092BD0423E04DE051E0F5
:102700006EE476E00E94A50982E036C0C0910D011A
:10271000D0910E01CD3646E0D4078CF110926A05B7
:1027200084E00E949D0991E08927809369051092B9
:102730006805D0936705C093660580910D0190915F
:102740000E019E01281B390BC90137FF03C091956B
:102750008195910921E08B3091050CF420E02093C4
:1027600065050B9724F4D0930E01C0930D011092D0
:1027700064050E94DD0781E08093BE0422CF81E0E2
:1027800080936A05C13053E0D50754F2C6EFD2E01A
:10279000C7CF61E08DE091E00E942908882309F409
:1027A00010CF28EA31E04FE051E06DE071E084E0C5
:1027B0000E94630D813009F004CF1092BA04109288
:1027C000BB041092BC041092BD0423E04DE051E024
:1027D0006EE476E080910F019091100193CF61E05B
:1027E0008DE091E00E942908882309F4EACE2DEAC1
:1027F00031E043E151E06DE071E083E00E94630D60
:10280000813009F0DECE8091130190911401209166
:102810000F0130911001821B930B97FF03C091951C
:1028200081959109805591098D3C964018F082EB75
:1028300091E046CF81E00E946D0B811103C08AE8D0
:1028400091E03ECF80911501813091F4DF91CF91DD
:102850001F910F91FF90EF90DF90CF90BF90AF90BE
:102860009F908F907F906F905F904F900C94CF11BE
:1028700083E08093BE041092C1041092BF04A1CEE5
:102880008091150181FFE2CF8091C104811115C0B3
:102890008EE00E949D09882309F4F1CE8091BF0447
:1028A000811107C010926A051092C00481E08093E4
:1028B000BF0469E071E08EE0FACE8FE00E949D09CE
:1028C000811138C0C0910901D0910A0110926A05A6
:1028D000CA3148E0D4070CF44BC08FE00E949D0938
:1028E00091E089278093690510926805D093670568
:1028F000C09366058091090190910A019E01281BF1
:10290000390BC90137FF03C091958195910921E0E9
:102910008B3091050CF420E0209365050B9724F48F
:10292000D0930A01C0930901109264050E94DD074B
:1029300084E022CF8FE00E94BA07882319F28091A9
:10294000090190910A0190930C0180930B01109260
:10295000B6041092B7041092B8041092B9042EE095
:1029600049E051E06CEF77E00E94A50985E004CFD3
:10297000C4E2D8E0B2CF60E089E091E00E9429088B
:10298000882309F41ECE28EA31E04BE051E069E0EB
:1029900071E08FE00E94630D813009F012CE109239
:1029A000B6041092B7041092B8041092B9042EE045
:1029B00049E051E06CEF77E080910B0190910C01C0
:1029C000D3CFC0FF28C1209105013091060140916D
:1029D000070150910801C501B4010E945D284B0117
:1029E0005C0183E00E949D09C82E84E00E949D093D
:1029F0004091AE045091AF046091B0047091B10465
:102A0000E82E950184018AEB94E00E9481068EE015
:102A10000E949D09C82E8FE00E949D094091AA0442
:102A20005091AB046091AC047091AD04E82E950117
:102A300086EB94E00E94810680916B05845084307F
:102A400080F50E94DC036B017C0180915104909120
:102A50005204A0915304B09154040097A105B1050C
:102A6000A1F0A7019601281B390B4A0B5B0BDA0179
:102A7000C901803C944DA140B10538F00E94600727
:102A800088E991E00E94750C0CC00E941609811122
:102A900028C010924D0410924E0410924F041092D0
:102AA0005004C0916B05CC2309F4B5C00E941609EF
:102AB0008111B1C08BEF8C0F833008F08BC0DF9198
:102AC000CF911F910F91FF90EF90DF90CF90BF902B
:102AD000AF909F908F907F906F905F904F900C94ED
:102AE00032114090BA045090BB046090BC047090C6
:102AF000BD048090B6049090B704A090B804B09044
:102B0000B9042091490430914A0440914B045091FA
:102B10004C04C301B2010E9481299F772DEC3CEC4B
:102B20004CE45DE30E94F72787FF3BC020914504FA
:102B3000309146044091470450914804C501B401C6
:102B40000E9481299F772DEC3CEC4CE45DE30E94D0
:102B5000F72787FF26C080914D0490914E04A091E5
:102B60004F04B09150040097A105B10549F4C092FB
:102B70004D04D0924E04E0924F04F092500491CF55
:102B8000C81AD90AEA0AFB0A48EBC4164BE0D40675
:102B9000E104F10408F485CF0E9460078AEB91E01C
:102BA00071CF10924D0410924E0410924F04109267
:102BB00050044092490450924A0460924B0470922F
:102BC0004C048092450490924604A0924704B0922F
:102BD000480467CFC430F9F483E00E949D09811155
:102BE00014C080EC91E0DF91CF911F910F91FF9085
:102BF000EF90DF90CF90BF90AF909F908F907F909D
:102C00006F905F904F900C94750C8EE00E949D0920
:102C1000882339F354CFDF91CF911F910F91FF900B
:102C2000EF90DF90CF90BF90AF909F908F907F906C
:102C30006F905F904F900895EF92FF920F931F93C4
:102C4000CF93DF938C01EC0109900020E9F72197E5
:102C5000C017D10761F08A918D3039F08A3029F0A0
:102C600090E00E94D627892B11F01882F1CFE8015D
:102C7000FE0181917F01882329F090E00E94D627F0
:102C8000892BA1F4C017D10799F0FE010190002013
:102C9000E9F7AF014C1B5D0BBE01C801DF91CF917D
:102CA0001F910F91FF90EF900C94B62AE701E0CFAF
:102CB000DF91CF911F910F91FF90EF9008958F9228
:102CC0009F92AF92BF92CF92DF92EF92FF920F93BB
:102CD0001F93CF93DF936B017C018A01E90120E010
:102CE00030E0A9010E94F72787FD46C020E030E0D0
:102CF00044EB52E4C701B6010E94602A18160CF496
:102D00003FC0BE01601B710B072E000C880B990B96
:102D10000E94FE274B015C0120E030E044EB52E4CE
:102D2000C701B6010E94EE299B01AC01C501B401A7
:102D30000E945D280E94652A600F711F0C171D07F5
:102D40002CF4902F812F8E01C92FD82F6C177D075F
:102D50002CF0EB01061717070CF4E801CE01DF9108
:102D6000CF911F910F91FF90EF90DF90CF90BF9088
:102D7000AF909F908F900895C12CD12C7601C1CF38
:102D8000C12CD12C84EBE82E82E4F82EBACFCF935D
:102D9000DF93209111013091120140910B0150916C
:102DA0000C016091B6047091B7048091B8049091C1
:102DB000B9040E945F16EC012091130130911401B7
:102DC00040910F01509110016091BA047091BB04C1
:102DD0008091BC049091BD040E945F16BE01DF91FA
:102DE000CF910C947E08CF9380916305882321F0C6
:102DF000813021F01092AB05CF910895909100059C
:102E000091110DC096E3E5E7F5E0AAECB4E001907E
:102E10000D929A95E1F7809300050E94560EC0919D
:102E20006205C4FD20C080916C0583FD08C00E942E
:102E30001609811104C080916B058823D9F2809115
:102E40000105882321F00E948B050E94D50E0E9467
:102E5000AA0C0E941E1280916C0583FF0E94C71667
:102E60000E945309DCCF46EF50E062E075E08BEA48
:102E700095E00E94DA2ACF7EC0936205BDCFFF9213
:102E80000F931F93CF93DF93F82EC62FEFEFE80F2A
:102E9000F0E0EE0FFF1FE45EFE4F10810181809194
:102EA0006C0585FD8BC00E94AC0780916C0580FF8E
:102EB000A3C0D0916C058D2F8F7E80936C05F0920E
:102EC0006B05809162058C7F90916305892B8093BF
:102ED0006205D0FF30C18C2F0E94D208C09315012B
:102EE0000C2F02701C2F1170C0FF8AC0D1FD88C04A
:102EF000DD7ED0936C058EE496E090931401809370
:102F00001301F02E0111AAC0D0916C058D2F8F7E78
:102F1000886080936C050E94DC036093C604709304
:102F2000C7048093C8049093C9041092C2041092FD
:102F3000C3041092C4041092C5041092C10481E02D
:102F400080936A0510926905109268051092C0047A
:102F50001092BF041092650510926405C23009F00A
:102F6000C9C083E08093BE04FF20D9F020911101F5
:102F70003091120140910B0150910C0160E070E022
:102F8000CB01D2FF08C06091B6047091B704809164
:102F9000B8049091B9040E945F1690930A0180933F
:102FA00009016091090170910A0180910D019091D0
:102FB0000E010E947E080E94DD0781C00F931F93BF
:102FC0008AEC91E09F938F931F9286EF8F938BEA09
:102FD00095E09F938F930E94F42A8DB79EB7089631
:102FE0000FB6F8949EBF0FBE8DBF80E0DF91CF91EA
:102FF0001F910F91FF900895816080936C0559CFC8
:10300000F02E002329F0D2FD20C0112339F170CF1A
:10301000C130D9F484E00E949D09882309F468CF67
:10302000809113019091140120910F0130911001B2
:10303000821B930B97FF03C0919581959109805551
:1030400091098D3C964010F153CFC23099F48FE036
:103050000E949D0981111CC082E0F82E80916C05B0
:103060008B7F80936C058CEF97E090931201809397
:1030700011014ACF84E00E949D098823B9F18FE0B5
:103080000E949D09882391F11111CACF0023A9F054
:10309000809111019091120120910B0130910C014E
:1030A000821B930B97FF03C09195819591098055E1
:1030B00091098D3C964008F0A8CF0E94CF118091D5
:1030C0006C0583FD52C00E943211C0916205C4FF9D
:1030D0000BC046EF50E062E075E08BEA95E00E949D
:1030E000DA2ACF7EC093620581E080CF112309F4F4
:1030F00008CFFECE1092BE04112309F435CF2091E3
:1031000013013091140140910F015091100160E0C2
:1031100070E0CB01D1FF08C06091BA047091BB048C
:103120008091BC049091BD040E945F1690930E01A3
:1031300080930D0119CF10926B050F931F9387EDAC
:1031400091E09F938F931F9286EF8F938BEA95E088
:103150009F938F930E94F42A8DB79EB708960FB65F
:10316000F8949EBF0FBE8DBF40CF0E94F316BCCF18
:103170000F931F93CF93DF93CDB7DEB72E970FB684
:10318000F894DEBF0FBECDBF0097C1F1FC012081D6
:103190002223A1F18B01BC014DE050E0CE0101964C
:1031A0000E94DA2A1E86CE0101960E941C16FE019C
:1031B00031969EE28191882331F08C32D9F7DF017C
:1031C00011979C93F7CFCE0101960E943924282FA6
:1031D000220F292F221F2F3F89F0F801608371836E
:1031E0008283938381E02E960FB6F894DEBF0FBEE4
:1031F000CDBFDF91CF911F910F91089580E0F3CF64
:10320000AF92BF92CF92DF92EF92FF920F931F93F4
:10321000CF93DF93CDB7DEB7A8970FB6F894DEBF94
:103220000FBECDBF009791F07A016B01BC0147E260
:1032300050E0CE0101960E94DA2A18A660E270E002
:10324000CE0101960E94E92A009711F410E034C0E3
:10325000FC0111928F015801F80181918F0188239F
:1032600029F090E00E94D627892BA9F7B601CE015C
:1032700001960E94B818882349F3B701C5010E943E
:10328000B818882319F3F701C080D180E280F38059
:1032900020E030E0A901C701B6010E94602A18169B
:1032A000ACF611E020E030E040EF52E4C701B60197
:1032B0000E94F727181654F2812FA8960FB6F8949B
:1032C000DEBF0FBECDBFDF91CF911F910F91FF9059
:1032D000EF90DF90CF90BF90AF9008951F920F9224
:1032E0000FB60F9211242F933F938F939F93AF9319
:1032F000BF938091A2049091A304A091A404B091E3
:10330000A5043091A10423E0230F2D3758F5019631
:10331000A11DB11D2093A1048093A2049093A30446
:10332000A093A404B093A5048091A6049091A7044F
:10333000A091A804B091A9040196A11DB11D80938C
:10334000A6049093A704A093A804B093A904BF91E6
:10335000AF919F918F913F912F910F900FBE0F9042
:103360001F90189526E8230F0296A11DB11DD2CFFC
:103370001F920F920FB60F9211242F933F934F93EA
:103380005F936F937F938F939F93AF93BF93EF93CD
:10339000FF9381EA96E00E94CB01FF91EF91BF91EC
:1033A000AF919F918F917F916F915F914F913F91DD
:1033B0002F910F900FBE0F901F9018951F920F9294
:1033C0000FB60F9211242F938F939F93EF93FF9338
:1033D000E091B106F091B2068081E091B706F091DC
:1033E000B80682FD1BC090818091BA068F5F817004
:1033F0002091BB06821741F0E091BA06F0E0EF554C
:10340000F94F958F8093BA06FF91EF919F918F911D
:103410002F910F900FBE0F901F9018958081F4CFC1
:103420001F920F920FB60F9211242F933F934F9339
:103430005F936F937F938F939F93AF93BF93CF933C
:10344000DF93EF93FF9380917904C091E606D0E07B
:1034500087FF24C010928500109284008091790427
:103460008F5F8093790480917904082E000C990B6A
:103470008C179D0724F4809179048C30C4F18091DD
:10348000840090918500049680349C4908F47AC0A9
:103490008091840090918500049676C08091790493
:1034A000082E000C990B8C179D07C4F6E091790447
:1034B0008E2FEE0F990BFC01EE0FFF1FE80FF91F87
:1034C000EE53F94F808186FFC9CFE09179048E2FAA
:1034D000EE0F990BFC01EE0FFF1FE80FF91FEE53E3
:1034E000F94F808160E08F730E94BD02B7CF2091B9
:1034F000840030918500E09179048E2FEE0F990BB6
:10350000FC01EE0FFF1FE80FF91FEE53F94F818109
:103510009281820F931F9093890080938800E0919D
:1035200079048E2FEE0F990BFC01EE0FFF1FE80FB1
:10353000F91FEE53F94F808186FF11C0E0917904A5
:103540008E2FEE0F990BFC01EE0FFF1FE80FF91FF6
:10355000EE53F94F808161E08F730E94BD02FF91AD
:10356000EF91DF91CF91BF91AF919F918F917F911B
:103570006F915F914F913F912F910F900FBE0F90E0
:103580001F90189580E49CE99093890080938800AF
:103590008FEF80937904E3CFCF92DF92EF92FF9287
:1035A000CF93DF936B017C01EA018E2D880F8F2D65
:1035B000881F8F3F09F450C027E137EB41ED58EBEE
:1035C000C7010E94F72787FD47C029E334E347E09E
:1035D00052E4C701B6010E94602A1816ECF120E0FF
:1035E00030E0A901C701B6010E94F72787FD30C06E
:1035F00023E333E347E052E4C701B6010E94602AA7
:1036000018163CF483E3C82EDC2C87E0E82E82E415
:10361000F82E23E333E347E052E4C701B6010E94EA
:10362000EE2920E030E044EB52E40E945D2820E0E7
:1036300030E0A9010E948229688379838A839B8371
:1036400081E0DF91CF91FF90EF90DF90CF900895D0
:10365000C12CD12C7601DDCF80E0F3CF0E94DC03BA
:1036600060935104709352048093530490935404D4
:1036700010924D0410924E0410924F041092500478
:103680008091BA049091BB04A091BC04B091BD0498
:103690008093490490934A04A0934B04B0934C0444
:1036A0008091B6049091B704A091B804B091B90488
:1036B0008093450490934604A0934704B093480434
:1036C0000895CF92DF92EF92FF92CF93282F220F8F
:1036D000292F221F2F3F51F16B017C0127E137EB8E
:1036E00041ED58E360919A0470919B0480919C0491
:1036F00090919D040E948129A70196010E94F727BD
:103700001816A4F027E137EB41ED58E360919604D9
:103710007091970480919804909199040E94822955
:10372000C1E0A70196010E94602A87FDC0E08C2FAE
:10373000CF91FF90EF90DF90CF9008952F923F921E
:103740004F925F926F927F928F929F92AF92BF92B1
:10375000CF92DF92EF92FF920F931F93CF93DF935D
:1037600000D000D0CDB7DEB7382E6A017B0128012A
:103770003901EFEFE80FF0E0EE0FFF1FE45EFE4FC0
:103780000081218080916C0585FD07C084FF32C0D7
:103790002F920F9385EE91E004C02F920F938AEC45
:1037A00091E09F938F931F9286EF8F938BEA95E022
:1037B0009F938F930E94F42A0FB6F894DEBF0FBE3A
:1037C000CDBF10E0812F0F900F900F900F90DF91E1
:1037D000CF911F910F91FF90EF90DF90CF90BF900E
:1037E000AF909F908F907F906F905F904F903F90A1
:1037F0002F9008950E94AC0710916C05812F816075
:1038000080936C0596E081E0391621F087E0381648
:1038100081F083E00E94D208812F887229F496E01B
:10382000391209C011FD2AC12F920F9382EF91E046
:10383000B8CF82E0EFCF87E0381235C012FFF4CF67
:103840002091B2043091B3044091B4045091B50476
:10385000C701B6010E9481294B015C0197E0391232
:1038600027C06091BA047091BB048091BC04909110
:10387000BD040E94170C9B01AC018A2D880F8B2D73
:10388000881F8F3F59F0C501B4010E94812920E0B3
:1038900030E0A9010E94F72787FF0AC02F920F93FB
:1038A00086E192E07ECF1670163009F0BDCFC8CF0A
:1038B0008E2D880F8F2D881F8F3F29F42F920F9305
:1038C00089E292E06ECF8A2D880F8B2D881F8F3F63
:1038D000A9F395E0391281C020E030E040E05FE3D9
:1038E000C501B4010E945D28AE014F5F5F4F0E9489
:1038F000CC1A182F882311F389809A80AB80BC8062
:1039000020E030E0A901C501B4010E94F72787FD3E
:103910008FC020E030E044EB52E4C501B4010E94C6
:10392000602A181634F4812C912C24EBA22E22E468
:10393000B22E89829A82AB82BC822AE037ED43E2C2
:103940005CE3C301B2010E94F72787FD75C020E048
:1039500030E040EF52E4C301B2010E94602A181621
:1039600034F4412C512C90EF692E92E4792E409240
:10397000050150920601609207017092080196E0DD
:10398000391263C08092AE049092AF04A092B0044A
:10399000B092B10430926B05809162058C7F90915A
:1039A0006305892B809362050E942E1B0E941609D5
:1039B000082F81115FC00E9432110091620504FF3F
:1039C00001CF46EF50E062E075E08BEA95E00E949F
:1039D000DA2A0F7E00936205F5CE86E038121FC00A
:1039E0006091B6047091B7048091B8049091B904C5
:1039F0000E94170C9B01AC01C501B4010E948129F2
:103A00004B015C0120E030E0A9010E94F72787FD0F
:103A100055CFAE014F5F5F4FC501B40168CF6091D4
:103A2000BA047091BB048091BC049091BD04E0CFB6
:103A3000812C912C54017DCF8AE0482E87ED582EA1
:103A400083E2682E8CE3782E92CF87E0381209C08B
:103A50008092AA049092AB04A092AC04B092AD0400
:103A600099CF8092AE049092AF04A092B004B0922D
:103A7000B104EECF0E94F316102FA4CE2091B20411
:103A80003091B3044091B4045091B504C701B6011C
:103A90000E9481294B015C016091B6047091B704CA
:103AA0008091B8049091B9040E94170C9B01AC015D
:103AB0008A2D880F8B2D881F8F3F59F0C501B401C7
:103AC0000E94812920E030E0A9010E94F72787FFAA
:103AD000EFCE2F920F9383E092E063CE1092A40674
:103AE0001092A30688EE93E0A0E0B0E08093A506D4
:103AF0009093A606A093A706B093A8068EE291E045
:103B00009093A2068093A10685EC90E09093AE0678
:103B10008093AD0684EC90E09093B0068093AF065E
:103B200080EC90E09093B2068093B10681EC90E037
:103B30009093B4068093B30682EC90E09093B6061F
:103B40008093B50686EC90E09093B8068093B70614
:103B50001092BA061092BB061092BC061092BD06D7
:103B60008091E6068C3048F591E0980F9093E60638
:103B70008093EA0690E0FC01EE0FFF1FE80FF91FAB
:103B8000EE53F94F88EB9BE0928381838091E606A8
:103B90008C30B8F491E0980F9093E6068093E70696
:103BA00090E0FC01EE0FFF1FE80FF91FEE53F94FF5
:103BB00088EB9BE09283818308958FEF8093EA06E0
:103BC000E5CF8FEF8093E7060895CF93DF93CDB7CE
:103BD000DEB7C257D1090FB6F894DEBF0FBECDBF16
:103BE000789484B5826084BD84B5816084BD85B5D8
:103BF000826085BD85B5816085BD80916E008160E4
:103C000080936E0010928100809181008260809389
:103C1000810080918100816080938100809180008B
:103C20008160809380008091B10084608093B100B6
:103C30008091B00081608093B00080917A008460B0
:103C400080937A0080917A00826080937A008091DC
:103C50007A00816080937A0080917A0080688093F6
:103C60007A001092C10062E084E00E94EB0262E000
:103C700083E00E94EB0262E08FE00E94EB0262E0D0
:103C80008EE00E94EB0261E085E00E94EB0261E0C1
:103C900086E00E94EB0261E087E00E94EB0262E0B6
:103CA00088E00E94EB021092C1000E94CB0B8EE1D3
:103CB00093E09093100180930F0186ED94E0909330
:103CC0000C0180930B018EE496E090931401809395
:103CD00013018CEF97E090931201809311012EE471
:103CE00036E04EE153E060E070E0CB010E945F16E9
:103CF00090930E0180930D012CEF37E046ED54E0D8
:103D000060E070E0CB010E945F1690930A018093FF
:103D1000090183E00E94D2086091090170910A01B3
:103D200080910D0190910E010E947E0883E00E9417
:103D3000E6070E94DC0360939104709392048093E1
:103D4000930490939404E1EBF1E0DE011196CE012F
:103D50000796AA2E9B2E24912D933196A817B9076A
:103D6000D1F786E0EA2DF92DADE7B4E001900D9290
:103D70008A95E1F78CE291E090937C0480937B0438
:103D80008AE080937A040CB406FC24C061E00E94AF
:103D9000EB0261E08AE00E94BD0261E08BE00E94DC
:103DA000EB0261E08DE00E94EB0260E08CE00E949B
:103DB000EB0261E08BE00E94BD0260E08BE00E94BC
:103DC000BD0260E08DE00E94BD0280E58CBD8DB536
:103DD00081608DBD61E080917A040E94EB020E94B7
:103DE000F4044FEF60E08FEF0E94280562E070E07E
:103DF00080E090E00E94AA030E94FB048DE10E94F3
:103E0000EF0480E00E94EF041EB50E94F40410FF4E
:103E1000F3CF70E060E088E00E94660570E060E04B
:103E20008CE00E9466056FEF7BE08AE00E946605E9
:103E300060E07CE084E00E9466056FEF71E186E05F
:103E40000E94660566E774E084E10E946E0661EBFD
:103E500088E30E9459056FE370E388E20E946605DB
:103E600069EF77EF80E30E94660561E080EC0E94D5
:103E7000590542E362EC80E80E94280562E17CE09B
:103E800086EC0E94660562E184EC0E9459056CEDA7
:103E900075E08AEC0E94660560917D0484EE0E94C4
:103EA000590560917E0485EE0E94590560917F045A
:103EB00082EE0E9459056091800483EE0E945905AC
:103EC0006091810480EE0E9459056091820481EE28
:103ED0000E94590560E071E080E10E946E068FE16A
:103EE0000E943D0540EC6BE180E80E94280544E01B
:103EF0006FE180E80E94280582E70E947305863002
:103F000008F08F5F882309F47DC0AE01435C5F4FEA
:103F10009E012B5C3F4FDE01959690E080E0BA0158
:103F200079018D01FC01E355FE4FD490FA01D19245
:103F3000AF01FC01E755FE4FD490F901D1929F01EA
:103F4000FC01EB55FE4FE491ED9301968430910511
:103F500049F781E795E00E94090E10928C041092B7
:103F60008B0481E080939504B70187E894E00E9478
:103F7000090EB8018DE695E00E94090EE1E7F5E033
:103F80002DE635E063E874E045E755E09191D9010D
:103F90008D919D018095892BDB018D93BD014E177D
:103FA0005F07A1F781EF9FE19093040180930301E4
:103FB00081E08093010583E080939E040E94DC03EE
:103FC0006B017C018091950481FD0FC00E948B05DF
:103FD0000E94D50E0E94DC036C197D098E099F0991
:103FE000683873418105910568F380919E04909132
:103FF000950491FDA6C0826080939E040E9456069F
:104000008093A0040E947109FE01E35AFF4FA79616
:10401000FFAFEEAFA7979E012B5A3F4FA9963FAF38
:104020002EAFA997AE01435B5F4FAB965FAF4EAF2C
:10403000AB97CE018B5B9F4FAD969FAF8EAFAD9789
:1040400080910105882309F4B0C30E94560680932D
:10405000A0040E948B058C01C09790F08091990577
:104060008F3171F480919A05813F51F48091A405BC
:10407000837031F01092000510929F041092020597
:10408000C8010E94D50E1C0180919E0481FF07C0CB
:104090009091950491FF03C08D7F80939E0421141D
:1040A000310409F482C3D801A219B309E196BFAF64
:1040B000AEAFE197F101EB58FA4FAF96FFAFEEAF1D
:1040C000AF976E01F5E3CF0ED11C7E012DE3E20E1A
:1040D000F11CAF968EAD9FADAF97821993098557AE
:1040E0009540E1964EAD5FADE1978417950708F0D6
:1040F0005CC3AF96AEADBFADAF971D91AF96BFAFEE
:10410000AEAFAF971A3009F46CC31D3011F3809134
:10411000620584FD0E94F310E0919F04E03408F4EE
:104120003BC310929F0446EF50E06EEE73E08BEAC3
:1041300095E00E94DA2A60E08BEA95E00E946F1019
:10414000C8CF8D7F59CF60E270E082E095E00E9499
:10415000C82A009709F01EC14FE050E062E075E008
:10416000CE0185960E94DA2A1CAA198210920205B5
:104170001092AB0589810A2D192D811102C010E022
:1041800000E08DA1882309F439C169E272E0CE0113
:1041900085960E94462446EF50E06EE372E0892B3C
:1041A00009F450C162E272E0CE0185960E94462475
:1041B000892B09F011C14091BA045091BB04609160
:1041C000BC047091BD0421E0CE01835A9F4F0E9430
:1041D0000B114091B6045091B7046091B8047091EE
:1041E000B90421E0CE018B5A9F4F0E940B110E940F
:1041F000500C2091B2043091B3044091B40450911A
:10420000B5040E948229AB01BC0121E0CE01835B91
:104210009F4F0E940B1140919A0450919B04609112
:104220009C0470919D0421E0CE018B5B9F4F0E9406
:104230000B114091960450919704609198047091ED
:10424000990421E0C7010E940B114091B2045091E2
:10425000B3046091B4047091B50422E0C6010E94D9
:104260000B110E94160910916C0501E0811108C024
:1042700080916B0501E013FD03C0811101C000E0D6
:10428000B090BE04B39413FFB12CF0910901E296F3
:10429000FFAFE29720910A01E3962FAFE39750908A
:1042A0000D0140900E018EE00E949D09682E8FE066
:1042B0000E949D09782E83E00E949D09882E84E04B
:1042C0000E949D09212FE3964FADE3974F93E2960D
:1042D0005FADE2975F934F925F921F926F921F9232
:1042E0007F921F928F921F928F9311701F921F9334
:1042F000DF92CF92FF92EF92AD968FADAD978F93F5
:10430000AC969FADAC979F9325FB882780F91F92B1
:104310008F9324FB882780F91F928F9380916B05E0
:104320001F928F9322FB882780F91F928F932695E7
:1043300021701F922F931F92BF921F920F93AB96E3
:10434000AFADAB97AF93AA96BFADAA97BF93A9960F
:10435000EFADA997EF93A896FFADA897FF93A79607
:104360002FADA7972F93A6963FADA6973F9343E413
:1043700052E05F934F931F9286EF8F938BEA95E005
:104380009F938F930E94F42A0FB6F894DEBF0FBE5E
:10439000CDBF34C0DC011D928D014FE050E062E0E2
:1043A00075E0CE0185960E94DA2A1CAA802EB12ED5
:1043B000F80181918F01882329F090E00E94D6278F
:1043C000892BA1F743E250E0682D7B2D8A2D992D92
:1043D0000E94DA2A1CA2CACE6DE172E0CE01859657
:1043E0000E944624892B99F580916B058823E1F082
:1043F0000E94AC0780EE92E00E94750C80916205ED
:1044000084FD0E94F3108091AB05882351F08091C8
:10441000000561E0811101C060E08BEA95E00E9437
:104420006F1010929F0455CE80916C0583FDE0CFF4
:104430000E9416098111DCCF0E94AC0746EF50E0C4
:1044400068EE72E08BEA95E00E94DA2AD7CF67E146
:1044500072E0CE0185960E944624892BD9F4809182
:104460006B05811115C080916C0583FD11C00E9400
:104470001609182F0E94AC0780916C05887F806216
:1044800080936C05112309F4D1C181ED91E0B4CF83
:1044900011E0F0CF6EE072E0CE0185960E944624D6
:1044A000892BE9F410916C05812F8F7C80936C052A
:1044B00084E00E949D09811103C01D7C10936C054E
:1044C0008FE00E949D09811105C080916C058B7F52
:1044D00080936C0546EF50E060EF72E0B3CF63E08D
:1044E00072E0CE0185960E944624892B29F501159C
:1044F000110539F46CEF72E08BEA95E00E94D32A43
:104500007DCFB601C8010E94B818882399F30E9494
:10451000AC078DA99EA9AFA9B8AD8093B2049093C2
:10452000B304A093B404B093B5040E94CB0B46EF40
:1045300050E060E173E086CF6EEF71E0CE018596CA
:104540000E944624892B29F463E081E00E943F17F2
:1045500055CF63EF71E0CE0185960E944624892BEA
:1045600019F461E082E0F2CF68EE71E0CE01859649
:104570000E944624892B19F462E083E0E7CF6CEDBA
:1045800071E0CE0185960E944624892B09F085C0F2
:1045900080916C0585FF12C0EEE1F3E0FF93EF938D
:1045A0004AEC51E05F934F931F9286EF8F938BEA13
:1045B00095E09F938F930E94F42AE6CE84FF07C074
:1045C000EEE1F3E0FF93EF9345EE51E0EBCF0E9475
:1045D000AC0780916C05816080936C0583E00E943C
:1045E000D2080E9463096AE273E0882309F484CF49
:1045F0008091620520E030E044EB52E42093AE0469
:104600003093AF044093B0045093B1042093AA04B4
:104610003093AB044093AC045093AD0420E030E001
:1046200044E352E4209305013093060140930701CF
:104630005093080194E090936B058C7F90916305F3
:10464000892B809362050E942E1B0E9416098111FE
:1046500021C083E00E949D098823B9F08EE00E946A
:104660009D09882391F00E9432111091620514FF78
:10467000C5CE46EF50E062E075E08BEA95E00E941F
:10468000DA2A1F7E10936205B9CE80EC91E00E9479
:10469000750CEBCF0E94F316B1CE61ED71E0CE0147
:1046A00085960E944624892B11F5A601B701C80101
:1046B0000E94001964E473E0882309F41DCFD70138
:1046C0004D905D906D907C90C301B2010E94611B82
:1046D00068E573E0882309F40FCF0DA91EA92FA95F
:1046E00038ADB301A20185E00E949E1B87CE64EC29
:1046F00071E0CE0185960E944624892B01F5A60122
:10470000B701C8010E94001966E773E0882309F425
:10471000F3CEF7014080518062807380C301B20103
:104720000E94611B6CE873E0882309F4E5CE0DA9B3
:104730001EA92FA938ADB301A20186E0D5CF67EB42
:1047400071E0CE0185960E944624892B01F5A601D1
:10475000B701C8010E9400196CEA73E0882309F4CC
:10476000CBCED7014D905D906D907C90C301B2018E
:104770000E94611B811103C062EC73E0BDCE0DA9E4
:104780001EA92FA938ADB301A20187E0ADCF46EF36
:1047900050E062EE73E056CE81E08E0F80939F046E
:1047A000F0E0EE5FFA4F108394CC0E94AA0C0E94B6
:1047B0001E1280916C0583FF0E94C7160E94530948
:1047C0000E94F3100E94710980E090E0892B09F4A7
:1047D00037CC0E945702882309F42BCC0E9400009A
:1047E00028CC80919F04E82FF0E0EE5FFA4F108212
:1047F000882309F416CE8091620584FD0E94F3108F
:1048000081E08093630582E095E00E941C1602E03F
:1048100015E0F80181918F01882309F494CC90E090
:104820000E94982AF80131978083F3CF46EF50E039
:1048300067EF73E007CEEF920F931F93CF93DF9351
:10484000E80134E047FD34E1042E000C550B57FF1E
:1048500003C0519541955109E32E022F242FAE013B
:104860000E944F24CE01DF91CF911F910F91EF90C5
:104870000895662777270C94AE25FB01DC0102C062
:1048800005900D9241505040D8F70895FB01DC018E
:104890008D91059080190110D9F3990B0895A9E025
:1048A000B0E0E5E5F4E20C942F296A01F22EB02E77
:1048B000102FFBE3AF2EA01608F41BE31F5F012FA0
:1048C00027E0AE014F5F5F4F0E94FE26BC01898149
:1048D000982F9970913009F43FC09BE2E1FC04C02D
:1048E0009E2D9170E0FC3AC05E2D5071E82FE8706B
:1048F00083FF46C084E0911101C083E0EF2DE81BE7
:104900008F1508F0E0E0D6018E2F20E2552351F1FB
:10491000992329F0D6019C93C60101966C0196015A
:104920002D5F3F4FE2FE24C08EE4D6018C9391E4CC
:1049300011969C93119712968C93D9018E2F90E229
:1049400081111BC0E20FF32FF11D10828EEF9FEF3C
:104950002996ECE00C944B299DE2C6CF90E2C4CF9F
:104960002D9381508111FCCFCE0ED11CE0E0D0CF31
:104970008EE6D6018C9391E6DBCF9D938150E0CFFC
:10498000482F447082FF3DC084E0911101C083E054
:104990008F1510F4EF2DE81BD6018E2F20E2552342
:1049A00009F1992329F0D6019C93C60101966C0167
:1049B00096012D5F3F4FE2FE1BC089E4D6018C9328
:1049C0008EE411968C93119786E412968C93D901FC
:1049D0008E2F90E2882309F4B5CF9D938150FACFB2
:1049E0002D9381508111FCCFCE0ED11CE0E0D9CFA8
:1049F00089E6D6018C938EE611968C93119786E604
:104A0000E4CF9B0177FF02C030E020E0A1E0B0E0FE
:104A1000911102C0B0E0A0E0F9013196AE0FBF1FC6
:104A20008B2C912CBB2009F461C05401EFEFAE1A1E
:104A3000BE0AAA0DBB1DFA161B0619F014F04F2D65
:104A40004A1B511188C0E3FC59C07601A42FB0E283
:104A5000A1114FC0C40ED11C992309F45BC040E0E2
:104A6000D6011196F60190836D01552309F448C0D3
:104A7000012F060F9A81582F507184FF03C0913384
:104A800009F4015010160CF047C0093008F008E096
:104A9000EEE2FE2E5B01A01AB1088501919481948B
:104AA00091082F3F320729F4D601FC92F601319686
:104AB0006F016217730794F1021713077CF5DB018E
:104AC000A21BB30BAA24A394B12CAC0EBD1EAA0D3D
:104AD000BB1D11968C9121503109D60111962815D4
:104AE0003905F4F0F60180836D01DBCFB12CA12CE8
:104AF000A0CFF701B1937F01A150AACF9111B0CF00
:104B0000D601942F50E302C05D9391509111FCCFD8
:104B1000C40ED11C40E0ACCF01E0BACF80E3DBCFC4
:104B20006217730731F4963388F4953311F45523E3
:104B300069F0F6018083FD01842F90E2811108C0A5
:104B4000A40FB11D1C9290E080E002CF81E3F1CF71
:104B500091938150F3CF911183CF8ACFB0E0A0E041
:104B6000E4EBF5E20C942F295C017B0161157105E2
:104B700019F0DB018D939C9385010F5F1F4FF501A9
:104B8000D0818D2F90E00E94D6276C01892BB9F53A
:104B9000DD32B9F50F5F1F4FD5011196DC91C1E0F1
:104BA0005801F1E0AF1AB10843E050E060E770E06F
:104BB000C5010E94DF27892B69F5680182E0C80ED4
:104BC000D11C45E050E06BE670E0C6010E94DF2793
:104BD000892B21F4680197E0C90ED11CE114F1047E
:104BE00019F0D701CD92DC9260E070E080E89FEF91
:104BF000C111FFC060E070E080E89FE7FAC0580193
:104C0000BBCFDB3229F485010E5F1F4FF501D18147
:104C1000C0E0C6CF43E050E068E670E0C5010E9406
:104C2000DF27892BE9F0F80110E000E020E030E018
:104C3000A9015F01B0ED8B2E8D0E89E08815C8F1BA
:104C40009C2E689491F88C2F8870C2FF16C0811139
:104C500002C00F5F1F4F3196D501DC91C92DE9CFFE
:104C6000E114F10429F00E5F1F4FF7011183008357
:104C700060E070E080EC9FE7BCC0882311F0015039
:104C80001109A5E0B0E00E941E299B01AC01220F92
:104C9000331F441F551F280D311D411D511D28393B
:104CA00099E93907490799E15907A8F2C6609C2E8E
:104CB000D2CFAEEF8A1206C0C3FD3CC09C2E6894D2
:104CC00093F8C9CFDF7DD534A9F580818D3239F4D1
:104CD000C061DF011296818162E070E006C0DF01F1
:104CE0008B32C1F3119661E070E080535D01A61A2A
:104CF000B70A8A30F8F4E0E8CE16ECE0DE065CF4A1
:104D0000B601660F771F660F771FC60ED71ECC0C35
:104D1000DD1CC80ED11C5D01FFEFAF1ABF0A8C91DC
:104D200080538A30A8F1C4FF03C0D194C194D10844
:104D30000C0D1D1DC1FF09C0E114F10431F081E02B
:104D4000A81AB108D701AD92BC92CA01B9010E945C
:104D5000FC27C370C33009F490584B015C0120E07C
:104D600030E0A9010E94F727882309F440C0CFE969
:104D7000D0E017FF05C0119501951109C7E8D0E0F3
:104D80006E01B8E1CB1AD10880E2E82EF12C0FC0F9
:104D9000D501B1CFFE0125913591459154910E1960
:104DA0001F09C501B4010E945D284B015C01D501BA
:104DB000C4010E151F0574F72497F594E794CC16DB
:104DC000DD06A9F78A2F880F8B2F881F8F3F49F0A8
:104DD00020E030E0A901C501B4010E94F72781114C
:104DE00006C082E290E09093EE068093ED06C50146
:104DF000B401CDB7DEB7ECE00C944B29283008F0B5
:104E000027E03327DA01990F311D87FD9160009665
:104E10006105710539F432602E5F3D9330E32A95C8
:104E2000E1F708959F3F30F080387105610509F082
:104E30003C5F3C5F3D93913008F08068911DDF93AB
:104E4000CF931F930F93FF92EF92192F987F969510
:104E5000E92F96959695E90FFF27E350FF4F992785
:104E60003327EE24FF24A701E70105900894079457
:104E700028F4360FE71EF81E491F511D660F771FD5
:104E8000881F991F0694A1F70590079428F4E70E50
:104E9000F81E491F561FC11D770F881F991F661FD7
:104EA0000694A1F70590079428F4F80E491F561FA1
:104EB000C71FD11D880F991F661F771F0694A1F782
:104EC0000590079420F4490F561FC71FD81F990F4C
:104ED000661F771F881F0694A9F784911095177095
:104EE00041F0D695C79557954795F794E7941A954D
:104EF000C1F7E3EAF0E0689415901591359165915A
:104F0000959105907FE27395E118F10A430B560BDA
:104F1000C90BD009C0F7E10CF11E431F561FC91F72
:104F2000D01D7EF4703311F48A95E6CFE8940150D9
:104F300030F0080F0AF40027021708F4202F2395F9
:104F4000022F7A3328F079E37D932A95E9F710C090
:104F50007D932A9589F606949795679537951795C9
:104F60001794E118F10A430B560BC90BD00998F0BE
:104F700023957E9173957A3308F070E37C93201328
:104F8000B8F77E9170617D9330F0839571E37D93E6
:104F900070E32A95E1F71124EF90FF900F911F9194
:104FA000CF91DF91992787FD9095089591110C94E9
:104FB000CA28803219F089508550C8F70895FB013E
:104FC000DC014150504088F08D9181341CF08B35CC
:104FD0000CF4805E659161341CF06B350CF4605EFE
:104FE000861B611171F3990B0895881BFCCF0E94F9
:104FF000392808F481E00895E89409C097FB3EF44D
:1050000090958095709561957F4F8F4F9F4F992315
:10501000A9F0F92F96E9BB279395F6958795779593
:105020006795B795F111F8CFFAF4BB0F11F460FF53
:105030001BC06F5F7F4F8F4F9F4F16C0882311F0AB
:1050400096E911C0772321F09EE8872F762F05C0BF
:10505000662371F096E8862F70E060E02AF09A955A
:10506000660F771F881FDAF7880F9695879597F94F
:105070000895990F0008550FAA0BE0E8FEEF1616E9
:105080001706E807F907C0F012161306E407F5073C
:1050900098F0621B730B840B950B39F40A2661F0B0
:1050A000232B242B252B21F408950A2609F4A14053
:1050B000A6958FEF811D811D08950E9470280C9484
:1050C000E4280E94D62838F00E94DD2820F095239D
:1050D00011F00C94CD280C94D32811240C94182989
:1050E0000E94F52870F3959FC1F3950F50E0551F6E
:1050F000629FF001729FBB27F00DB11D639FAA272D
:10510000F00DB11DAA1F649F6627B00DA11D661F7B
:10511000829F2227B00DA11D621F739FB00DA11D9C
:10512000621F839FA00D611D221F749F3327A00D56
:10513000611D231F849F600D211D822F762F6A2FF2
:1051400011249F5750409AF0F1F088234AF0EE0F57
:10515000FF1FBB1F661F771F881F91505040A9F784
:105160009E3F510580F00C94CD280C9418295F3F88
:10517000E4F3983ED4F3869577956795B795F795C0
:10518000E7959F5FC1F7FE2B880F911D9695879538
:1051900097F9089599278827089597F99F6780E8D8
:1051A00070E060E008959FEF80EC089500240A9479
:1051B0001616170618060906089500240A941216F2
:1051C0001306140605060895092E0394000C11F425
:1051D000882352F0BB0F40F4BF2B11F460FF04C0D2
:1051E0006F5F7F4F8F4F9F4F089557FD9058440F2B
:1051F000551F59F05F3F71F04795880F97FB991F36
:1052000061F09F3F79F087950895121613061406F2
:10521000551FF2CF4695F1DF08C01616170618067F
:10522000991FF1CF86957105610508940895E8945A
:10523000BB2766277727CB0197F908950E9460293D
:10524000A59F900DB49F900DA49F800D911D1124DA
:1052500008952F923F924F925F926F927F928F921A
:105260009F92AF92BF92CF92DF92EF92FF920F93F5
:105270001F93CF93DF93CDB7DEB7CA1BDB0B0FB6FF
:10528000F894DEBF0FBECDBF09942A8839884888BC
:105290005F846E847D848C849B84AA84B984C88452
:1052A000DF80EE80FD800C811B81AA81B981CE0F49
:1052B000D11D0FB6F894DEBF0FBECDBFED0108952E
:1052C000A29FB001B39FC001A39F700D811D112447
:1052D000911DB29F700D811D1124911D0895991B80
:1052E00079E004C0991F961708F0961B881F7A95DD
:1052F000C9F780950895EE0FFF1F0590F491E02DFA
:1053000009945058BB27AA270E9499290C94E42895
:105310000E94D62838F00E94DD2820F039F49F3F03
:1053200019F426F40C94D3280EF4E095E7FB0C94C2
:10533000CD28E92F0E94F52858F3BA1762077307A2
:105340008407950720F079F4A6F50C9417290EF43C
:10535000E0950B2EBA2FA02D0B01B90190010C0185
:10536000CA01A0011124FF27591B99F0593F50F49D
:10537000503E68F11A16F040A22F232F342F4427F5
:10538000585FF3CF469537952795A795F0405395ED
:10539000C9F77EF41F16BA0B620B730B840BBAF0BD
:1053A0009150A1F0FF0FBB1F661F771F881FC2F728
:1053B0000EC0BA0F621F731F841F48F4879577953C
:1053C0006795B795F7959E3F08F0B0CF9395880FF6
:1053D00008F09927EE0F9795879508950E94022A65
:1053E0000C94E4280E94DD2858F00E94D62840F052
:1053F00029F45F3F29F00C94CD2851110C94182901
:105400000C94D3280E94F52868F39923B1F355230F
:1054100091F3951B550BBB27AA27621773078407C7
:1054200038F09F5F5F4F220F331F441FAA1FA9F35D
:1054300035D00E2E3AF0E0E832D091505040E6954B
:10544000001CCAF72BD0FE2F29D0660F771F881FAC
:10545000BB1F261737074807AB07B0E809F0BB0B9F
:10546000802DBF01FF2793585F4F3AF09E3F5105B3
:1054700078F00C94CD280C9418295F3FE4F3983E03
:10548000D4F3869577956795B795F7959F5FC9F79C
:10549000880F911D9695879597F90895E1E0660F1D
:1054A000771F881FBB1F621773078407BA0720F096
:1054B000621B730B840BBA0BEE1F88F7E0950895FF
:1054C0000E94392808F48FEF08950E94FD2858F1B2
:1054D0009E5760F19851A0F0E9F0983020F5092E20
:1054E0009927660F771F881F991F0A94D1F712C05A
:1054F000062E672F782F8827985F11F4000C07C0BD
:10550000993FB4F38695779567959395D9F7611D83
:10551000711D811D3EF490958095709561957F4F2A
:105520008F4F9F4F089568940C9418290C94172955
:105530009111089581568A5108F480528558089532
:10554000FB01DC0104C08D910190801921F44150D0
:105550005040C8F7881B990B0895FB01DC0102C07D
:1055600001900D9241505040D8F70895681779077F
:1055700068F4FB01DC01E40FF51FA40FB51F02C0A6
:1055800002900E9241505040D8F708950C94AD2AE5
:10559000FC018191861721F08823D9F79927089576
:1055A0003197CF010895FB01DC0101900D9200209D
:1055B000E1F70895FB01DC014150504048F00190B3
:1055C0000D920020C9F701C01D9241505040E0F7F4
:1055D0000895FC0181E090E00190061609F4CF01E6
:1055E0000020D1F701970895AEE0B0E0EAEFFAE2CB
:1055F0000C9437290D891E898F89988D26E02C837C
:105600001A83098397FF02C080E090E801979E8388
:105610008D83AE01455E5F4F698D7A8DCE01019617
:105620000E94242B4D815E8157FD0AC02F81388551
:10563000421753070CF49A01020F131FF80110824E
:105640002E96E4E00C945329ABE0B0E0EAE2FBE2F2
:105650000C9429297C013B018A01FC0117821682E6
:10566000838181FFC8C1CE0101965C01F70193815E
:10567000F30193FD859193FF81913F01882309F404
:1056800053C1853239F493FD859193FF81913F0198
:10569000853229F4B70190E00E94142DE7CF912CB8
:1056A000212C312CFFE1F31538F08B3211F190F4FD
:1056B000803209F1833229F137FC3CC020ED280FFC
:1056C0002A3050F536FE20C08AE0989E200D112425
:1056D000922E06C08D3291F0803371F7689430F8C5
:1056E000F30193FD859193FF81913F018111DACF01
:1056F00021C0689431F8689432F8F2CF689433F896
:10570000EFCF689434F8ECCFEAE02E9E200D112400
:10571000222E689435F8E4CF8E3229F436FC04C189
:10572000689436F8DDCF8C3619F4689437F8D8CF02
:105730008836B1F2982F9F7D95549330E0F08336F0
:10574000A1F18337C1F1833509F063C02801F2E08C
:105750004F0E511CF801C080D180692D70E036FCDD
:1057600002C06FEF7FEFC6010E94FE2C4C016894CF
:1057700037F882010AC00C5F1F4FFFE3F9838824CA
:105780008394912C6501E89437F833FE2DC0522C98
:105790008114910471F5552009F468CFB70180E2B6
:1057A00090E00E94142D5A94F6CFF80180818983ED
:1057B0000E5F1F4FE4CF2801F2E04F0E511CF8019D
:1057C000C080D180692D70E036FC02C06FEF7FEFA2
:1057D000C6010E94092D4C018201D5CFB70180E29C
:1057E00090E00E94142D2A942814190409F0B0F7AF
:1057F000CECFF60137FC859137FE81916F01B7015D
:1058000090E00E94142D51105A94F1E08F1A9108E3
:10581000BFCF843619F0893609F077C0F80137FE1A
:105820006BC060817181828193810C5F1F4FF32D6A
:10583000FF763F2E97FF09C09095809570956195F2
:105840007F4F8F4F9F4F689437F82AE030E0A501D3
:105850000E94442DC82ECA188C2C432C36FE0CC036
:10586000E89440F8C91440F434FE05C032FC03C08B
:10587000F32DFE7E4F2E892C44FE95C0FE01EC0DCB
:10588000F11D8081803309F087C0242D297E422EAE
:10589000842D8870582E43FC95C040FE8FC09C2CF0
:1058A000821418F42C0C922C981844FE91C0B70165
:1058B00080E390E00E94142D42FE09C088E790E04A
:1058C00041FE02C088E590E0B7010E94142DC91482
:1058D00008F48AC0CA94D12C9FEFC91AD90ACA0CFD
:1058E000DB1CF60182916F01B70190E00E94142D3C
:1058F000AC14BD04B1F74FCF60817181072E000C4D
:10590000880B990B0E5F1F4F92CFD32CE894D4F8DD
:105910002AE030E0853739F1232D297FD22E8F36CA
:1059200001F148F48835A9F0F701868197812B961B
:10593000E2E10C944529803749F08837A9F7D4FE75
:1059400002C06894D2F820E130E00DC06894D4F829
:10595000F6CF34FE03C0822F8660D82E20E132E0DD
:1059600002C028E030E0F801D7FE0FC060817181ED
:10597000828193810C5F1F4FA5010E94442DC82E88
:10598000CA183D2CE89437F867CF6081718190E0A8
:1059900080E00E5F1F4FF0CF42FC02C0839478CFAF
:1059A0008394839475CF842D867809F471CFF6CFD4
:1059B000B70180E290E00E94142D83948214C0F31A
:1059C000512C73CF522C5818821408F46ECFF8CF94
:1059D000842D867809F47BCF8BE241FE80E247FC80
:1059E0008DE2B70190E071CFB70180E390E00E94B3
:1059F000142D9A946CCF8FEF9FEF99CFFC010590F7
:105A0000615070400110D8F7809590958E0F9F1FC0
:105A10000895FC016150704001900110D8F7809505
:105A200090958E0F9F1F08950F931F93CF93DF9331
:105A3000182F092FEB018B8181FD09C01FEF0FEF9C
:105A4000812F902FDF91CF911F910F91089582FFA9
:105A500014C02E813F818C819D81281739073CF429
:105A6000E881F981CF0101969983888310838E8123
:105A70009F8101969F838E83E3CFE885F985812FEF
:105A80000995892BA1F3DACFFA01AA27283051F121
:105A9000203181F1E8946F936E7F6E5F7F4F8F4F5F
:105AA0009F4FAF4FB1E03ED0B4E03CD0670F781FBE
:105AB000891F9A1FA11D680F791F8A1F911DA11DA3
:105AC0006A0F711D811D911DA11D20D009F46894DC
:105AD0003F912AE0269F11243019305D3193DEF684
