:100000000C9462000C948A000C948A000C948A0070
:100010000C948A000C948A000C948A000C948A0038
:100020000C948A000C948A000C948A000C94A50706
:100030000C948A000C948A000C948A000C948A0018
:100040000C9403070C948A000C9473070C944D07CE
:100050000C948A000C948A000C948A000C948A00F8
:100060000C948A000C948A000000000024002700F1
:100070002A0000000000250028002B0000000000DE
:1000800023002600290004040404040404040202DA
:100090000202020203030303030301020408102007
:1000A0004080010204081020010204081020000012
:1000B0000008000201000003040700000000000027
:1000C0000000610811241FBECFEFD8E0DEBFCDBF16
:1000D00016E0A0E0B1E0ECEDFFE102C005900D926A
:1000E000A633B107D9F727E0A6E3B6E001C01D9219
:1000F000AF36B207E1F710E0C2E6D0E004C02197C6
:10010000FE010E94D90CC136D107C9F70E94D80858
:100110000C94EC0F0C940000833081F028F48130B3
:1001200099F08230A9F008958730A9F08830C9F09D
:100130008430B1F4809180008F7D03C08091800075
:100140008F7780938000089584B58F7784BD08955C
:1001500084B58F7DFBCF8091B0008F778093B00006
:1001600008958091B0008F7DF9CFCF93DF93282F32
:1001700030E0F901E255FF4F8491F901E656FF4F57
:10018000D491F901EA57FF4FC491CC23A1F081111A
:100190000E948C00EC2FF0E0EE0FFF1FE458FF4FA1
:1001A000A591B491EC91ED2381E090E009F480E019
:1001B000DF91CF91089580E090E0FACF1F93CF9325
:1001C000DF93282F30E0F901E255FF4F8491F901C8
:1001D000E656FF4FD491F901EA57FF4FC491CC2363
:1001E000A9F0162F81110E948C00EC2FF0E0EE0F89
:1001F000FF1FEE58FF4FA591B4918FB7F894EC9183
:10020000111108C0D095DE23DC938FBFDF91CF9111
:100210001F910895DE2BF8CFCF93DF9390E0FC0180
:10022000E656FF4F24918A579F4FFC018491882303
:10023000D1F090E0880F991FFC01E859FF4FA5917C
:10024000B491FC01EE58FF4FC591D491623071F426
:100250009FB7F8943C91822F809583238C93E881FB
:100260002E2B28839FBFDF91CF9108958FB7F894ED
:10027000EC912E2B2C938FBFF6CF1F93CF93DF9350
:10028000EC01162F88818C3008F050C061E0812F7E
:100290000E940C018881282F30E0F901EE0FFF1F2A
:1002A000E20FF31FEC5BF84F1F736081607C612BE2
:1002B00060839FEF998394EF9A832CE0622F0E94D2
:1002C000CD0C829FB001112430E020E0AB01420F41
:1002D000531FFA01EE0FFF1FE40FF51FEC5BF84F01
:1002E000908196FD16C02F5F3F4F2C30310571F77E
:1002F00081110FC01092800082E0809381001092E3
:10030000850010928400B19A80916F008260809382
:100310006F00E8818E2F90E0FC01EE0FFF1FE80FC9
:10032000F91FEC5BF84F8081806480838881DF91C6
:10033000CF911F9108953FB7F8948091A3069091B3
:10034000A406A091A506B091A60626B5A89B05C057
:100350002F3F19F00196A11DB11D3FBFBA2FA92F44
:10036000982F8827BC01CD01620F711D811D911D41
:1003700042E0660F771F881F991F4A95D1F70895AD
:100380002FB7F89460919F067091A0068091A10606
:100390009091A2062FBF0895AF92BF92CF92DF92A5
:1003A000EF92FF920F931F93CF93DF936C017B012A
:1003B0008B01040F151FEB015E01AE18BF08C017BB
:1003C000D10759F06991D601ED91FC910190F0812E
:1003D000E02DC6010995892B79F7C501DF91CF91F1
:1003E0001F910F91FF90EF90DF90CF90BF90AF9053
:1003F0000895FC01538D448D252F30E0842F90E02B
:10040000821B930B541710F0CF960895019708950F
:10041000FC01918D828D981761F0A28DAE0FBF2FD8
:10042000B11D5D968C91928D9F5F9F73928F90E02E
:1004300008958FEF9FEF0895FC01918D828D98179D
:1004400031F0828DE80FF11D858D90E008958FEFDA
:100450009FEF0895FC01918D228D892F90E0805CA3
:100460009F4F821B91098F739927089587EA96E021
:100470000E942A0221E0892B09F420E0822F0895AE
:1004800080E090E0892B29F00E94360281110C94C3
:1004900000000895FC01A48DA80FB92FB11DA35A27
:1004A000BF4F2C91848D90E001968F739927848F94
:1004B000A689B7892C93A089B1898C9183708064B7
:1004C0008C93938D848D981306C00288F389E02D58
:1004D00080818F7D80830895EF92FF920F931F9309
:1004E000CF93DF93EC0181E0888F9B8D8C8D9813E7
:1004F0001AC0E889F989808185FF15C09FB7F894F3
:10050000EE89FF896083E889F9898081837080643E
:1005100080839FBF81E090E0DF91CF911F910F9189
:10052000FF90EF900895F62E0B8D10E00F5F1F4F98
:100530000F731127E02E8C8D8E110CC00FB607FCA7
:10054000FACFE889F989808185FFF5CFCE010E9435
:100550004A02F1CFEB8DEC0FFD2FF11DE35AFF4F57
:10056000F0829FB7F8940B8FEA89FB8980818062C3
:10057000CFCFCF93DF93EC01888D8823B9F0AA8980
:10058000BB89E889F9898C9185FD03C0808186FD4E
:100590000DC00FB607FCF7CF8C9185FFF2CF80819D
:1005A00085FFEDCFCE010E944A02E9CFDF91CF91C6
:1005B0000895DC01EC91EC3090F511968C91119737
:1005C00028E830E0281B310987FD3395220F331FBF
:1005D000220F331F6217730784F012968C9128E55F
:1005E00032E0281B310987FD3395220F331F220F7C
:1005F000331F621773070CF49B0122503109220F3D
:10060000331F4FB7F8948E2F90E0FC01EE0FFF1FC1
:10061000E80FF91FEC5BF84F328321834FBF089539
:1006200060910201709103018CE697E00E94D9026B
:10063000609100017091010189E697E00C94D90264
:100640000E94B50021E0892B09F020E0822F089557
:10065000CF93DF93FC0101900020E9F73197AF01C0
:10066000481B590BBC0187EA96E00E94CC01EC01C3
:1006700042E050E066E171E087EA96E00E94CC013A
:100680008C0F9D1FDF91CF9108950E94280387EA68
:1006900096E00C94B90289E191E00E94450389E754
:1006A00091E00E94450380EE91E00E94450388E1BD
:1006B00092E00C944503BF92CF92DF92EF92FF92AB
:1006C0000F931F93CF93DF93CDB7DEB7C058D109F7
:1006D0000FB6F894DEBF0FBECDBFC82EE62EB42EE7
:1006E00080919C068823A9F088E792E00E94450348
:1006F000C058DF4F0FB6F894DEBF0FBECDBFDF91FD
:10070000CF911F910F91FF90EF90DF90CF90BF900E
:10071000089521E0C21234C002E011E04EE153E03E
:100720002EE436E074E0F72E6623B1F193E0F92E63
:1007300081E024173507A4F180E032C08EE492E016
:100740003BC0EE2069F0811108C088ED9FEF280FB3
:10075000391FF8013183208332C088E290E0F7CF5F
:10076000811108C088ED9FEF480F591FF801518390
:10077000408325C088E290E0F7CF85E894E0A2C0EE
:1007800000E011E04CEF57E026ED34E06EE0F62E8D
:10079000E110CECF8FE0F82E81E02417350764F208
:1007A00080938B06BB2069F291E0892780938B06AA
:1007B0008111C4CF8AE699E0F80191838083F80122
:1007C00080819181863292402CF486E292E0F80199
:1007D00091838083F80180819181833999402CF045
:1007E00082E999E0F80191838083DD24D394D0924B
:1007F0009C06C0929206E0929106B09236068E2D2B
:10080000E11004C08F2D0E9420038D2580938C065B
:100810000E94C00160938D0670938E0680938F06B0
:10082000909390060E94C001609393067093940683
:1008300080939506909396060E94C0016093870668
:10084000709388068093890690938A0610926B06AF
:1008500010926D0610926E0610926C062AE632E037
:10086000EE2011F02FEB35E0F1E08CEC95E0CF12AB
:1008700002C08EE995E03F932F939F938F9381E879
:1008800092E09F938F931F9288E18F938FE696E07B
:100890009F938F930E94040D0FB6F894DEBF0FBE96
:1008A000CDBF28E131E0BB2011F02FE632E04F2D23
:1008B00050E0F8016081718180918B0681115DCFDC
:1008C00085E791E03F932F935F934F937F936F93CF
:1008D0009F938F938FE696E09F938F938DE892E09E
:1008E0009F938F931F9280E88F938E010F5F1F4F0E
:1008F0001F930F930E94040DC8010E9445030E949C
:1009000010030FB6F894DEBF0FBECDBFF1CECF926D
:10091000DF92EF92FF920F931F93CF93DF93CDB7A8
:10092000DEB7C058D1090FB6F894DEBF0FBECDBFF9
:10093000D0900001C09001018EE00E942003E82EBB
:100940008EE00E94B500082FF92E8FE00E94200350
:10095000182F8FE00E94B50027E02F932CEF2F93E4
:1009600024E02F9326ED2F93CF92DF921F92EF92E8
:10097000FF920F931F922EE02F931F921F939F932E
:100980008F931F928FE08F9386EB92E09F938F93CC
:100990001F9280E88F938E010F5F1F4F1F930F935D
:1009A0000E94040DC8010E9445030FB6F894DEBFF3
:1009B0000FBECDBFC058DF4F0FB6F894DEBF0FBEDD
:1009C000CDBFDF91CF911F910F91FF90EF90DF90FE
:1009D000CF9008954F925F926F927F928F929F92E5
:1009E000AF92BF92CF92DF92EF92FF920F931F933D
:1009F000CF93DF93CDB7DEB7C058D1090FB6F894C7
:100A0000DEBF0FBECDBF509000014090010170903D
:100A10000201609003018EE00E942003882E8EE088
:100A20000E94B500A82E992E8FE00E942003B82EB8
:100A30008FE00E94B500D82EC92E83E00E942003CB
:100A4000E82E83E00E94B500082FF92E84E00E9472
:100A50002003182F84E00E94B5004F925F926F929E
:100A60007F921F928F929F92AF921F922EE02F93B0
:100A70001F92BF92CF92DF921F922FE02F931F926F
:100A8000EF92FF920F931F9223E02F931F921F93D9
:100A90009F938F931F9284E08F9389E093E09F93BD
:100AA0008F931F9280E88F938E010F5F1F4F1F93CC
:100AB0000F930E94040D0FB6F894DEBF0FBECDBF9A
:100AC000C8010E944503C058DF4F0FB6F894DEBF3F
:100AD0000FBECDBFDF91CF911F910F91FF90EF908F
:100AE000DF90CF90BF90AF909F908F907F906F904E
:100AF0005F904F9008952F923F924F925F926F9226
:100B00007F928F929F92AF92BF92CF92DF92EF929D
:100B1000FF920F931F93CF93DF93CDB7DEB7DA9594
:100B20000FB6F894DEBF0FBECDBF682E8B0150907C
:100B300092069090910621E0521259C132E0A32E04
:100B400031E0B32E24E0722E992011F0B3E07B2E19
:100B50000E94C001C0908D06D0908E06E0908F0656
:100B6000F09090069B01AC012C193D094E095F09DC
:100B700069017A010115110511F40CE613E0809169
:100B8000360640908B06F50120803180662009F4FE
:100B900052C0FFE6AF2EF2E0BF2E811104C0E8E1A3
:100BA000AE2EE1E0BE2E05E814E0411002C005E7DC
:100BB00011E0872D0E94B500BF92AF92FF92EF9295
:100BC000DF92CF921F930F933F922F929F938F9319
:100BD0001F927F928FE696E09F938F9381E793E039
:100BE0009F938F931F9280E88F938E010F571F4F13
:100BF0001F930F930E94040DC8010E944503109299
:100C00009C060FB6F894DEBF0FBECDBF80916A067A
:100C1000882309F453C080916906813009F0D0C05F
:100C2000662009F4D0C082E08093690640E061E06C
:100C30000E945B0343C081115AC063EA73E0C8019C
:100C40000E94FB0C892B79F06BEA73E0C8010E94CB
:100C5000FB0C892B41F063EB73E0C8010E94FB0C95
:100C6000892B09F0A8C085E791E0411002C085E812
:100C700094E03F922F929F938F938FE696E09F93FD
:100C80008F938BEB93E09F938F931F9280E88F93CA
:100C90008E010F5F1F4F1F930F930E94040DC80119
:100CA0000E94450310929C0641E0692D852D0E940B
:100CB0005B030FB6F894DEBF0FBECDBFD3950FB662
:100CC000F894DEBF0FBECDBFDF91CF911F910F9182
:100CD000FF90EF90DF90CF90BF90AF909F908F905C
:100CE0007F906F905F904F903F902F9008957FE698
:100CF000872E72E0972E55E8A52E54E0B52E4110B0
:100D000004C045E7A42E41E0B42E872D0E942003A5
:100D1000482E872D0E94B5009F928F92FF92EF92EE
:100D2000DF92CF92BF92AF923F922F921F924F923B
:100D30009F938F931F927F921F930F938FE696E05E
:100D40009F938F938BED93E09F938F931F9280E8F7
:100D50008F938E010F571F4F1F930F930E94040D07
:100D6000C8010E94450310929C060FB6F894DEBF9E
:100D70000FBECDBF80913606882309F447CF91E09E
:100D800082E0591289E01F928F938FE696E09F933D
:100D90008F9380E194E09F938F931F9280E88F93CD
:100DA0008E010F5F1F4F1F930F930E94040DC80108
:100DB0000E94450326CF68E1862E61E0962E9BCFE8
:100DC000882309F47BCF0E948704662069F0809114
:100DD0006906823021F483E494E00E944503109276
:100DE0006A06109269066ACF89E894E0F6CF90E02F
:100DF000A92E91E0B92E8FE0782E992009F4A8CE83
:100E0000AEE07A2EA5CE1F920F920FB60F9211244C
:100E10002F933F938F939F93AF93BF9380919F06A0
:100E20009091A006A091A106B091A20630919E06D5
:100E300023E0230F2D3758F50196A11DB11D2093F6
:100E40009E0680939F069093A006A093A106B09360
:100E5000A2068091A3069091A406A091A506B09148
:100E6000A6060196A11DB11D8093A3069093A4062A
:100E7000A093A506B093A606BF91AF919F918F91C5
:100E80003F912F910F900FBE0F901F90189526E85D
:100E9000230F0296A11DB11DD2CF1F920F920FB644
:100EA0000F9211242F933F934F935F936F937F93F0
:100EB0008F939F93AF93BF93EF93FF9387EA96E04F
:100EC0000E944A02FF91EF91BF91AF919F918F9144
:100ED0007F916F915F914F913F912F910F900FBE36
:100EE0000F901F9018951F920F920FB60F9211241A
:100EF0002F938F939F93EF93FF93E091B706F09119
:100F0000B8068081E091BD06F091BE0682FD1BC04F
:100F100090818091C0068F5F8F732091C1068217E8
:100F200041F0E091C006F0E0E955F94F958F8093CC
:100F3000C006FF91EF919F918F912F910F900FBE5F
:100F40000F901F9018958081F4CF1F920F920FB6CB
:100F50000F9211242F933F934F935F936F937F933F
:100F60008F939F93AF93BF93CF93DF93EF93FF93B1
:100F700080913706C0916807D0E087FF24C01092A7
:100F8000850010928400809137068F5F809337062A
:100F900080913706082E000C990B8C179D0724F4BE
:100FA000809137068C30C4F1809184009091850047
:100FB000049680349C4908F47AC080918400909112
:100FC0008500049676C080913706082E000C990B98
:100FD0008C179D07C4F6E09137068E2FEE0F990B04
:100FE000FC01EE0FFF1FE80FF91FEC5BF84F80814B
:100FF00086FFC9CFE09137068E2FEE0F990BFC01CB
:10100000EE0FFF1FE80FF91FEC5BF84F808160E0E7
:101010008F730E94DE00B7CF20918400309185004D
:10102000E09137068E2FEE0F990BFC01EE0FFF1F9C
:10103000E80FF91FEC5BF84F81819281820F931FBB
:101040009093890080938800E09137068E2FEE0FF1
:10105000990BFC01EE0FFF1FE80FF91FEC5BF84F37
:10106000808186FF11C0E09137068E2FEE0F990B1D
:10107000FC01EE0FFF1FE80FF91FEC5BF84F8081BA
:1010800061E08F730E94DE00FF91EF91DF91CF91BD
:10109000BF91AF919F918F917F916F915F914F9190
:1010A0003F912F910F900FBE0F901F90189580E4E5
:1010B0009CE990938900809388008FEF8093370696
:1010C000E3CF1092AA061092A90688EE93E0A0E062
:1010D000B0E08093AB069093AC06A093AD06B093BE
:1010E000AE0688E091E09093A8068093A70685EC71
:1010F00090E09093B4068093B30684EC90E09093D4
:10110000B6068093B50680EC90E09093B806809385
:10111000B70681EC90E09093BA068093B90682EC12
:1011200090E09093BC068093BB0686EC90E0909391
:10113000BE068093BD061092C0061092C1061092A2
:10114000C2061092C306809168078C3048F591E082
:10115000980F9093680780936C0790E0FC01EE0F66
:10116000FF1FE80FF91FEC5BF84F88EB9BE09283C1
:101170008183809168078C30B8F491E0980F909348
:1011800068078093690790E0FC01EE0FFF1FE80FEE
:10119000F91FEC5BF84F88EB9BE092838183089505
:1011A0008FEF80936C07E5CF8FEF809369070895E9
:1011B000CF93DF93CDB7DEB7C458D1090FB6F894FB
:1011C000DEBF0FBECDBF789484B5826084BD84B588
:1011D000816084BD85B5826085BD85B5816085BD32
:1011E00080916E00816080936E00109281008091EA
:1011F0008100826080938100809181008160809372
:101200008100809180008160809380008091B10096
:1012100084608093B1008091B00081608093B000C1
:1012200080917A00846080937A0080917A00826055
:1012300080937A0080917A00816080937A00809117
:101240007A00806880937A001092C10062E084E0A6
:101250000E940C0162E083E00E940C0162E08FE0DA
:101260000E940C0162E08EE00E940C0161E085E0CA
:101270000E940C0161E086E00E940C0161E087E0C1
:101280000E940C01E091B706F091B80682E08083DD
:10129000E091B306F091B4061082E091B506F091AA
:1012A000B60680E180831092BF06E091BB06F09104
:1012B000BC0686E08083E091B906F091BA06808191
:1012C00080618083E091B906F091BA0680818860E0
:1012D0008083E091B906F091BA06808180688083AE
:1012E000E091B906F091BA0680818F7D80830E94DB
:1012F0009B014B015C0108ECC02ED12CE12CF12CA0
:101300000E949B01681979098A099B09683E73400C
:1013100081059105A8F321E0C21AD108E108F1087E
:1013200038EE830E33E0931EA11CB11CC114D1040E
:10133000E104F10429F762E070E08CE697E00E9496
:101340003D0169E070E089E697E00E943D018EE48E
:1013500096E0909303018093020186ED94E09093D0
:101360000101809300010E94100360E085E00E946B
:10137000DE0061E086E00E94DE0060E087E00E941F
:10138000DE0085EA94E00E94280380EB94E00E944E
:10139000280386EB94E00E9445038CEF94E00E94C2
:1013A00045030E944B030E94EA0487EA96E00E94EC
:1013B000B90210E0A12E16E0B12ECE0101964C012B
:1013C0007724739487EA96E00E942A021816190679
:1013D0000CF034C187EA96E00E9408028D3091F348
:1013E000E09168068A3009F01DC1F0E0E85CF94F31
:1013F000108210926806B8E3CB2EB6E0DB2EFC2CF0
:10140000ED2C8601F80181918F018823D9F290E0BB
:101410000E94DF0C892B09F49DC26801F0CF0115F1
:10142000110569F06801F60181916F01882339F097
:1014300090E00E94E80CF60131978083F4CF6CE3D2
:1014400075E08F2D9E2D0E94FB0C892B29F481E4E1
:1014500095E00E944503B6CF66E475E08F2D9E2D82
:101460000E94FB0C892B41F06DE475E08F2D9E2DC1
:101470000E94FB0C892B19F40E94EA04A3CF64E5B7
:1014800075E08F2D9E2D0E94FB0C892B19F40E9474
:10149000870498CF64E675E08F2D9E2D0E94FB0C8B
:1014A000892B89F470929D061092970610929806E7
:1014B0001092990610929A0610929B0681E695E08A
:1014C0000E944503D9CF6FE675E08F2D9E2D0E94B7
:1014D000FB0C892B89F470929D06709297061092EE
:1014E00098061092990610929A0610929B068CE626
:1014F00095E00E944503CBCF60E875E08F2D9E2DCF
:101500000E94FB0C892B91F480919C06811104C0F0
:1015100080916A06882319F088E792E09ACF70924A
:101520006A06109269068DE795E0E3CF6EE875E0F4
:101530008F2D9E2D0E94FB0C892B69F410929C0626
:1015400010929D061092970610926A0610926906F4
:101550008BE895E07ECF63E975E08F2D9E2D0E948C
:10156000FB0C892B39F486EB94E00E9445038CEF49
:1015700094E06FCF64EF74E08F2D9E2D0E94FB0CE2
:10158000892B19F40E944B031DCF68E975E08F2D5C
:101590009E2D0E94FB0C892BF1F40115110579F0A9
:1015A0006AE672E0C8010E94FB0C7C016FEB75E0FB
:1015B000C8010E94FB0CEF2829F0009719F084EA7B
:1015C00095E047CF61E0892B09F060E040E081E0E1
:1015D0000E945B03F7CE66EC75E08F2D9E2D0E9476
:1015E000FB0C892BE1F40115110579F06AE672E034
:1015F000C8010E94FB0C7C016FEB75E0C8010E94E2
:10160000FB0CEF2829F0009719F082ED95E021CF2F
:1016100061E0892B09F060E040E082E0D9CF84EFFF
:1016200095E017CFEF3208F0CDCE91E09E0F90936A
:101630006806F0E0E85CF94F8083C4CE80919D0697
:10164000882351F180919C06811126C00E94C0011F
:10165000009198061091990620919A0630919B0668
:101660001B012C01201A310A420A530A92018101FE
:101670000A3F11052105310578F0609398067093B3
:10168000990680939A0690939B06809197068823EB
:1016900009F460C00E94870480916A06882379F06B
:1016A00080919C0681110BC080916906811107C051
:1016B0007092690640E060E082E00E945B038091E6
:1016C0009C068823D1F10E94C001009193061091DD
:1016D00094062091950630919606601B710B820B43
:1016E000930B633271058105910538F18091910664
:1016F00090919206913009F046C102E011E094E029
:10170000C92E882311F0A3E0CA2E0E94C0012091A7
:101710008D0630918E0640918F0650919006621B87
:10172000730B840B950B613C744D81409105A8F0BF
:1017300063EB73E080E00E947B0580E090E0892B02
:1017400009F440CE0E943602882309F439CE0E9463
:10175000000036CE0E94EA049FCFD0908B06809185
:101760008C0681110FC08C2D0E942003811148C06E
:1017700070928C0610926B0610926D0610926E0697
:1017800010926C06F3E05EE6E52E56E0F52ECF16DD
:10179000A1F0EFE02E2E4DE6E42E46E0F42EC2142A
:1017A00061F07EE0372E6CE6E62E66E0F62EC31082
:1017B00004C03BE6E32E36E0F32E8C2D0E94B500EC
:1017C000F701892B09F042C08081833010F48F5FCC
:1017D0008083F80180819181F70120812330F0F12D
:1017E000DD20B1F18F34F2E09F0724F08897F801F3
:1017F000918380830E94100370E060E081E09BCFC2
:10180000F80180819181DD20C1F08239F9E09F07E4
:101810001CF06BEA73E08ECF0A96F8019183808307
:101820000E9410030E94C001609393067093940677
:10183000809395069093960680CF8732F2E09F07BB
:101840001CF463EA73E076CF0A97E7CF1082C1CF2A
:101850008A36F9E09F0774F68896C9CFDD2009F42F
:1018600072C08239F9E09F07A4F60A96F8019183C5
:1018700080830E9410030E94C001609393067093BE
:10188000940680939506909396060E94C00120903E
:101890008706309088064090890650908A069B0102
:1018A000AC012219330944095509243F314041054F
:1018B000510508F442CF60938706709388068093A1
:1018C000890690938A068EE00E942003C82E8FE03E
:1018D0000E942003E82E83E00E942003F82E84E07B
:1018E0000E94200390918C0625E834E0D11002C0BC
:1018F00025E731E01F92CF921F92EF921F92FF9245
:101900001F928F931F929F933F932F93F801818192
:101910008F9380818F932FE6222E26E0322E3F92E6
:101920002F92BF92AF921F9280E88F939F928F92D7
:101930000E94040DC4010E9445030FB6F894DEBF57
:101940000FBECDBFFACE8732F2E09F070CF479CFFD
:101950000A978CCF60E270E0C6010E94F00C8C0107
:10196000892B21F0F80110820F5F1F4FF601819142
:101970006F01882309F453CD90E00E94E80CF60132
:1019800031978083F3CF00E011E0FFE0CF2E882372
:1019900009F4BBCE8EE0C82EB8CE991B79E004C006
:1019A000991F961708F0961B881F7A95C9F780959E
:1019B0000895EE0FFF1F0590F491E02D0994911109
:1019C0000C940E0F803219F089508550C8F7089595
:1019D0009111089581568A5108F4805285580895CE
:1019E000FC018191861721F08823D9F79927089562
:1019F0003197CF010895FB01DC018D910190801991
:101A00000110D9F3990B0895AEE0B0E0EAE0FDE0F3
:101A10000C94C30F0D891E898F89988D26E02C8325
:101A20001A83098397FF02C080E090E801979E83A4
:101A30008D83AE01455E5F4F698D7A8DCE01019633
:101A40000E94340D4D815E8157FD0AC02F8138857B
:101A5000421753070CF49A01020F131FF80110826A
:101A60002E96E4E00C94DF0FABE0B0E0EAE3FDE09B
:101A70000C94B50F7C013B018A01FC011782168290
:101A8000838181FFC8C1CE0101965C01F70193817A
:101A9000F30193FD859193FF81913F01882309F420
:101AA00053C1853239F493FD859193FF81913F01B4
:101AB000853229F4B70190E00E94270FE7CF912CDF
:101AC000212C312CFFE1F31538F08B3211F190F419
:101AD000803209F1833229F137FC3CC020ED280F18
:101AE0002A3050F536FE20C08AE0989E200D112441
:101AF000922E06C08D3291F0803371F7689430F8E1
:101B0000F30193FD859193FF81913F018111DACF1C
:101B100021C0689431F8689432F8F2CF689433F8B1
:101B2000EFCF689434F8ECCFEAE02E9E200D11241C
:101B3000222E689435F8E4CF8E3229F436FC04C1A5
:101B4000689436F8DDCF8C3619F4689437F8D8CF1E
:101B50008836B1F2982F9F7D95549330E0F083360C
:101B6000A1F18337C1F1833509F063C02801F2E0A8
:101B70004F0E511CF801C080D180692D70E036FCF9
:101B800002C06FEF7FEFC6010E94110F4C016894F5
:101B900037F882010AC00C5F1F4FFFE3F9838824E6
:101BA0008394912C6501E89437F833FE2DC0522CB4
:101BB0008114910471F5552009F468CFB70180E2D2
:101BC00090E00E94270F5A94F6CFF8018081898314
:101BD0000E5F1F4FE4CF2801F2E04F0E511CF801B9
:101BE000C080D180692D70E036FC02C06FEF7FEFBE
:101BF000C6010E941C0F4C018201D5CFB70180E2C3
:101C000090E00E94270F2A942814190409F0B0F7D5
:101C1000CECFF60137FC859137FE81916F01B70178
:101C200090E00E94270F51105A94F1E08F1A91080A
:101C3000BFCF843619F0893609F077C0F80137FE36
:101C40006BC060817181828193810C5F1F4FF32D86
:101C5000FF763F2E97FF09C090958095709561950E
:101C60007F4F8F4F9F4F689437F82AE030E0A501EF
:101C70000E94570FC82ECA188C2C432C36FE0CC05D
:101C8000E89440F8C91440F434FE05C032FC03C0A7
:101C9000F32DFE7E4F2E892C44FE95C0FE01EC0DE7
:101CA000F11D8081803309F087C0242D297E422ECA
:101CB000842D8870582E43FC95C040FE8FC09C2C0C
:101CC000821418F42C0C922C981844FE91C0B70181
:101CD00080E390E00E94270F42FE09C088E790E071
:101CE00041FE02C088E590E0B7010E94270FC914A9
:101CF00008F48AC0CA94D12C9FEFC91AD90ACA0C19
:101D0000DB1CF60182916F01B70190E00E94270F62
:101D1000AC14BD04B1F74FCF60817181072E000C68
:101D2000880B990B0E5F1F4F92CFD32CE894D4F8F9
:101D30002AE030E0853739F1232D297FD22E8F36E6
:101D400001F148F48835A9F0F701868197812B9637
:101D5000E2E10C94D10F803749F08837A9F7D4FE1F
:101D600002C06894D2F820E130E00DC06894D4F845
:101D7000F6CF34FE03C0822F8660D82E20E132E0F9
:101D800002C028E030E0F801D7FE0FC06081718109
:101D9000828193810C5F1F4FA5010E94570FC82EAF
:101DA000CA183D2CE89437F867CF6081718190E0C4
:101DB00080E00E5F1F4FF0CF42FC02C0839478CFCB
:101DC0008394839475CF842D867809F471CFF6CFF0
:101DD000B70180E290E00E94270F83948214C0F341
:101DE000512C73CF522C5818821408F46ECFF8CFB0
:101DF000842D867809F47BCF8BE241FE80E247FC9C
:101E00008DE2B70190E071CFB70180E390E00E94CE
:101E1000270F9A946CCF8FEF9FEF99CF9927882740
:101E20000895FC010590615070400110D8F780952D
:101E300090958E0F9F1F0895FC0161507040019096
:101E40000110D8F7809590958E0F9F1F08950F93DE
:101E50001F93CF93DF93182F092FEB018B8181FD07
:101E600009C01FEF0FEF812F902FDF91CF911F91AE
:101E70000F91089582FF14C02E813F818C819D8136
:101E8000281739073CF4E881F981CF01019699833D
:101E9000888310838E819F8101969F838E83E3CFF9
:101EA000E885F985812F0995892BA1F3DACFFA010D
:101EB000AA27283051F1203181F1E8946F936E7F89
:101EC0006E5F7F4F8F4F9F4FAF4FB1E03ED0B4E07A
:101ED0003CD0670F781F891F9A1FA11D680F791FBB
:101EE0008A1F911DA11D6A0F711D811D911DA11DCC
:101EF00020D009F468943F912AE0269F11243019DC
:101F0000305D3193DEF6CF010895462F4770405D76
:101F10004193B3E00FD0C9F7F6CF462F4F70405D25
:101F20004A3318F0495D31FD4052419302D0A9F780
:101F3000EACFB4E0A6959795879577956795BA957A
:101F4000C9F700976105710508959B01AC010A2E40
:101F500006945795479537952795BA95C9F7620F17
:101F6000731F841F951FA01D08952F923F924F92BB
:101F70005F926F927F928F929F92AF92BF92CF9219
:101F8000DF92EF92FF920F931F93CF93DF93CDB722
:101F9000DEB7CA1BDB0B0FB6F894DEBF0FBECDBF9A
:101FA00009942A88398848885F846E847D848C846B
:101FB0009B84AA84B984C884DF80EE80FD800C8174
:101FC0001B81AA81B981CE0FD11D0FB6F894DEBF57
:0C1FD0000FBECDBFED010895F894FFCFC7
:101FDC00D6044E06000000006C02CC01F901B902D7
:101FEC002A0208021C020D0A00464143544F525962
:101FFC002075707065725F736572766F3D44322028
:10200C00686F6D653D44342074726176656C3D4437
:10201C003320686F6D655F75733D313631342074D4
:10202C00726176656C5F75733D37393820686F6DFA
:10203C00655F6469723D696E632074726176656C6C
:10204C005F6469723D64656300464143544F525965
:10205C00206C6F7765725F736572766F3D443920C3
:10206C00686F6D653D41312F313520747261766535
:10207C006C3D41302F313420686F6D655F75733D59
:10208C00313233382074726176656C5F75733D3212
:10209C0030343420686F6D655F6469723D646563CC
:1020AC002074726176656C5F6469723D696E630061
:1020BC00464143544F5259206163743D31206D6544
:1020CC00616E732073776974636820636C6F7365DA
:1020DC006420746F20474E442028494E5055545F5D
:1020EC0050554C4C55502900464143544F525920A1
:1020FC006C6F7765725F6F6E6C793A20494E5055F4
:10210C0054535F4C4F574552204D4F4E49544F52EC
:10211C005F4C4F57455220544553545F4C4F5745D5
:10212C00522053574545505F4C4F57455220484F0E
:10213C004D457C54524156454C00484F4D4500206E
:10214C0072657472793D3100455252206275737913
:10215C000053574545505F2573202573004F4B2086
:10216C002573206469723D25732073746172745FEA
:10217C0070773D2564207461726765745F70696E59
:10218C003D2564257300494E505554535F4C4F57B1
:10219C004552206C683D2564207261773D25642092
:1021AC006163743D2564206C743D256420726177F5
:1021BC003D2564206163743D256420706C3D25646D
:1021CC0020686F6D655F75733D2564207472617650
:1021DC00656C5F75733D256400494E505554532012
:1021EC0075683D2564207261773D256420616374B8
:1021FC003D25642075743D2564207261773D25640E
:10220C00206163743D2564206C683D2564207261F7
:10221C00773D2564206163743D2564206C743D25F5
:10222C0064207261773D2564206163743D256420D0
:10223C0070753D256420706C3D2564006661696C89
:10224C0000444F4E452025732070696E3D25642057
:10225C007261773D2564206163743D312070773D58
:10226C002564206469723D2573206D733D256C7562
:10227C0025730070776D5F6D696E0070776D5F6DA3
:10228C0061780074696D656F75740048494E54200F
:10229C002573207265747279206469723D257320F0
:1022AC0066726F6D2070773D256400455252202573
:1022BC00732025732070696E3D2564207261773D13
:1022CC002564206163743D25642070773D2564206E
:1022DC006469723D2573206D733D256C7525730003
:1022EC0048494E5420257320626F74685F6469728C
:1022FC00735F6661696C656420636865636B2077E6
:10230C006972696E672F736572766F206F6E2044E9
:10231C00256400444F4E4520544553545F4C4F5751
:10232C00455220686F6D655F70696E3D3135207464
:10233C00726176656C5F70696E3D313420686F6DCB
:10234C00655F6469723D6465632074726176656C67
:10235C005F6469723D696E63004552522054455367
:10236C00545F4C4F5745522073776565705F6661BB
:10237C00696C65640042454E43485F5445535400B4
:10238C00524541445900434D44532050494E472037
:10239C00494E5055545320494E505554535F4C4F51
:1023AC00574552204D4F4E49544F52204D4F4E4998
:1023BC00544F525F4C4F5745522053544F50204866
:1023CC00454C5020464143544F525900434D4453C1
:1023DC002053574545505F555050455220484F4D5E
:1023EC00457C54524156454C2053574545505F4C03
:1023FC004F57455220484F4D457C54524156454C01
:10240C0020544553545F4C4F5745520050494E474A
:10241C0000504F4E4700494E5055545300535441B1
:10242C0054555300494E505554535F4C4F574552D9
:10243C00004F4B204D4F4E49544F52004F4B204DA7
:10244C004F4E49544F525F4C4F574552004F4B2003
:10245C00544553545F4C4F574552004F4B205354E7
:10246C004F500048454C500053574545505F555010
:10247C005045520045525220757361676520535781
:10248C004545505F555050455220484F4D457C5462
:10249C00524156454C0053574545505F4C4F57459C
:1024AC00520045525220757361676520535745455C
:1024BC00505F4C4F57455220484F4D457C5452412C
:1024CC0056454C0045525220554E4B4E4F574E00E0
:1024DC0050524F472025732070773D256420646946
:1024EC00723D2573206F70656E3D25642075683DC7
:1024FC0025642075743D2564206C683D2564206C32
:06250C00743D256400008F
:00000001FF
