:100000000C945C010C9484010C9484010C94840184
:100010000C9484010C9484010C9484010C9484014C
:100020000C9484010C9484010C9484010C94661645
:100030000C9484010C9484010C9484010C9484012C
:100040000C94C4150C9484010C9434160C940E1664
:100050000C9484010C9484010C9484010C9484010C
:100060000C9484010C9484014E414E494E495459DC
:10007000494E46CDCCCC3D0AD7233C17B7D1387773
:10008000CC2B329595E6241FB14F0A000020410089
:1000900000C84200401C4620BCBE4CCA1B0E5AAED3
:1000A000C59D7400407A10F35A00A0724E180900E2
:1000B00010A5D4E80000E87648170000E40B5402CD
:1000C0000000CA9A3B000000E1F505000080969808
:1000D00000000040420F000000A086010000001058
:1000E0002700000000E8030000000064000000009A
:1000F000000A00000000000100000000002C76D87B
:1001000088DC674F0823DFC1DFAE59E1B1B796E560
:10011000E3E453C63AE651997696E8E6C28426EBC4
:10012000898C9B62ED407C6FFCEFBC9C9F40F2BAD7
:10013000A56FA5F490055A2AF75C936B6CF9676D6F
:10014000C11BFCE0E40D47FEF520E6B500D0ED90C4
:100150002E0300943577050080841E080000204E91
:100160000A000000C80C333333330F986E1283112A
:1001700041EF8D2114893BE65516CFFEE6DB18D101
:10018000844B381BF77C1D901DA4BBE424203284D3
:10019000725E228100C9F124ECA1E53D27206C7438
:1001A0003D00206C683D002075743D002075683D61
:1001B00000206469723D0020706C3D002070753D28
:1001C0000050524F472073743D005245414459003E
:1001D0004D4F544F525F4F4E4C59004D4F56455F57
:1001E0004C4F5745524D4D004D4F56455F55505061
:1001F00045524D4D004D4F5645424F54484D4D00D0
:100200005345454B5F54524156454C00484F4D4570
:100210005F4C4F57455200484F4D455F5550504534
:100220005200484F4D45005345544D4543484F46B5
:100230004600434C524641554C54004553544F5090
:100240000053544F50005354415455530050494E9D
:100250004700455252204C494E4500000000002402
:100260000027002A0000000000250028002B0000C5
:1002700000000023002600290004040404040404F0
:100280000402020202020203030303030301020445
:100290000810204080010204081020010204081008
:1002A0002000000008000201000003040700000015
:1002B000000000000000901911241FBECFEFD8E00D
:1002C000DEBFCDBF14E0A0E0B1E0EEE8F0E502C093
:1002D00005900D92A233B107D9F726E0A2E3B4E06E
:1002E00001C01D92AF31B207E1F711E0CCE5D1E0DA
:1002F00004C02197FE010E942B24CB35D107C9F7FA
:100300000E94071A0C9445280C940000833081F059
:1003100028F4813099F08230A9F008958730A9F04F
:100320008830C9F08430B1F4809180008F7D03C0A3
:10033000809180008F7780938000089584B58F77B7
:1003400084BD089584B58F7DFBCF8091B0008F77F9
:100350008093B00008958091B0008F7DF9CFCF9346
:10036000DF93282F30E0F901EF55FD4F8491F9011B
:10037000E357FD4FD491F901E758FD4FC491CC23C9
:10038000A1F081110E948601EC2FF0E0EE0FFF1F1B
:10039000E159FD4FA591B491EC91ED2381E090E0FE
:1003A00009F480E0DF91CF91089580E090E0FACFEA
:1003B0001F93CF93DF93282F30E0F901EF55FD4FC6
:1003C0008491F901E357FD4FD491F901E758FD4FAE
:1003D000C491CC23A9F0162F81110E948601EC2F25
:1003E000F0E0EE0FFF1FEB59FD4FA591B4918FB7D1
:1003F000F894EC91111108C0D095DE23DC938FBFE7
:10040000DF91CF911F910895DE2BF8CFCF93DF932B
:1004100090E0FC01E357FD4F249187589D4FFC016C
:1004200084918823D1F090E0880F991FFC01E55A50
:10043000FD4FA591B491FC01EB59FD4FC591D491AD
:10044000623071F49FB7F8943C91822F809583239A
:100450008C93E8812E2B28839FBFDF91CF91089545
:100460008FB7F894EC912E2B2C938FBFF6CF1F9360
:10047000CF93DF93EC01162F88818C3008F050C0A9
:1004800061E0812F0E9406028881282F30E0F90167
:10049000EE0FFF1FE20FF31FEE50FA4F1F73608144
:1004A000607C612B60839FEF998394EF9A832CE0AB
:1004B000622F0E941F24829FB001112430E020E0AF
:1004C000AB01420F531FFA01EE0FFF1FE40FF51FA0
:1004D000EE50FA4F908196FD16C02F5F3F4F2C30A3
:1004E000310571F781110FC01092800082E0809376
:1004F00081001092850010928400B19A80916F0063
:10050000826080936F00E8818E2F90E0FC01EE0FF7
:10051000FF1FE80FF91FEE50FA4F8081806480833F
:100520008881DF91CF911F9108953FB7F894809112
:10053000720490917304A0917404B091750426B56F
:10054000A89B05C02F3F19F00196A11DB11D3FBF0B
:10055000BA2FA92F982F8827BC01CD01620F711DDA
:10056000811D911D42E0660F771F881F991F4A95D4
:10057000D1F708958F929F92AF92BF92CF92DF9260
:10058000EF92FF924B015C010E9495026B017C018E
:100590000E9495026C197D098E099F09683E73407F
:1005A00081059105A8F321E0821A9108A108B108FC
:1005B00088EEC80E83E0D81EE11CF11C8114910462
:1005C000A104B10429F7FF90EF90DF90CF90BF9086
:1005D000AF909F908F9008952FB7F89460916E041C
:1005E00070916F0480917004909171042FBF0895F1
:1005F000AF92BF92CF92DF92EF92FF920F931F9331
:10060000CF93DF936C017B018B01040F151FEB016E
:100610005E01AE18BF08C017D10759F06991D60125
:10062000ED91FC910190F081E02DC6010995892B97
:1006300079F7C501DF91CF911F910F91FF90EF9056
:10064000DF90CF90BF90AF900895FC01538D448D03
:10065000252F30E0842F90E0821B930B541710F06D
:10066000CF96089501970895FC01918D828D98177A
:1006700061F0A28DAE0FBF2FB11D5D968C91928D52
:100680009F5F9F73928F90E008958FEF9FEF089583
:10069000FC01918D828D981731F0828DE80FF11D4C
:1006A000858D90E008958FEF9FEF0895FC01918D67
:1006B000228D892F90E0805C9F4F821B91098F7360
:1006C0009927089585E595E00E94560321E0892B3E
:1006D00009F420E0822F089580E090E0892B29F032
:1006E0000E94620381110C9400000895FC01A48D06
:1006F000A80FB92FB11DA35ABF4F2C91848D90E044
:1007000001968F739927848FA689B7892C93A08926
:10071000B1898C91837080648C93938D848D9813B0
:1007200006C00288F389E02D80818F7D8083089543
:10073000EF92FF920F931F93CF93DF93EC0181E031
:10074000888F9B8D8C8D98131AC0E889F9898081D8
:1007500085FF15C09FB7F894EE89FF896083E8890B
:10076000F98980818370806480839FBF81E090E0FD
:10077000DF91CF911F910F91FF90EF900895F62E8A
:100780000B8D10E00F5F1F4F0F731127E02E8C8D24
:100790008E110CC00FB607FCFACFE889F989808169
:1007A00085FFF5CFCE010E947603F1CFEB8DEC0FE4
:1007B000FD2FF11DE35AFF4FF0829FB7F8940B8F86
:1007C000EA89FB8980818062CFCF0F931F93CF93FB
:1007D000DF938C01D0E0C0E0F801EC0FFD1F6491C5
:1007E000662341F085E595E00E949803892B11F07E
:1007F0002196F2CFCE01DF91CF911F910F910895F5
:10080000CF93DF93EC01888D8823B9F0AA89BB8947
:10081000E889F9898C9185FD03C0808186FD0DC032
:100820000FB607FCF7CF8C9185FFF2CF808185FF53
:10083000EDCFCE010E947603E9CFDF91CF910895ED
:10084000DC01EC91EC3090F511968C91119728E831
:1008500030E0281B310987FD3395220F331F220F0B
:10086000331F6217730784F012968C9128E532E0EB
:10087000281B310987FD3395220F331F220F331FA9
:10088000621773070CF49B0122503109220F331FAA
:100890004FB7F8948E2F90E0FC01EE0FFF1FE80F8A
:1008A000F91FEE50FA4F328321834FBF08954F92C4
:1008B0005F926F927F928F929F92AF92BF92CF92F0
:1008C000DF92EF92FF920F931F93CF93DF9300D0AD
:1008D00000D000D0CDB7DEB79E838D832A013B01C7
:1008E000480159011E2D0C2DDC018D919D910D901B
:1008F000BC91A02D89839A83AB83BC839C01AD01FD
:10090000CB01B2010E9431246B017C019F77A501CC
:1009100094010E94852218160CF480C0ED81FE819E
:100920004082518262827382ED81FE81808091805B
:10093000A280B38020E030E0A901C501B4010E948B
:10094000852287FD88C020E030E044EB52E4C501F9
:10095000B4010E94102518160CF481C0AD81BE812F
:100960008D929D92AD92BC9213978091540583FD18
:100970003EC01123C9F020E030E0A901C701B60153
:100980000E94852287FF10C02DEC3CEC4CE45EE316
:10099000C501B4010E948522181634F0ED81FE8154
:1009A0001082118212821382002309F120E030E0CC
:1009B000A901C701B6010E9410251816C4F42AE93E
:1009C00039E943EB52E4AD81BE816D917D918D910A
:1009D0009C910E94102587FD0AC080E090E0A4EB66
:1009E000B2E4ED81FE8180839183A283B383269656
:1009F0000FB6F894DEBF0FBECDBFDF91CF911F9130
:100A00000F91FF90EF90DF90CF90BF90AF909F90AD
:100A10008F907F906F905F904F90089520E030E02E
:100A2000A901C701B6010E941025181624F0B7FAD3
:100A3000B094B7F8B094A501940169817A818B8153
:100A40009C810E943224AD81BE816D937D938D93F4
:100A50009C93139769CF812C912C54017FCF812CCB
:100A6000912C84EBA82E82E4B82E78CF0E94EC0261
:100A700060934E0470934F048093500490935104FC
:100A800010924A0410924B0410924C0410924D04A0
:100A900080917E0490917F04A0918004B0918104A4
:100AA0008093460490934704A0934804B09349046C
:100AB0008091820490918304A0918404B091850474
:100AC0008093420490934304A0934404B09345045C
:100AD000089580917E0490917F04A0918004B0914C
:100AE000810480937A0490937B04A0937C04B09358
:100AF0007D048091820490918304A0918404B0913C
:100B000085048093760490937704A0937804B0933F
:100B1000790410924E0410924F04109250041092D7
:100B2000510410924A0410924B0410924C041092FB
:100B30004D0408958091000180FF0AC090915405F2
:100B400091FD06C02EE133E030930A0120930901A4
:100B500081FF0AC08091540582FD06C086ED94E0B5
:100B600090930801809307010895CF93C091540595
:100B7000C3FD0E949A05C77FC09354051092530588
:100B8000CF910C946905CF93DF93C6E3D4E0833013
:100B900051F0C5E3D4E08F3031F0C3E3D4E08E30C0
:100BA00011F0C4E3D4E00E94AF01892B69F488817D
:100BB000883010F48F5F888381E09881983008F442
:100BC00080E0DF91CF9108951882F6CF1092330420
:100BD000109235041092360410923404089580FF68
:100BE00015C09091320490FF11C0E0911A062E2F8B
:100BF00030E0F901EE0FFF1FE20FF31FEE50FA4F46
:100C000020812F7B20839E7F9093320481FF15C02B
:100C10008091320481FF11C0E09117062E2F30E041
:100C2000F901EE0FFF1FE20FF31FEE50FA4F908114
:100C30009F7B90838D7F80933204089520913204AE
:100C400021FF05C0BC0187E196E00C9420040895C3
:100C50002091320420FF05C0BC018AE196E00C948B
:100C6000200408950F931F93CF93DF93EC0180919D
:100C70004D05882371F000914E0510914F05888134
:100C800099810817190769F410924D0583E0809344
:100C90004C0580914C058823C1F1815080934C050F
:100CA0001AC09801281B390BA901465F5F4F4531D7
:100CB0005105B8F419830883888199816623F1F07E
:100CC00090930C0180930B010E94280688819981E2
:100CD00008171907C9F280E0DF91CF911F910F919A
:100CE0000895121613063CF42AE030E0820F931F99
:100CF00099838883E1CF26EF3FEFF8CF90930E01E1
:100D000080930D010E941E06E1CF81E0E5CFCF93D5
:100D1000DF93EC018091540583FD44C020910501CF
:100D2000309106014091090150910A01C901421711
:100D300053070CF4CA01241735070CF49A014091AB
:100D4000030150910401A0910701B0910801FA013B
:100D5000A417B5070CF4FD014A175B070CF4AD01AD
:100D6000C817D9072CF0CE012C173D070CF4C90188
:100D700090930C0180930B016E177F072CF0FA0102
:100D8000641775070CF4FB01F0930E01E0930D015D
:100D90000E94280680910D0190910E01DF91CF9164
:100DA0000C941E06E6E2F2E022E939E086E292E0E7
:100DB00042E959E0D5CFCF93DF93D82F80FF13C0FE
:100DC000C0913204C0FD0FC062E070E08AE196E09D
:100DD0000E943702C160C093320480910B01909150
:100DE0000C010E942806D1FF15C0C0913204C1FD3C
:100DF00011C069E070E087E196E00E943702C260AE
:100E0000C093320480910D0190910E01DF91CF913A
:100E10000C941E06DF91CF910895CF9320917E040C
:100E200030917F04409180045091810460917A0454
:100E300070917B0480917C0490917D040E94312408
:100E40009F772DEC3CEC4CE45EE30E941025C1E062
:100E50001816ECF0209182043091830440918404B0
:100E600050918504609176047091770480917804A4
:100E7000909179040E9431249F77C1E02DEC3CECE5
:100E80004CE45EE30E94102518160CF0C0E08C2F95
:100E9000CF9108958091540583FD0BC00E940D07EA
:100EA000811107C080915305811103C083E00C9428
:100EB000EF0508958091540580FF08C0982F98721F
:100EC00029F4982F967081E0963009F080E008951B
:100ED000CF93C0915405C3FD04C00E940D07882321
:100EE00069F060E085E00E94D80160E086E00E9441
:100EF000D80161E087E0CF910C94D801C5FD06C010
:100F0000C0FF0EC00E945A0781110AC061E085E04F
:100F10000E94D80160E086E00E94D80160E0EACF3C
:100F200060E085E00E94D80161E0F5CF0E94AF014A
:100F300021E0892B09F020E0822F0895EF92FF92A3
:100F40001F93CF93DF93EC017A01822F6C177D07FB
:100F500084F1A89611E0109352050E94960781270C
:100F60008093510510925005D0934F05C0934E05C4
:100F7000F701808191819E01281B390BC90137FF40
:100F800003C091958195910921E08B3091050CF476
:100F900020E020934D050B971CF4F701D183C0830B
:100FA00010924C05DF91CF911F91FF90EF900C9420
:100FB000E605A897CFCF9F92AF92BF92CF92DF92D4
:100FC000EF92FF920F931F93CF93DF93B82EEB0115
:100FD000942E0E949607882309F461C0911004C0E2
:100FE000CC24C3948FE0B812C12C86E9A82ED12C52
:100FF0000EE412E09AE6E92E99E0F92E8B2D0E947C
:101000009607882331F128813981CC2099F128383D
:1010100099E039072CF4265F3F4F3983288306C0B7
:10102000F982E882D11015C0DC2CC12C888199810D
:10103000992071F190930C0180930B010E94280676
:1010400063E270E080E090E00E94BA02AA94A110EE
:10105000D5CF8B2D0E94960791E08927DF91CF9104
:101060001F910F91FF90EF90DF90CF90BF90AF90C6
:101070009F900895213392E039071CF02A503109DE
:10108000CCCF19830883D110E4CFD82EC82ECECF71
:1010900090930E0180930D010E941E06D1CF81E036
:1010A000DDCF2F923F924F925F926F927F928F92FD
:1010B0009F92AF92BF92CF92DF92EF92FF920F93E7
:1010C0001F93CF93DF9300D000D0CDB7DEB7582E5B
:1010D0008111CAC00091070110910801E09003013D
:1010E000F09004018EE0482E8DE091E09C838B838C
:1010F0009FE0292EC9C03801E016F1060CF456C055
:1011000028E2620E711C580167010E151F0534F0AC
:1011100068010E151F050CF46701570156EF852E67
:1011200099249A94E016F1061CF44AE0842E912C3E
:10113000C3010A979A8389839AE0690E711CEB8137
:10114000FC8180819181E016F106A4F16816790690
:10115000B4F1842D0E949607811169C0822D0E94EE
:101160009607882349F0452D6B817C81822D0E9452
:10117000DB07882309F491C080915405552009F4B8
:101180005FC010927A0410927B0410927C0410923B
:101190007D0410927E0410927F04109280041092BD
:1011A0008104826080935405352C78C038E2631A3C
:1011B0007108AECF29813A818217930754F6842DA6
:1011C0000E9496078111C5CFEB81FC8180819181BE
:1011D000880D991D8A159B05F4F091838083EB811E
:1011E000FC8180819181C816D90614F4D182C08215
:1011F000EB81FC8180819181552091F090930C01CD
:1012000080930B010E94280663E270E080E090E08A
:101210000E94BA0294CFEB81FC81B182A082DFCF21
:1012200090930E0180930D010E941E06EDCF452D77
:101230006B817C81842D0E94DB0781118FCF2DC0B3
:101240001092760410927704109278041092790428
:1012500010928204109283041092840410928504E8
:101260008460809354051AC00091090110910A010D
:10127000E0900501F090060123E0422E2BE031E0E2
:101280003C832B8334E0232E452D6B817C81842D80
:101290000E94DB07382E81112ECF312C832D0F9029
:1012A0000F900F900F90DF91CF911F910F91FF90B2
:1012B000EF90DF90CF90BF90AF909F908F907F90F6
:1012C0006F905F904F903F902F900895CF93C82FCD
:1012D00080FD07C081E0C1FF09C080E0CF910C9480
:1012E000510881E00E9451088111F4CFCF910895F7
:1012F0001F93CF93DF93182FEB010E949607811164
:1013000005C081E0DF91CF911F9108958091520532
:1013100081110BC088819981873222E09207CCF03D
:101320000A979983888380E0EDCF888199818239FB
:1013300029E0920714F40A96F4CF109252058AE637
:1013400099E099838883812F0E9496078111E2CFCB
:10135000D8CF80913B04882311F082E0D3CF81E085
:101360008093520580933B048EE492E099838883B6
:10137000812F0E949607882321F2888199818239E2
:1013800029E09207C4F2E9CF8F929F92AF92BF9269
:10139000CF92DF92EF92FF92C0908604D0908704A4
:1013A000E0908804F090890420E030E0A901C701B2
:1013B000B6010E9432244B015C0180926804909235
:1013C0006904A0926A04B0926B0423E333E347E814
:1013D00052E4C701B6010E9432246B017C01C09225
:1013E0006404D0926504E0926604F0926704AC0154
:1013F0009B01C501B4010E941025181644F4C09247
:101400006804D0926904E0926A04F0926B04FF9041
:10141000EF90DF90CF90BF90AF909F908F90089506
:10142000CF92DF92EF92FF926B017C0120E030E0DF
:10143000A9010E94852287FD11C020E030E044EB25
:1014400052E4C701B6010E941025181654F4C12CAD
:10145000D12C84EBE82E82E4F82E03C0C12CD12CD1
:10146000760120E030E044EB52E4C701B6010E946F
:101470009E2423E333E347E052E40E94EB2220E082
:1014800030E0A9010E943224FF90EF90DF90CF90CE
:101490000895CF92DF92EF92FF9260917E04709157
:1014A0007F0480918004909181040E94100A6B0156
:1014B0007C016091820470918304809184049091F6
:1014C00085040E94100A9B01AC01C701B6010E946D
:1014D0003224FF90EF90DF90CF900895FC010190AF
:1014E0000020E9F73197AF01481B590BBC0185E596
:1014F00095E00C94F802CF93DF930E94E503EC0192
:1015000083E391E00E946E0A8C0F9D1FDF91CF91C3
:1015100008958F929F92AF92BF920F931F93CF9394
:10152000DF93CDB7DEB7A1970FB6F894DEBF0FBE3D
:10153000CDBF19A2423008F44AE08E010F5D1F4F63
:10154000842E912CB12CA12CA50194010E94EE2394
:10155000E62FB901CA01EA30F4F4E05DD801EE9358
:101560008D01232B242B252B79F790E080E0109719
:1015700019F0CD010E946E0AA1960FB6F894DEBF55
:101580000FBECDBFDF91CF911F910F91BF90AF9054
:101590009F908F900895E95CE1CF80918A0484FF49
:1015A00015C0982F9C7E90938A048370823071F4CA
:1015B0008BE894E00E946E0A83E391E00E946E0A39
:1015C00085E595E00E94000410928B040895CF9267
:1015D000DF92EF92FF92CF93DF936C01990FEE08A9
:1015E000FF08F7FE19C06DE285E595E00E949803BB
:1015F000EC0166277727CB016C197D098E099F09BD
:101600004AE00E94890A8C0F9D1FDF91CF91FF90C5
:10161000EF90DF90CF9008954AE0C701B601DF91C7
:10162000CF91FF90EF90DF90CF900C94890AE091DA
:101630005305EE2381F1009711F486E391E0E15028
:1016400025E331E0E73038F4F0E0EE0FFF1FED5E08
:10165000FE4F208131819F938F933F932F938BE394
:1016600091E09F938F931F9280EC8F938BE894E08F
:101670009F938F930E948E2580918A04806180932E
:101680008A04109253058DB79EB70A960FB6F89448
:101690009EBF0FBE8DBF0895CF93DF93EC010E94D4
:1016A0009A058091000180FF0BC0909154059D7FA9
:1016B000909354052EE436E0309306012093050103
:1016C00081FF0BC0909154059B7F909354052CEFA4
:1016D00037E0309304012093030190915405977FE4
:1016E00090619093540510925204109253041092FA
:1016F0005404109255040E94EF05809153058150C7
:10170000833028F4CE01DF91CF910C94170BDF9139
:10171000CF910895CF92DF92EF92FF921F93CF93D4
:10172000DF93182FEB017A01690180915105811136
:101730000AC0812F0E949607811131C081E08093F9
:1017400051050E94E605812F0E94C305882309F4F4
:1017500050C0812F0E9496078823A9F128813981E2
:1017600080914E0590914F05F901E81BF90BCF01CF
:10177000815B9F4F8F39910530F1F70131832083D1
:101780002091520588819981222369F18F34F2E0FA
:101790009F071CF088979983888381E048C08881DF
:1017A000998120915205222381F0873222E092070D
:1017B00014F00A970FC0109252058EE492E09983BC
:1017C00088830E94E60580E032C0823949E09407B0
:1017D00024F40A9699838883F6CF81E0809352059A
:1017E0008AE699E0ECCF8A3629E09207B4F688962B
:1017F000D2CF8881998120915205222301F182392B
:1018000049E0940734F38091500581110CC081E0C8
:1018100080935005109252052AE639E039832883D7
:1018200080935105CECFC6010E944C0B82E0DF9120
:10183000CF911F91FF90EF90DF90CF900895873266
:1018400052E095070CF0B5CF809150058111EBCF98
:1018500081E080935005809352052EE432E0DECF84
:101860000F931F93CF93DF93EC01CB01BA018E014D
:1018700040E00E94B21ECE01BC010196FB01208116
:101880002032D1F3C617D70769F001900020E9F79D
:10189000AF01461B570BCE01DF91CF911F910F91E6
:1018A0000C945025DF91CF911F910F910895CF9205
:1018B000DF92EF92FF920F931F93CF93DF93CDB7F9
:1018C000DEB768970FB6F894DEBF0FBECDBF80912C
:1018D0005305882309F479C040917E0450917F0418
:1018E00060918004709181048E010F5E1F4F21E092
:1018F000C8010E94300C4091820450918304609191
:101900008404709185047E0189E0E80EF11C21E0D9
:10191000C7010E94300C0E94490A20918604309130
:10192000870440918804509189040E943224AB01BD
:10193000BC0121E0CE0101966C010E94300C609147
:101940000D0170910E0140910B0150910C0180919D
:10195000540582FB992790F986958170E091530593
:10196000E15025E331E0E73038F4F0E0EE0FFF1FFF
:10197000ED5EFE4F208131817F936F935F934F9394
:101980001F929F931F928F93DF92CF92FF92EF92BD
:101990001F930F933F932F9385E491E09F938F9331
:1019A0001F9280EC8F938BE894E09F938F930E941B
:1019B0008E2580918A04806180938A041092530559
:1019C0000FB6F894DEBF0FBECDBF68960FB6F89481
:1019D000DEBF0FBECDBFDF91CF911F910F91FF9062
:1019E000EF90DF90CF900895CF93C09100018C2F9E
:1019F0000E946609811123C0C0FF0FC083E00E94CE
:101A00009607882329F084E891E0CF910C944C0B41
:101A100084E00E9496078111F6CFC1FF0DC08EE0D1
:101A20000E949607882319F08BE891E0EECF8FE0B3
:101A30000E9496078111F8CF8DE891E0E6CF609182
:101A40000D0170910E0180910B0190910C010E948B
:101A500087068C2F0E94EF0580915405877E809326
:101A60005405109252041092530410925404109290
:101A70005504809153058150833018F4CF910C9414
:101A8000570CCF9108954F925F926F927F928F92F1
:101A90009F92AF92BF92CF92DF92EF92FF920F93FD
:101AA0001F93CF93DF93C0915405DC2FD870C3FDF3
:101AB00008C01092520410925304109254041092D1
:101AC00055040E94EC026B017C0180915F049091AF
:101AD0006004A0916104B0916204892B8A2B8B2B46
:101AE00041F4C0925F04D0926004E0926104F092ED
:101AF000620480915F0490916004A0916104B091B0
:101B00006204A7019601281B390B4A0B5B0BCA0123
:101B1000B9010E948A2220E030E04AE754E40E94A2
:101B20009E244B015C01C0925F04D0926004E0925D
:101B30006104F092620420E030E0A9010E94852255
:101B4000181644F08FE6882E82E1982E83E8A82E9E
:101B50008AE3B82EDD2309F4E1C28091520490910A
:101B60005304A0915404B09155040097A105B10508
:101B700001F1C81AD90AEA0AFB0A30ECC31634ED9F
:101B8000D30631E0E306F104A0F082E991E0DF91B1
:101B9000CF911F910F91FF90EF90DF90CF90BF906A
:101BA000AF909F908F907F906F905F904F900C942C
:101BB0004C0B0E94EC02C0903E04D0903F04E09099
:101BC0004004F09041049B01AC012C193D094E09E1
:101BD0005F0969017A0133E2C316D104E104F1041B
:101BE00008F4C6C360933E0470933F04809340049E
:101BF0009093410480916304823009F49DC108F000
:101C0000A4C0882309F4D5C0813009F46FC1609164
:101C10000D0170910E0180910B0190910C010E94B9
:101C200087060E94EC02C0903704D0903804E09000
:101C30003904F0903A049B01AC012C193D094E097E
:101C40005F0969017A0134EFC31631E0D306E1047C
:101C5000F10408F48DC360933704709338048093C3
:101C6000390490933A0481EC91E00E94E50360917D
:101C7000630470E06F5F7F4F072E000C880B990B99
:101C80004AE00E94890A8CEB91E00E94E503809172
:101C90000B0190910C010E94E70A87EB91E00E94F2
:101CA000E50380910D0190910E010E94E70A81EBFE
:101CB00091E00E94E5038091520569E4811101C021
:101CC00064E485E595E00E9498038CEA91E00E9427
:101CD000E50384E00E94960790E00E94E70A87EA05
:101CE00091E00E94E50383E00E94960790E00E9445
:101CF000E70A82EA91E00E94E5038FE00E949607DE
:101D000090E00E94E70A8DE991E00E94E5038EE0F1
:101D10000E94960790E00E94E70A83E391E00E9408
:101D20006E0A85E595E0DF91CF911F910F91FF90AD
:101D3000EF90DF90CF90BF90AF909F908F907F906B
:101D40006F905F904F900C940004843009F4C0C1F0
:101D500008F443C1853009F05ACF60E08DE091E08E
:101D60000E943206882309F452CF27EA31E043E08B
:101D700051E06DE071E08EE00E948A0B813009F045
:101D800046CF809103019091040120910701309189
:101D90000801821B930B97FF03C0919581959109D0
:101DA000805591098D3C964008F0EEC00E94F40CDD
:101DB0002ECF8091000180FD06C083E080936304F4
:101DC00010923D0424CF80913D04811129C083E00D
:101DD0000E94960781110AC081E080933D04109211
:101DE000500510923C040E94E60511CF80913C04FE
:101DF000811107C01092520510923B0481E080933C
:101E00003C046BE071E083E00E947809813021F3AB
:101E1000823009F0FCCE8AE991E00E944C0BF7CEAB
:101E200084E00E9496078823F1F084E00E94C305B5
:101E30008823C9F080910B0190910C0190930A01C5
:101E40008093090110927E0410927F041092800406
:101E50001092810423E04BE051E06EE476E00E94B2
:101E60009E0782E036C0C0910B01D0910C01CD36A7
:101E700046E0D4078CF11092520584E00E94960748
:101E800091E089278093510510925005D0934F051A
:101E9000C0934E0580910B0190910C019E01281B6F
:101EA000390BC90137FF03C091958195910921E054
:101EB0008B3091050CF420E020934D050B9724F412
:101EC000D0930C01C0930B0110924C050E94E605C3
:101ED00081E0809363049BCE81E080935205C13002
:101EE00053E0D50754F2C6EFD2E0C7CF61E08BE0F4
:101EF00091E00E943206882309F489CE22EA31E07B
:101F000049E051E06BE071E084E00E948A0B81308F
:101F100009F07DCE10927E0410927F04109280040E
:101F20001092810423E04BE051E06EE476E0809172
:101F3000090190910A0193CF61E08BE091E00E944A
:101F40003206882309F463CE27EA31E045E051E008
:101F50006BE071E083E00E948A0B813009F057CE7C
:101F600080910501909106012091090130910A01AB
:101F7000821B930B97FF03C0919581959109805522
:101F800091098D3C964018F08CEA91E046CF81E0B3
:101F90000E946609811103C084E891E03ECF8091E0
:101FA0000001813091F4DF91CF911F910F91FF904B
:101FB000EF90DF90CF90BF90AF909F908F907F90E9
:101FC0006F905F904F900C94F40C83E080936304C7
:101FD00010923D0410923C041ACE8091000181FFC2
:101FE000E2CF80913D04811115C08EE00E949607DA
:101FF000882309F4F1CE80913C04811107C010922E
:10200000520510923B0481E080933C046DE071E046
:102010008EE0FACE8FE00E949607811138C0C09101
:102020000D01D0910E0110925205CA3148E0D4073B
:102030000CF44BC08FE00E94960791E089278093B3
:10204000510510925005D0934F05C0934E058091D5
:102050000D0190910E019E01281B390BC90137FF1C
:1020600003C091958195910921E08B3091050CF485
:1020700020E020934D050B9724F4D0930E01C093DC
:102080000D0110924C050E94E60584E022CF8FE0FE
:102090000E94C305882319F280910D0190910E01D1
:1020A0009093080180930701109282041092830498
:1020B00010928404109285042EE04DE051E06CEF04
:1020C00077E00E949E0785E004CFC4E2D8E0B2CF5B
:1020D00060E08DE091E00E943206882309F497CDFC
:1020E00022EA31E047E051E06DE071E08FE00E94CC
:1020F0008A0B813009F08BCD1092820410928304F8
:1021000010928404109285042EE04DE051E06CEFB3
:1021100077E08091070190910801D3CFC0FF28C1DB
:1021200020910F0130911001409111015091120145
:10213000C501B4010E94EB224B015C0183E00E94C7
:102140009607C82E84E00E94960740917A04509129
:102150007B0460917C0470917D04E82E95018401DC
:102160008EE794E00E9457048EE00E949607C82EE6
:102170008FE00E9496074091760450917704609119
:10218000780470917904E82E950182E894E00E9429
:102190005704809153058450843080F50E94EC02EE
:1021A0006B017C0180914E0490914F04A0915004EA
:1021B000B09151040097A105B105A1F0A7019601C6
:1021C000281B390B4A0B5B0BDA01C901803C944D8B
:1021D000A140B10538F00E94690582E991E00E94B2
:1021E000170B0CC00E940D07811128C010924A04E1
:1021F00010924B0410924C0410924D04C091530560
:10220000CC2309F4B5C00E940D078111B1C08BEF3A
:102210008C0F833008F08BC0DF91CF911F910F910D
:10222000FF90EF90DF90CF90BF90AF909F908F90F6
:102230007F906F905F904F900C94570C40907E046D
:1022400050907F046090800470908104809082049C
:1022500090908304A0908404B0908504209146045B
:10226000309147044091480450914904C301B201A0
:102270000E9431249F772DEC3CEC4CE45DE30E94FE
:10228000852287FF3BC02091420430914304409156
:10229000440450914504C501B4010E9431249F7744
:1022A0002DEC3CEC4CE45DE30E94852287FF26C0C8
:1022B00080914A0490914B04A0914C04B0914D043C
:1022C0000097A105B10549F4C0924A04D0924B048D
:1022D000E0924C04F0924D0491CFC81AD90AEA0A50
:1022E000FB0A48EBC4164BE0D406E104F10408F401
:1022F00085CF0E94690584EB91E071CF10924A046A
:1023000010924B0410924C0410924D0440924604DB
:1023100050924704609248047092490480924204AB
:1023200090924304A0924404B092450467CFC43015
:10233000F9F483E00E949607811114C08AEB91E0C2
:10234000DF91CF911F910F91FF90EF90DF90CF9091
:10235000BF90AF909F908F907F906F905F904F90C5
:102360000C94170B8EE00E949607882339F354CF04
:10237000DF91CF911F910F91FF90EF90DF90CF9061
:10238000BF90AF909F908F907F906F905F904F9095
:102390000895EF92FF920F931F93CF93DF938C01D9
:1023A000EC0109900020E9F72197C017D10761F0EF
:1023B0008A918D3039F08A3029F090E00E946422B1
:1023C000892B11F01882F1CFE801FE0181917F0184
:1023D000882329F090E00E946422892BA1F4C01781
:1023E000D10799F0FE0101900020E9F7AF014C1BE5
:1023F0005D0BBE01C801DF91CF911F910F91FF903E
:10240000EF900C945025E701E0CFDF91CF911F9121
:102410000F91FF90EF9008958F929F92AF92BF928D
:10242000CF92DF92EF92FF920F931F93CF93DF93A0
:102430006B017C018A01E90120E030E0A9010E94E2
:10244000852287FD46C020E030E044EB52E4C7011E
:10245000B6010E94102518160CF43FC0BE01601B87
:10246000710B072E000C880B990B0E948C224B01DC
:102470005C0120E030E044EB52E4C701B6010E9469
:102480009E249B01AC01C501B4010E94EB220E9475
:102490001525600F711F0C171D072CF4902F812F2D
:1024A0008E01C92FD82F6C177D072CF0EB01061772
:1024B00017070CF4E801CE01DF91CF911F910F9126
:1024C000FF90EF90DF90CF90BF90AF909F908F9054
:1024D0000895C12CD12C7601C1CFC12CD12C84EB15
:1024E000E82E82E4F82EBACFCF93DF932091030138
:1024F00030910401409107015091080160918204DC
:102500007091830480918404909185040E940C1240
:10251000EC01209105013091060140910901509193
:102520000A0160917E0470917F04809180049091F3
:1025300081040E940C12BE01DF91CF910C9487069A
:10254000FF920F931F93CF93DF93D0915405D0FF49
:1025500006C1C82F0E94DB06C09300010C2F027039
:102560001C2F1170C0FF70C0D1FD6EC0DD7FD093F5
:1025700054058EE496E09093060180930501F02EB9
:10258000011190C0D09154058D2F8F7E886080936B
:1025900054050E94EC02609352047093530480939C
:1025A00054049093550410923E0410923F041092EC
:1025B00040041092410410923D0481E08093520542
:1025C000109251051092500510923B0410923C0459
:1025D00010924D0510924C05109237041092380459
:1025E0001092390410923A04C23009F097C083E087
:1025F00080936304FF20D9F02091030130910401FE
:10260000409107015091080160E070E0CB01D2FFDA
:1026100008C0609182047091830480918404909139
:1026200085040E940C1290930E0180930D0160911D
:102630000D0170910E0180910B0190910C010E948F
:1026400087060E94E6055FC0F02E002329F0D2FD28
:1026500020C0112339F18ACFC130D9F484E00E941F
:102660009607882309F482CF809105019091060195
:102670002091090130910A01821B930B97FF03C03F
:10268000919581959109805591098D3C964010F165
:102690006DCFC23099F48FE00E94960781111CC063
:1026A00082E0F82E809154058B7F809354058CEF47
:1026B00097E0909304018093030164CF84E00E942B
:1026C0009607882339F18FE00E949607882311F13D
:1026D0001111CACF0023A9F0809103019091040148
:1026E0002091070130910801821B930B97FF03C0D3
:1026F000919581959109805591098D3C964008F0FE
:10270000A8CF0E94F40C81E0DF91CF911F910F912F
:10271000FF900895112309F432CF28CF109263045B
:10272000112309F467CF20910501309106014091F2
:10273000090150910A0160E070E0CB01D1FF08C0AF
:1027400060917E0470917F04809180049091810457
:102750000E940C1290930C0180930B014BCF80E0F0
:10276000D3CFCF92DF92EF92FF920F931F93CF932D
:1027700088E00E94AF01C82F0E94EC022091020164
:102780002C1751F0C093020160935A0470935B04BC
:1027900080935C0490935D0400915A0410915B0453
:1027A00020915C0430915D046B017C01C01AD10A58
:1027B000E20AF30A97018601093111052105310565
:1027C00080F0209101012C1761F0C0930101C1112B
:1027D00010C06093560470935704809358049093EC
:1027E0005904CF911F910F91FF90EF90DF90CF9000
:1027F0000895009156041091570420915804309187
:102800005904601B710B820B930B6C3D7540810565
:10281000910510F18091530581111CC080915405E0
:1028200083FD18C00E940D07C82F0E94B505809136
:102830005405887F80628093540583ED91E0CC231A
:1028400081F2CF911F910F91FF90EF90DF90CF9089
:102850000C94170BC1E0E9CF8091540580FF18C09C
:1028600090915305911112C083FD10C00E940D0775
:10287000C82F0E94B505809154058E7F8093540522
:10288000CC2309F4AECF84EC91E0DBCFC1E0F1CFF3
:1028900083FDA7CF8F7D8160809354050E945A07E6
:1028A00081119FCF83E0CF911F910F91FF90EF9007
:1028B000DF90CF900C94A012CF9380914B0588238A
:1028C00001F18230E1F4C0918A04C4FD1CC0809102
:1028D000540583FD08C00E940D07811104C080913A
:1028E0005305882361F00E94B1130E94430D80912B
:1028F000540583FF0E9474120E944A07E4CF10928D
:102900008B04CF91089540EC50E06BE874E0CB016C
:102910000E947425CF7EC0938A04F3CF0F931F9338
:10292000CF93DF93D82F062FEFEFE80FF0E0EE0FF5
:10293000FF1FED5EFE4FC08111818091540585FD22
:1029400035C00E94B5058091540580FF4DC080912F
:1029500054058F7E80935405D093530580918A044B
:102960008C7F90914B05892B80938A04802F0E9445
:10297000A012D82F81113CC0109253051F93CF9302
:1029800089ED91E09F938F931F9280EC8F938BE85A
:1029900094E09F938F930E948E258DB79EB70896E3
:1029A0000FB6F8949EBF0FBE8DBF18C01F93CF9374
:1029B0008CEC91E09F938F931F9280EC8F938BE828
:1029C00094E09F938F930E948E258DB79EB70896B3
:1029D0000FB6F8949EBF0FBE8DBFD0E08D2FDF9154
:1029E000CF911F910F910895816080935405AFCFCF
:1029F0008091540583FD11C00E94570CC0918A0438
:102A0000C4FFECCF40EC50E06BE874E0CB010E94D7
:102A10007425CF7EC0938A04E1CF0E945C14DECF80
:102A20000F931F93CF93DF93CDB7DEB72E970FB6DB
:102A3000F894DEBF0FBECDBF0097C1F1FC0120812D
:102A40002223A1F18B01BC014DE050E0CE010196A3
:102A50000E9474251E86CE0101960E94C911FE01B6
:102A600031969EE28191882331F08C32D9F7DF01D3
:102A700011979C93F7CFCE0101960E94D01E282F6C
:102A8000220F292F221F2F3F89F0F80160837183C5
:102A90008283938381E02E960FB6F894DEBF0FBE3B
:102AA000CDBFDF91CF911F910F91089580E0F3CFBB
:102AB000AF92BF92CF92DF92EF92FF920F931F934C
:102AC000CF93DF93CDB7DEB7A8970FB6F894DEBFEC
:102AD0000FBECDBF5B017A0147E250E0BC01CE01E1
:102AE00001960E94742518A660E270E0CE0101965E
:102AF0000E948325009711F410E034C0FC0111926C
:102B00008F016801F80181918F01882329F090E0FD
:102B10000E946422892BA9F7B501CE0101960E947B
:102B20001015882349F3B701C6010E9410158823A8
:102B300019F3F701C080D180E280F38020E030E01B
:102B4000A901C701B6010E9410251816ACF611E0C4
:102B500020E030E040EF52E4C701B6010E94852238
:102B6000181654F2812FA8960FB6F894DEBF0FBE48
:102B7000CDBFDF91CF911F910F91FF90EF90DF902C
:102B8000CF90BF90AF9008951F920F920FB60F9203
:102B900011242F933F938F939F93AF93BF93809173
:102BA0006E0490916F04A0917004B0917104309103
:102BB0006D0423E0230F2D3758F50196A11DB11D9B
:102BC00020936D0480936E0490936F04A09370041F
:102BD000B09371048091720490917304A091740475
:102BE000B09175040196A11DB11D8093720490935C
:102BF0007304A0937404B0937504BF91AF919F9137
:102C00008F913F912F910F900FBE0F901F901895AD
:102C100026E8230F0296A11DB11DD2CF1F920F925D
:102C20000FB60F9211242F933F934F935F936F939F
:102C30007F938F939F93AF93BF93EF93FF9385E51C
:102C400095E00E947603FF91EF91BF91AF919F9124
:102C50008F917F916F915F914F913F912F910F9045
:102C60000FBE0F901F9018951F920F920FB60F92E4
:102C700011242F938F939F93EF93FF93E09165051A
:102C8000F09166058081E0916B05F0916C0582FD05
:102C90001BC0908180916E058F5F8F7320916F05AF
:102CA000821741F0E0916E05F0E0EB5AFA4F958FF4
:102CB00080936E05FF91EF919F918F912F910F90CF
:102CC0000FBE0F901F9018958081F4CF1F920F9226
:102CD0000FB60F9211242F933F934F935F936F93EF
:102CE0007F938F939F93AF93BF93CF93DF93EF9394
:102CF000FF9380915E04C0911606D0E087FF24C048
:102D0000109285001092840080915E048F5F809302
:102D10005E0480915E04082E000C990B8C179D07B1
:102D200024F480915E048C30C4F1809184009091F1
:102D30008500049680349C4908F47AC08091840010
:102D400090918500049676C080915E04082E000C58
:102D5000990B8C179D07C4F6E0915E048E2FEE0F41
:102D6000990BFC01EE0FFF1FE80FF91FEE50FA4F11
:102D7000808186FFC9CFE0915E048E2FEE0F990B04
:102D8000FC01EE0FFF1FE80FF91FEE50FA4F808194
:102D900060E08F730E94D801B7CF209184003091FA
:102DA0008500E0915E048E2FEE0F990BFC01EE0F73
:102DB000FF1FE80FF91FEE50FA4F81819281820FB9
:102DC000931F9093890080938800E0915E048E2F7A
:102DD000EE0F990BFC01EE0FFF1FE80FF91FEE50ED
:102DE000FA4F808186FF11C0E0915E048E2FEE0FB6
:102DF000990BFC01EE0FFF1FE80FF91FEE50FA4F81
:102E0000808161E08F730E94D801FF91EF91DF9183
:102E1000CF91BF91AF919F918F917F916F915F9172
:102E20004F913F912F910F900FBE0F901F901895CB
:102E300080E49CE990938900809388008FEF8093D1
:102E40005E04E3CFCF92DF92EF92FF92CF93DF93B6
:102E50006B017C01EA018E2D880F8F2D881F8F3F1B
:102E600009F450C027E137EB41ED58EBC7010E9450
:102E7000852287FD47C029E334E347E052E4C701D8
:102E8000B6010E9410251816ECF120E030E0A901EF
:102E9000C701B6010E94852287FD30C023E333E3DA
:102EA00047E052E4C701B6010E94102518163CF411
:102EB00083E3C82EDC2C87E0E82E82E4F82E23E39F
:102EC00033E347E052E4C701B6010E949E2420E0AC
:102ED00030E044EB52E40E94EB2220E030E0A90114
:102EE0000E943224688379838A839B8381E0DF9107
:102EF000CF91FF90EF90DF90CF900895C12CD12C0F
:102F00007601DDCF80E0F3CFCF92DF92EF92FF9298
:102F1000CF93282F220F292F221F2F3F51F16B0112
:102F20007C0127E137EB41ED58E360916804709133
:102F3000690480916A0490916B040E943124A70176
:102F400096010E9485221816A4F027E137EB41ED87
:102F500058E36091640470916504809166049091D7
:102F600067040E943224C1E0A70196010E94102547
:102F700087FDC0E08C2FCF91FF90EF90DF90CF9036
:102F800008952F923F924F925F926F927F928F920D
:102F90009F92AF92BF92CF92DF92EF92FF920F93E8
:102FA0001F93CF93DF9300D000D0CDB7DEB7382E7C
:102FB0006A017B0128013901EFEFE80FF0E0EE0F25
:102FC000FF1FED5EFE4F008121808091540585FD3D
:102FD00007C084FF32C02F920F9387EE91E004C0A8
:102FE0002F920F938CEC91E09F938F931F9280EC24
:102FF0008F938BE894E09F938F930E948E250FB65A
:10300000F894DEBF0FBECDBF10E0812F0F900F9060
:103010000F900F90DF91CF911F910F91FF90EF9044
:10302000DF90CF90BF90AF909F908F907F906F90E8
:103030005F904F903F902F9008950E94B50510919A
:103040005405812F81608093540596E081E0391604
:1030500021F087E0381681F083E00E94DB06812FA3
:10306000887229F496E0391209C011FD29C12F9206
:103070000F9384EF91E0B8CF82E0EFCF87E0381272
:1030800035C012FFF4CF209186043091870440911F
:10309000880450918904C701B6010E9431244B0174
:1030A0005C0197E0391227C060917E0470917F0423
:1030B00080918004909181040E94100A9B01AC01D0
:1030C0008A2D880F8B2D881F8F3F59F0C501B401C1
:1030D0000E94312420E030E0A9010E94852287FF70
:1030E0000AC02F920F9388E192E07ECF16701630BF
:1030F00009F0BDCFC8CF8E2D880F8F2D881F8F3F31
:1031000029F42F920F938BE292E06ECF8A2D880FD5
:103110008B2D881F8F3FA9F395E0391280C020E0E6
:1031200030E040E05FE3C501B4010E94EB22AE0154
:103130004F5F5F4F0E942217182F882311F3898059
:103140009A80AB80BC8020E030E0A901C501B401C9
:103150000E94852287FD8EC020E030E044EB52E4DF
:10316000C501B4010E941025181634F4812C912C4D
:1031700024EBA22E22E4B22E89829A82AB82BC82F8
:103180002AE037ED43E25CE3C301B2010E948522ED
:1031900087FD74C020E030E040EF52E4C301B2018B
:1031A0000E941025181634F4412C512C90EF692EF2
:1031B00092E4792E40920F01509210016092110119
:1031C0007092120196E0391262C080927A04909255
:1031D0007B04A0927C04B0927D04309253058091D0
:1031E0008A048C7F90914B05892B80938A040E94DE
:1031F00036050E940D07082F81115EC00E94570CF2
:1032000000918A0404FF01CF40EC50E06BE874E0C9
:10321000CB010E9474250F7E00938A04F6CE86E0CF
:1032200038121FC0609182047091830480918404DD
:10323000909185040E94100A9B01AC01C501B40164
:103240000E9431244B015C0120E030E0A9010E9482
:10325000852287FD56CFAE014F5F5F4FC501B40198
:1032600069CF60917E0470917F0480918004909179
:103270008104E0CF812C912C54017ECF8AE0482E2E
:1032800087ED582E83E2682E8CE3782E93CF87E06B
:10329000381209C08092760490927704A092780444
:1032A000B09279049ACF80927A0490927B04A09293
:1032B0007C04B0927D04EECF0E945C14102FA5CE4A
:1032C00020918604309187044091880450918904AC
:1032D000C701B6010E9431244B015C016091820458
:1032E0007091830480918404909185040E94100A57
:1032F0009B01AC018A2D880F8B2D881F8F3F59F0C1
:10330000C501B4010E94312420E030E0A9010E94EF
:10331000852287FFF0CE2F920F9385E092E064CE56
:10332000109258051092570588EE93E0A0E0B0E0A7
:103330008093590590935A05A0935B05B0935C0563
:1033400085E291E0909356058093550585EC90E0D9
:10335000909362058093610584EC90E090936405FE
:103360008093630580EC90E09093660580936505FB
:1033700081EC90E0909368058093670582EC90E083
:1033800090936A058093690586EC90E090936C05B4
:1033900080936B0510926E0510926F051092700568
:1033A00010927105809116068C3048F591E0980FC7
:1033B0009093160680931A0690E0FC01EE0FFF1F13
:1033C000E80FF91FEE50FA4F88EB9BE09283818360
:1033D000809116068C30B8F491E0980F9093160601
:1033E0008093170690E0FC01EE0FFF1FE80FF91F16
:1033F000EE50FA4F88EB9BE09283818308958FEF24
:1034000080931A06E5CF8FEF809317060895CF9328
:10341000DF93CDB7DEB7CA56D1090FB6F894DEBF39
:103420000FBECDBF789484B5826084BD84B58160C1
:1034300084BD85B5826085BD85B5816085BD80917F
:103440006E00816080936E001092810080918100F7
:1034500082608093810080918100816080938100EF
:10346000809180008160809380008091B1008460B1
:103470008093B1008091B00081608093B000809112
:103480007A00846080937A0080917A0082608093D1
:103490007A0080917A00816080937A0080917A002E
:1034A000806880937A001092C10062E084E00E94FC
:1034B000060262E083E00E94060262E08FE00E9462
:1034C000060262E08EE00E94060261E085E00E9452
:1034D000060261E086E00E94060261E087E00E9449
:1034E000060262E088E00E940602E0916505F09124
:1034F000660582E08083E0916105F09162051082AB
:10350000E0916305F091640580E1808310926D0580
:10351000E0916905F0916A0586E08083E091670596
:10352000F0916805808180618083E0916705F0916A
:103530006805808188608083E0916705F091680567
:10354000808180688083E0916705F09168058081C3
:103550008F7D808368EC70E080E090E00E94BA028A
:103560000E94C4098EE193E090930A0180930901BF
:1035700086ED94E090930801809307018EE496E035
:1035800090930601809305018CEF97E090930401DE
:10359000809303012EE436E04EE153E060E070E0FA
:1035A000CB010E940C1290930C0180930B012CEF25
:1035B00037E046ED54E060E070E0CB010E940C1271
:1035C00090930E0180930D0183E00E94DB066091D1
:1035D0000D0170910E0180910B0190910C010E94E0
:1035E000870683E00E94EF050E94EC0260935F046F
:1035F00070936004809361049093620480ED91E085
:103600000E947B0A0E9468078AEC91E00E947B0A74
:1036100085E595E00E9400042E012DE5420E511C27
:103620003E0185E5680E711CDE01A35BBF4FA796C6
:10363000BFAFAEAFA7971E01B5E42B0E311C6E01D4
:10364000E5E3CE0ED11C7E01FDE3EF0EF11C85E516
:1036500095E00E945603892B09F463C385E595E044
:103660000E943403182F80918A0484FD0E94CD0AA1
:10367000E0916C041A3019F01D3009F03CC3EE23C0
:1036800031F3F0E0E557FB4F108282E080934B0569
:103690008BE894E00E94C9110BE814E0D8018D91E9
:1036A0008D01882339F090E00E944825F801319778
:1036B0008083F4CF60E270E08BE894E00E946225A2
:1036C000009709F011C14FE050E06BE874E0CE01C3
:1036D00085960E9474251CAA198210928B048981F8
:1036E0008E010F5F1F4F811102C010E000E08DA11D
:1036F000882309F42BC16DE472E0CE0185960E9407
:10370000D41E40EC50E060E472E0892B09F43FC124
:1037100066E472E0CE0185960E94D41E892B09F0E2
:1037200003C140917E0450917F04609180047091A8
:10373000810421E0C2010E94300C4091820450912A
:103740008304609184047091850421E0C3010E9488
:10375000300C0E94490A20918604309187044091E0
:103760008804509189040E943224AB01BC0121E0FD
:10377000CE01835B9F4F0E94300C409168045091B2
:10378000690460916A0470916B0421E0C1010E9498
:10379000300C40916404509165046091660470910E
:1037A000670421E0C7010E94300C409186045091CB
:1037B0008704609188047091890422E0C6010E9408
:1037C000300C0E940D071091540501E0811108C0D2
:1037D0008091530501E013FD03C0811101C000E099
:1037E000B0906304B39413FFB12CB0910D01A8966F
:1037F000BFAFA897E0910E01A996EFAFA997F091FE
:103800000B01AA96FFAFAA9720910C01AB962FAFA0
:10381000AB978EE00E949607882E8FE00E94960755
:10382000982E83E00E949607A82E84E00E949607B7
:10383000212FA9969FADA9979F93A896AFADA89762
:10384000AF93AB96BFADAB97BF93AA96EFADAA97D8
:10385000EF931F928F921F929F921F92AF921F928F
:103860008F9311701F921F93DF92CF92FF92EF926E
:103870003F922F9225FB882780F91F928F9324FB7C
:10388000882780F91F928F93809153051F928F9301
:1038900022FB882780F91F928F93269521701F9213
:1038A0002F931F92BF921F920F93A796FFADA797DA
:1038B000FF93A6962FADA6972F937F926F925F925C
:1038C0004F9285E492E09F938F931F9280EC8F93A9
:1038D0008BE894E09F938F930E948E250FB6F89407
:1038E000DEBF0FBECDBF32C0FC0111928F014FE091
:1038F00050E06BE874E0CE0185960E9474251CAA06
:103900005801D8018D918D01882329F090E00E9403
:103910006422892BA9F743E250E0B501CE0101965C
:103920000E9474251CA2D9CE61E472E0CE01859676
:103930000E94D41E892B81F5809153058823C9F0FC
:103940000E94B50584EC91E00E94170B80918B04D6
:10395000882361F08BE894E00E946E0A83E391E093
:103960000E946E0A85E595E00E94000410926C04A6
:103970006ECE8091540583FDE3CF0E940D07811127
:10398000DFCF0E94B50540EC50E062EE72E08BE8BC
:1039900094E00E947425DACF6BE372E0CE01859645
:1039A0000E94D41E892BD9F480915305811115C032
:1039B0008091540583FD11C00E940D07182F0E94AD
:1039C000B50580915405887F80628093540511234A
:1039D00009F4C3C183ED91E0B7CF11E0F0CF62E30A
:1039E00072E0CE0185960E94D41E892BE9F41091D5
:1039F0005405812F8F7C8093540584E00E949607A4
:103A0000811103C01D7C109354058FE00E9496071E
:103A1000811105C0809154058B7F8093540540EC43
:103A200050E06AEE72E0B3CF67E272E0CE018596B5
:103A30000E94D41E892B29F50115110539F466EF72
:103A400072E08BE894E00E946D2580CFB601C8013A
:103A50000E941015882399F30E94B5058DA99EA98F
:103A6000AFA9B8AD8093860490938704A09388048F
:103A7000B09389040E94C40940EC50E06AE073E00E
:103A800086CF62E272E0CE0185960E94D41E892B19
:103A900029F463E081E00E948E1458CF67E172E060
:103AA000CE0185960E94D41E892B19F461E082E034
:103AB000F2CF6CE072E0CE0185960E94D41E892B75
:103AC00019F462E083E0E7CF60E072E0CE01859612
:103AD0000E94D41E892B09F086C08091540585FF71
:103AE00012C0A8E1B3E0BF93AF938CEC91E09F9339
:103AF0008F931F9280EC8F938BE894E09F938F932A
:103B00000E948E25EBCE84FF09C088E193E09F934D
:103B10008F93E7EEF1E0FF93EF93EBCF0E94B505B3
:103B20008091540581608093540583E00E94DB06F8
:103B30000E945A0764E273E0882309F482CF80E090
:103B400090E0A4EBB2E480937A0490937B04A0937A
:103B50007C04B0937D048093760490937704A093C3
:103B60007804B093790480E090E0A4E3B2E4809319
:103B70000F0190931001A0931101B093120184E002
:103B80008093530580918A048C7F90914B05892BFB
:103B900080938A040E9436050E940D07811120C07F
:103BA00083E00E9496078823B1F08EE00E9496077A
:103BB000882389F00E94570C10918A0414FFC6CE06
:103BC00040EC50E06BE874E0CB010E9474251F7E4E
:103BD00010938A04BBCE8AEB91E00E94170BECCFC6
:103BE0000E945C14B3CE65EF71E0CE0185960E9411
:103BF000D41E892B29F50115110519F46EE373E024
:103C000020CFA601B701C8010E9458158823B1F33F
:103C1000D7018D909D90AD90BC90C501B4010E94DC
:103C2000841762E573E0882309F40BCF0DA91EA960
:103C30002FA938ADB501A40185E00E94C11786CE39
:103C400068EE71E0CE0185960E94D41E892B19F58D
:103C50000115110519F460E773E0F3CEA601B70171
:103C6000C8010E9458158823B1F3F7018080918024
:103C7000A280B380C501B4010E94841766E873E096
:103C8000882309F4DECE0DA91EA92FA938ADB501F0
:103C9000A40186E0D2CF6BED71E0CE0185960E9443
:103CA000D41E892B19F50115110519F466EA73E084
:103CB000C8CEA601B701C8010E9458158823B1F3E8
:103CC000D7018D909D90AD90BC90C501B4010E942C
:103CD0008417811103C06CEB73E0B3CE0DA91EA94C
:103CE0002FA938ADB501A40187E0A7CF40EC50E083
:103CF0006CED73E04CCEE83248F481E08E0F809397
:103D00006C04F0E0E557FB4F1083A1CC10926C04DB
:103D100082E592E00E947B0A85E595E00E9400041E
:103D200096CC0E94B1130E94430D8091540583FFED
:103D30000E9474120E944A070E94CD0A0E946807DE
:103D400080E090E0892B09F47ACC0E9462038823FA
:103D500009F475CC0E9400006ECC40EC50E068EE97
:103D600073E015CEEF920F931F93CF93DF93E8018B
:103D700034E047FD34E1042E000C550B57FF03C01F
:103D8000519541955109E32E022F242FAE010E9437
:103D9000DD1ECE01DF91CF911F910F91EF9008951D
:103DA000662777270C943C20FB01DC018D91059060
:103DB00080190110D9F3990B0895A9E0B0E0E3EE62
:103DC000FEE10C94BD236A01F22EB02E102FFBE30E
:103DD000AF2EA01608F41BE31F5F012F27E0AE01F2
:103DE0004F5F5F4F0E948C21BC018981982F997091
:103DF000913009F43FC09BE2E1FC04C09E2D91701C
:103E0000E0FC3AC05E2D5071E82FE87083FF46C099
:103E100084E0911101C083E0EF2DE81B8F1508F0BD
:103E2000E0E0D6018E2F20E2552351F1992329F0AD
:103E3000D6019C93C60101966C0196012D5F3F4F00
:103E4000E2FE24C08EE4D6018C9391E411969C93FB
:103E5000119712968C93D9018E2F90E281111BC07D
:103E6000E20FF32FF11D10828EEF9FEF2996ECE009
:103E70000C94D9239DE2C6CF90E2C4CF2D938150FC
:103E80008111FCCFCE0ED11CE0E0D0CF8EE6D60162
:103E90008C9391E6DBCF9D938150E0CF482F447007
:103EA00082FF3DC084E0911101C083E08F1510F4C2
:103EB000EF2DE81BD6018E2F20E2552309F199231F
:103EC00029F0D6019C93C60101966C0196012D5FE5
:103ED0003F4FE2FE1BC089E4D6018C938EE411961D
:103EE0008C93119786E412968C93D9018E2F90E2D1
:103EF000882309F4B5CF9D938150FACF2D9381503B
:103F00008111FCCFCE0ED11CE0E0D9CF89E6D601DD
:103F10008C938EE611968C93119786E6E4CF9B01E5
:103F200077FF02C030E020E0A1E0B0E0911102C0D4
:103F3000B0E0A0E0F9013196AE0FBF1F8B2C912CA1
:103F4000BB2009F461C05401EFEFAE1ABE0AAA0DFE
:103F5000BB1DFA161B0619F014F04F2D4A1B511108
:103F600088C0E3FC59C07601A42FB0E2A1114FC074
:103F7000C40ED11C992309F45BC040E0D601119610
:103F8000F60190836D01552309F448C0012F060FF7
:103F90009A81582F507184FF03C0913309F4015066
:103FA00010160CF047C0093008F008E0EEE2FE2ED3
:103FB0005B01A01AB10885019194819491082F3F6B
:103FC000320729F4D601FC92F60131966F0162178F
:103FD000730794F1021713077CF5DB01A21BB30BE7
:103FE000AA24A394B12CAC0EBD1EAA0DBB1D119624
:103FF0008C9121503109D601119628153905F4F01C
:10400000F60180836D01DBCFB12CA12CA0CFF7018D
:10401000B1937F01A150AACF9111B0CFD601942FB7
:1040200050E302C05D9391509111FCCFC40ED11C9E
:1040300040E0ACCF01E0BACF80E3DBCF621773077B
:1040400031F4963388F4953311F4552369F0F60171
:104050008083FD01842F90E2811108C0A40FB11D5F
:104060001C9290E080E002CF81E3F1CF91938150E8
:10407000F3CF911183CF8ACFB0E0A0E0E2E4F0E289
:104080000C94BD235C017B016115710519F0DB0106
:104090008D939C9385010F5F1F4FF501D0818D2F6C
:1040A00090E00E9464226C01892BB9F5DD32B9F5EC
:1040B0000F5F1F4FD5011196DC91C1E05801F1E06F
:1040C000AF1AB10843E050E060E770E0C5010E941C
:1040D0006D22892B69F5680182E0C80ED11C45E08C
:1040E00050E06BE670E0C6010E946D22892B21F43E
:1040F000680197E0C90ED11CE114F10419F0D70151
:10410000CD92DC9260E070E080E89FEFC111FFC0CB
:1041100060E070E080E89FE7FAC05801BBCFDB3277
:1041200029F485010E5F1F4FF501D181C0E0C6CF94
:1041300043E050E068E670E0C5010E946D22892BE3
:10414000E9F0F80110E000E020E030E0A9015F01B3
:10415000B0ED8B2E8D0E89E08815C8F19C2E6894E9
:1041600091F88C2F8870C2FF16C0811102C00F5FBA
:104170001F4F3196D501DC91C92DE9CFE114F1042F
:1041800029F00E5F1F4FF7011183008360E070E09C
:1041900080EC9FE7BCC0882311F001501109A5E015
:1041A000B0E00E94AC239B01AC01220F331F441FDF
:1041B000551F280D311D411D511D283999E9390719
:1041C000490799E15907A8F2C6609C2ED2CFAEEFFD
:1041D0008A1206C0C3FD3CC09C2E689493F8C9CFD8
:1041E000DF7DD534A9F580818D3239F4C061DF01DE
:1041F0001296818162E070E006C0DF018B32C1F36C
:10420000119661E070E080535D01A61AB70A8A300A
:10421000F8F4E0E8CE16ECE0DE065CF4B601660FDA
:10422000771F660F771FC60ED71ECC0CDD1CC80E7D
:10423000D11C5D01FFEFAF1ABF0A8C9180538A3009
:10424000A8F1C4FF03C0D194C194D1080C0D1D1D69
:10425000C1FF09C0E114F10431F081E0A81AB108EE
:10426000D701AD92BC92CA01B9010E948A22C370E3
:10427000C33009F490584B015C0120E030E0A90103
:104280000E948522882309F440C0CFE9D0E017FFBF
:1042900005C0119501951109C7E8D0E06E01B8E19C
:1042A000CB1AD10880E2E82EF12C0FC0D501B1CF96
:1042B000FE0125913591459154910E191F09C501B3
:1042C000B4010E94EB224B015C01D501C4010E1523
:1042D0001F0574F72497F594E794CC16DD06A9F72B
:1042E0008A2F880F8B2F881F8F3F49F020E030E006
:1042F000A901C501B4010E948522811106C082E294
:1043000090E090931E0680931D06C501B401CDB7C1
:10431000DEB7ECE00C94D923283008F027E03327EF
:10432000DA01990F311D87FD9160009661057105D5
:1043300039F432602E5F3D9330E32A95E1F708951A
:104340009F3F30F080387105610509F03C5F3C5FAC
:104350003D93913008F08068911DDF93CF931F93B8
:104360000F93FF92EF92192F987F9695E92F9695CC
:104370009695E90FFF27E350FF4F99273327EE2447
:10438000FF24A701E70105900894079428F4360F4D
:10439000E71EF81E491F511D660F771F881F991FC2
:1043A0000694A1F70590079428F4E70EF81E491F1C
:1043B000561FC11D770F881F991F661F0694A1F70E
:1043C0000590079428F4F80E491F561FC71FD11DEA
:1043D000880F991F661F771F0694A1F70590079411
:1043E00020F4490F561FC71FD81F990F661F771F4C
:1043F000881F0694A9F784911095177041F0D695FF
:10440000C79557954795F794E7941A95C1F7E3EA4E
:10441000F0E068941590159135916591959105900E
:104420007FE27395E118F10A430B560BC90BD009D3
:10443000C0F7E10CF11E431F561FC91FD01D7EF4AB
:10444000703311F48A95E6CFE894015030F0080FEC
:104450000AF40027021708F4202F2395022F7A333D
:1044600028F079E37D932A95E9F710C07D932A958A
:1044700089F6069497956795379517951794E118DF
:10448000F10A430B560BC90BD00998F023957E9186
:1044900073957A3308F070E37C932013B8F77E911C
:1044A00070617D9330F0839571E37D9370E32A957D
:1044B000E1F71124EF90FF900F911F91CF91DF91C1
:1044C000992787FD9095089591110C945823803277
:1044D00019F089508550C8F70895FB01DC0141505F
:1044E000504088F08D9181341CF08B350CF4805E47
:1044F000659161341CF06B350CF4605E861B6111B4
:1045000071F3990B0895881BFCCF0E94C72208F411
:1045100081E00895E89409C097FB3EF4909580955A
:10452000709561957F4F8F4F9F4F9923A9F0F92F79
:1045300096E9BB279395F695879577956795B795F7
:10454000F111F8CFFAF4BB0F11F460FF1BC06F5FDD
:104550007F4F8F4F9F4F16C0882311F096E911C0EF
:10456000772321F09EE8872F762F05C0662371F010
:1045700096E8862F70E060E02AF09A95660F771F24
:10458000881FDAF7880F9695879597F90895990F00
:104590000008550FAA0BE0E8FEEF16161706E8070D
:1045A000F907C0F012161306E407F50798F0621B2E
:1045B000730B840B950B39F40A2661F0232B242B03
:1045C000252B21F408950A2609F4A140A6958FEF22
:1045D000811D811D08950E94FE220C9472230E9469
:1045E000642338F00E946B2320F0952311F00C9483
:1045F0005B230C94612311240C94A6230E94832333
:1046000070F3959FC1F3950F50E0551F629FF00125
:10461000729FBB27F00DB11D639FAA27F00DB11D3E
:10462000AA1F649F6627B00DA11D661F829F2227C7
:10463000B00DA11D621F739FB00DA11D621F839F4E
:10464000A00D611D221F749F3327A00D611D231F24
:10465000849F600D211D822F762F6A2F11249F5772
:1046600050409AF0F1F088234AF0EE0FFF1FBB1F75
:10467000661F771F881F91505040A9F79E3F510534
:1046800080F00C945B230C94A6235F3FE4F3983EE8
:10469000D4F3869577956795B795F795E7959F5FDE
:1046A000C1F7FE2B880F911D9695879597F9089570
:1046B00099278827089597F99F6780E870E060E060
:1046C00008959FEF80EC089500240A9416161706AB
:1046D00018060906089500240A94121613061406F3
:1046E00005060895092E0394000C11F4882352F056
:1046F000BB0F40F4BF2B11F460FF04C06F5F7F4F0E
:104700008F4F9F4F089557FD9058440F551F59F0F4
:104710005F3F71F04795880F97FB991F61F09F3FAE
:1047200079F087950895121613061406551FF2CFD7
:104730004695F1DF08C0161617061806991FF1CF27
:1047400086957105610508940895E894BB2766274E
:104750007727CB0197F908950E941024A59F900D0B
:10476000B49F900DA49F800D911D112408952F9248
:104770003F924F925F926F927F928F929F92AF92F1
:10478000BF92CF92DF92EF92FF920F931F93CF933E
:10479000DF93CDB7DEB7CA1BDB0B0FB6F894DEBFD5
:1047A0000FBECDBF09942A88398848885F846E84FB
:1047B0007D848C849B84AA84B984C884DF80EE8045
:1047C000FD800C811B81AA81B981CE0FD11D0FB64E
:1047D000F894DEBF0FBECDBFED010895A1E21A2E01
:1047E000AA1BBB1BFD010DC0AA1FBB1FEE1FFF1F95
:1047F000A217B307E407F50720F0A21BB30BE40BE5
:10480000F50B661F771F881F991F1A9469F760952B
:104810007095809590959B01AC01BD01CF010895E5
:10482000A29FB001B39FC001A39F700D811D1124F1
:10483000911DB29F700D811D1124911D0895991B2A
:1048400079E004C0991F961708F0961B881F7A9587
:10485000C9F780950895EE0FFF1F0590F491E02DA4
:1048600009945058BB27AA270E9449240C9472230C
:104870000E94642338F00E946B2320F039F49F3F9C
:1048800019F426F40C9461230EF4E095E7FB0C94E4
:104890005B23E92F0E94832358F3BA17620773073B
:1048A0008407950720F079F4A6F50C94A5230EF45F
:1048B000E0950B2EBA2FA02D0B01B90190010C0130
:1048C000CA01A0011124FF27591B99F0593F50F448
:1048D000503E68F11A16F040A22F232F342F4427A0
:1048E000585FF3CF469537952795A795F040539598
:1048F000C9F77EF41F16BA0B620B730B840BBAF068
:104900009150A1F0FF0FBB1F661F771F881FC2F7D2
:104910000EC0BA0F621F731F841F48F487957795E6
:104920006795B795F7959E3F08F0B0CF9395880FA0
:1049300008F09927EE0F9795879508950E94B22465
:104940000C9472230E946B2358F00E94642340F061
:1049500029F45F3F29F00C945B2351110C94A6239A
:104960000C9461230E94832368F39923B1F35523A8
:1049700091F3951B550BBB27AA2762177307840772
:1049800038F09F5F5F4F220F331F441FAA1FA9F308
:1049900035D00E2E3AF0E0E832D091505040E695F6
:1049A000001CCAF72BD0FE2F29D0660F771F881F57
:1049B000BB1F261737074807AB07B0E809F0BB0B4A
:1049C000802DBF01FF2793585F4F3AF09E3F51055E
:1049D00078F00C945B230C94A6235F3FE4F3983E9D
:1049E000D4F3869577956795B795F7959F5FC9F747
:1049F000880F911D9695879597F90895E1E0660FC8
:104A0000771F881FBB1F621773078407BA0720F040
:104A1000621B730B840BBA0BEE1F88F7E0950895A9
:104A20000E94C72208F48FEF08950E948B2358F14B
:104A30009E5760F19851A0F0E9F0983020F5092ECA
:104A40009927660F771F881F991F0A94D1F712C004
:104A5000062E672F782F8827985F11F4000C07C067
:104A6000993FB4F38695779567959395D9F7611D2E
:104A7000711D811D3EF490958095709561957F4FD5
:104A80008F4F9F4F089568940C94A6230C94A523F0
:104A90009111089581568A5108F4805285580895DD
:104AA0006817790768F4FB01DC01E40FF51FA40F18
:104AB000B51F02C002900E9241505040D8F70895A1
:104AC0000C94A327FC018191861721F08823D9F744
:104AD000992708953197CF010895FB01DC010190DA
:104AE0000D920020E1F70895FB01DC014150504098
:104AF00048F001900D920020C9F701C01D9241506D
:104B00005040E0F70895FC0181E090E00190061626
:104B100009F4CF010020D1F701970895AEE0B0E08D
:104B2000E4E9F5E20C94C5230D891E898F89988DDF
:104B300026E02C831A83098397FF02C080E090E867
:104B400001979E838D83AE01455E5F4F698D7A8D9F
:104B5000CE0101960E94BE254D815E8157FD0AC09F
:104B60002F813885421753070CF49A01020F131F47
:104B7000F80110822E96E4E00C94E123ABE0B0E063
:104B8000E4ECF5E20C94B7237C013B018A01FC01C3
:104B900017821682838181FFC8C1CE0101965C0114
:104BA000F7019381F30193FD859193FF81913F017B
:104BB000882309F453C1853239F493FD859193FF1D
:104BC00081913F01853229F4B70190E00E94B72717
:104BD000E7CF912C212C312CFFE1F31538F08B32EB
:104BE00011F190F4803209F1833229F137FC3CC095
:104BF00020ED280F2A3050F536FE20C08AE0989E1E
:104C0000200D1124922E06C08D3291F0803371F761
:104C1000689430F8F30193FD859193FF81913F01F2
:104C20008111DACF21C0689431F8689432F8F2CF5C
:104C3000689433F8EFCF689434F8ECCFEAE02E9E16
:104C4000200D1124222E689435F8E4CF8E3229F4F9
:104C500036FC04C1689436F8DDCF8C3619F46894BC
:104C600037F8D8CF8836B1F2982F9F7D955493307E
:104C7000E0F08336A1F18337C1F1833509F063C0D9
:104C80002801F2E04F0E511CF801C080D180692D3F
:104C900070E036FC02C06FEF7FEFC6010E949827DC
:104CA0004C01689437F882010AC00C5F1F4FFFE384
:104CB000F98388248394912C6501E89437F833FEB6
:104CC0002DC0522C8114910471F5552009F468CF40
:104CD000B70180E290E00E94B7275A94F6CFF8011E
:104CE000808189830E5F1F4FE4CF2801F2E04F0ED1
:104CF000511CF801C080D180692D70E036FC02C0E3
:104D00006FEF7FEFC6010E94AC274C018201D5CF27
:104D1000B70180E290E00E94B7272A942814190472
:104D200009F0B0F7CECFF60137FC859137FE8191BF
:104D30006F01B70190E00E94B72751105A94F1E03B
:104D40008F1A9108BFCF843619F0893609F077C0E1
:104D5000F80137FE6BC060817181828193810C5FA5
:104D60001F4FF32DFF763F2E97FF09C0909580953A
:104D7000709561957F4F8F4F9F4F689437F82AE069
:104D800030E0A5010E94E727C82ECA188C2C432CBE
:104D900036FE0CC0E89440F8C91440F434FE05C057
:104DA00032FC03C0F32DFE7E4F2E892C44FE95C0AD
:104DB000FE01EC0DF11D8081803309F087C0242DA8
:104DC000297E422E842D8870582E43FC95C040FECB
:104DD0008FC09C2C821418F42C0C922C981844FE32
:104DE00091C0B70180E390E00E94B72742FE09C05E
:104DF00088E790E041FE02C088E590E0B7010E949C
:104E0000B727C91408F48AC0CA94D12C9FEFC91AD5
:104E1000D90ACA0CDB1CF60182916F01B70190E040
:104E20000E94B727AC14BD04B1F74FCF60817181E8
:104E3000072E000C880B990B0E5F1F4F92CFD32CBF
:104E4000E894D4F82AE030E0853739F1232D297F22
:104E5000D22E8F3601F148F48835A9F0F70186810A
:104E600097812B96E2E10C94D323803749F0883761
:104E7000A9F7D4FE02C06894D2F820E130E00DC05A
:104E80006894D4F8F6CF34FE03C0822F8660D82E03
:104E900020E132E002C028E030E0F801D7FE0FC088
:104EA00060817181828193810C5F1F4FA5010E94F7
:104EB000E727C82ECA183D2CE89437F867CF6081E1
:104EC000718190E080E00E5F1F4FF0CF42FC02C086
:104ED000839478CF8394839475CF842D867809F456
:104EE00071CFF6CFB70180E290E00E94B72783949C
:104EF0008214C0F3512C73CF522C5818821408F42A
:104F00006ECFF8CF842D867809F47BCF8BE241FEFB
:104F100080E247FC8DE2B70190E071CFB70180E3FA
:104F200090E00E94B7279A946CCF8FEF9FEF99CFB4
:104F3000FC010590615070400110D8F78095909564
:104F40008E0F9F1F0895FB01DC0102C001900D929E
:104F500041505040D8F70895FC01615070400190D5
:104F60000110D8F7809590958E0F9F1F08950F938D
:104F70001F93CF93DF93182F092FEB018B8181FDB6
:104F800009C01FEF0FEF812F902FDF91CF911F915D
:104F90000F91089582FF14C02E813F818C819D81E5
:104FA000281739073CF4E881F981CF0101969983EC
:104FB000888310838E819F8101969F838E83E3CFA8
:104FC000E885F985812F0995892BA1F3DACFFA01BC
:104FD000AA27283051F1203181F1E8946F936E7F38
:104FE0006E5F7F4F8F4F9F4FAF4FB1E03ED0B4E029
:104FF0003CD0670F781F891F9A1FA11D680F791F6A
:105000008A1F911DA11D6A0F711D811D911DA11D7A
:1050100020D009F468943F912AE0269F112430198A
:10502000305D3193DEF6CF010895462F4770405D25
:105030004193B3E00FD0C9F7F6CF462F4F70405DD4
:105040004A3318F0495D31FD4052419302D0A9F72F
:10505000EACFB4E0A6959795879577956795BA9529
:10506000C9F700976105710508959B01AC010A2EEF
:1050700006945795479537952795BA95C9F7620FC6
:0E508000731F841F951FA01D0895F894FFCF85
:10508E00030101FC074E06D6041E034E06FC070064
:10509E00003442F103F603010418030C0417042430
:1050AE0004000000009803F80225030004560334A0
:1050BE000348030D0A006661696C004552522025B3
:1050CE007320257300444F4E4520257320753D25D2
:1050DE0073206C3D257320683D257320686F6D65C8
:1050EE006455707065723D256420686F6D65644C03
:1050FE006F7765723D25642070753D256420706C58
:10510E003D256400755F72657374006C5F72657324
:10511E00740074696D656F757400545F7374756394
:10512E006B006E6F5F48006E6F5F540063616C5F63
:10513E00626164007374616C6C006E6F5F74726197
:10514E0076656C0073746F70706564004552522002
:10515E002573206573746F7000455252202573209D
:10516E006661696C65640045525220257320666144
:10517E00756C7400455252202573206E6F745F72E9
:10518E006561647900455252202573206C6F7765F6
:10519E00725F6669786564004552522025732075EA
:1051AE00707065725F66697865640045525220259D
:1051BE007320685F756E726561636861626C65000D
:1051CE00504F4E4700753D2573206C3D257320686A
:1051DE003D257320627573793D257520686F6D6569
:1051EE0053743D257520686F6D65645570706572DA
:1051FE003D257520686F6D65644C6F7765723D2532
:10520E0075206173796E633D2575206661756C74CA
:10521E003D2575206573746F703D257520686D6929
:10522E006E3D257320686D61783D2573206D656335
:10523E00684F66663D257320656E3D257520756841
:10524E003D25752075743D2575206C683D257520AE
:10525E006C743D25752070753D256420706C3D2560
:10526E0064004F4B2053544F50004F4B20434C5231
:10527E004641554C5400455252205345544D4543DA
:10528E00484F46462061726773004F4B205345547A
:10529E004D4543484F4646005345454B5F5452419A
:1052AE0056454C00455252205345454B5F54524192
:1052BE0056454C206E6F745F72656164790045527D
:1052CE0052204D4F5645424F54484D4D2061726706
:1052DE007300455252204D4F5645424F54484D4D46
:1052EE0020685F6F75745F6F665F72616E676500D1
:1052FE00455252204D4F56455F55505045524D4DDB
:10530E00206172677300455252204D4F56455F55CE
:10531E00505045524D4D20685F6F75745F6F665FDC
:10532E0072616E676500455252204D4F56455F4C77
:10533E004F5745524D4D20617267730045525220B2
:10534E004D4F56455F4C4F5745524D4D20685F6F40
:10535E0075745F6F665F72616E67650045525220AD
:10536E00554E4B4E4F574E004F4B204553544F50BA
:10537E0000484F4D4500484F4D455F5550504552E2
:10538E0000484F4D455F4C4F574552004D4F5645C7
:10539E00424F54484D4D004D4F56455F5550504568
:1053AE00524D4D004D4F56455F4C4F5745524D4D4A
:0253BE000000ED
:00000001FF
